:10000000801F0020E5170000335D0000B9170000D5
:10001000B9170000B9170000B91700000000000070
:10002000000000000000000000000000211400009B
:10003000B917000000000000CD130000B917000040
:10004000D1140000D1140000D1140000D11400001C
:10005000D1140000D1140000D1140000D11400000C
:10006000D1140000D1140000D1140000D1140000FC
:10007000D1140000D1140000D1140000D1140000EC
:10008000D1140000D1140000D1140000D1140000DC
:10009000D1140000D1140000D1140000D1140000CC
:1000A000D1140000D1140000D1140000D1140000BC
:1000B000D1140000D1140000D1140000D1140000AC
:1000C000D1140000D1140000D1140000D11400009C
:1000D000D1140000D1140000D1140000D11400008C
:1000E000D1140000D1140000D1140000D11400007C
:1000F000D1140000D1140000D1140000D11400006C
:1001000053B94AB9002908BF00281CBF4FF0FF317E
:100110004FF0FF3000F00CB8ADF1080C6DE904CEE3
:1001200000F008F8DDF804E0DDE9022304B07047D0
:10013000704700BF2DE9F04786468C460846089E6A
:10014000154674461946002B40F0C2808542B2FA2B
:1001500082F245D94AB1C2F1200300FA02FC2EFA1C
:1001600003F3954043EA0C0C94404FEA154EA8B2B5
:10017000BCFBFEF8230C0EFB18CC08FB00F943EA8D
:100180000C43994528D9EB1808F1FF3704D299455B
:1001900002D9A8F102072B44A3EB0903A4B2B3FBD5
:1001A000FEFC0EFB1C330CFB00F044EA0344A042AF
:1001B00014D92C190CF1FF3304D2A04202D9ACF1AE
:1001C00002032C44241A43EA07401EB1D440002302
:1001D00034607360BDE8F0874746DDE76346F1E7CA
:1001E00092BB431B01214FEA154EAFB2B3FBFEFC9D
:1001F000200C0EFB1C330CFB07F840EA0343984528
:1002000062D9EB180CF1FF3004D2984502D9ACF159
:1002100002002B44A3EB0803A4B2B3FBFEFC0EFBCD
:100220001C330CFB07F744EA0344A7424ED92C19B0
:100230000CF1FF3304D2A74202D9ACF102032C44E3
:10024000E41B43EA0040C0E7C2F1200320FA03F1B7
:10025000954090402EFA03F303434FEA154EAFB298
:10026000B1FBFEFC0EFB1C10190C0CFB07F841EA5D
:100270000041884504FA02F422D969180CF1FF30D4
:1002800004D2884502D9ACF102002944A1EB08014F
:100290009BB2B1FBFEFC0EFB1C110CFB07F743EA03
:1002A00001439F420ED9EB180CF1FF3104D29F425B
:1002B00002D9ACF102012B44DB1B41EA004192E779
:1002C0006046E3E76146F7E76046A3E76346B7E7C2
:1002D000834206D916B9002108467BE7C6E900E04B
:1002E000F9E7B3FA83F78FB9834201D3724508D88F
:1002F000BEEB020460EB030301209C461EB9002103
:1003000068E73846FAE7C6E9004CF8E7C7F1200C81
:10031000BB4022FA0CF41C432EFA0CF120FA0CF329
:10032000B84001434FEA14490EFA07F5B3FBF9F858
:100330001FFA84FE09FB18300B0C08FB0EFA43EA87
:1003400000439A4502FA07F240D9E31808F1FF305A
:1003500004D29A4502D9A8F102002344A3EB0A0370
:1003600089B2B3FBF9F809FB183308FB0EFE41EA2A
:1003700003418E452CD9611808F1FF3304D28E4514
:1003800002D9A8F10203214443EA0040A0FB0298ED
:10039000A1EB0E014145CE46434602D306D14D4561
:1003A00004D2B9EB020E68EB04030138002EA6D08C
:1003B000B5EB0E0261EB030101FA0CFC22FA07F324
:1003C0004CEA0303F940C6E9003198E74046C5E727
:1003D0004346D9E738B5194C204606F066FA58B3BB
:1003E0002269A168136843F4005313600B68144A30
:1003F0000D212046984700281EDB124B124818603A
:1004000006F053FA10B9114805F028FB104B186894
:1004100006F04BFA10B90F4805F020FB05F017FB6A
:1004200005F015FBA568054C4FF400516B6920469B
:10043000984705F00CFBF7E738BD00BFB46D00002E
:100440000100060080040020FC6D0000C472000062
:1004500000000020E2720000014B1B68184700BF3B
:100460000C000020014B1860704700BF0C000020FA
:1004700007B50B46002102460091034800F014F92D
:1004800003B05DF804FB00BF590400002DE9F047FC
:10049000058B04462807904611D4022905F007056C
:1004A00040F0CD80204605F0F0FA78B10138218B7C
:1004B000042811D8DFE800F0C3106D8595000129EC
:1004C0000CBF45F0100545F02005258388F3118801
:1004D000BFF36F8FBDE8F08701F0070AAA4500F06F
:1004E000A6800027B9463E46A368002B00F0BD80D9
:1004F00041F00801218388F31188BFF36F8FA16851
:10050000002900F0BB800D68002900F0B780D1F809
:100510000480334652462046C047002D76D02B68D3
:1005200029461D46F0E701F007035A1F012A1BD890
:10053000002221F00701062B276889B2C4E90022B6
:1005400009D13B4603E0628B013262831B68002BBA
:10055000F9D141F002012183204605F096FA0028E6
:100560007BD041F0200177E0042B0AD121F0070174
:1005700089B22183204605F088FA10B141F02001AC
:100580002183218B01F0070AAA4550D00027B946E4
:10059000AAE7236921F0070141F00601062DD3F8EF
:1005A000009021832DD1B9F1000F40D041F0080116
:1005B000218388F31188BFF36F8F3A492046C847DB
:1005C00029E021F00701236941F0040189B2042DDB
:1005D000D3F804902183E6D000273E464FF0040A6A
:1005E00082E721F00701236941F0050189B2052D59
:1005F000D3F808902183D6D000273E464FF0050A55
:1006000072E700273E464FF0060A6DE72B4687E764
:10061000B9F1000FD1D14FF02003EFF3118883F32C
:100620001288BFF36F8F238B23F008032383258B5E
:10063000EA062ED525F01003238305F00705666929
:10064000218B002EBFF66FAF00232768C4E900336B
:1006500021F0070141F001012183218B01F0070AFC
:10066000AA454FF000097FF43FAF002F9BD041F027
:100670000801218388F31188BFF36F8F002FC7D043
:100680003D68394633465246204605F02AFA2F4641
:10069000F4E7AB067FF51AAF25F02003238305F0BE
:1006A0000705FFE60F5B00002DE9F04F814695B08E
:1006B0008B4617461C460025387808B9284658E36B
:1006C0007B1C2528039306D05946C8470028C0F252
:1006D00050830135FBE1182200210EA805F055FBDF
:1006E0007B78252B7DD00023781C98469E469C461F
:1006F0001E46014610F8012B2B2A00F0A18000F2C3
:100700009880202A00F09F80232A00F09F802BB140
:100710009DF8403043F040038DF84030B8F1000FB1
:1007200005D09DF8403043F020038DF84030BEF1F5
:10073000000F05D09DF8403043F010038DF8403095
:10074000BCF1000F05D09DF8403043F008038DF850
:1007500040302EB19DF8403043F004038DF8403016
:100760009DF8403003F04400442803D16FF3861312
:100770008DF840309DF840302A2A43F080038DF8F0
:1007800040307FD19DF8412042F001024B1C8DF892
:1007900041201A782E2A9DF841200CBF012100210A
:1007A00061F341028DF8412078D15A782A2A6ED01F
:1007B000013300224FF00A0C194611F8010BA0F189
:1007C0003006092E40F295809DF840101292C1F338
:1007D000400040EAD2700A4660F341028DF84020A2
:1007E0005CE0BA1C03928DF843309DF84130DA0783
:1007F00040F12E8154F8048BB8F1000F07DA9DF810
:10080000402042F004028DF84020C8F100085E0745
:1008100040F1278154F804ABBAF1000F80F2268131
:100820009DF841306FF341038DF841304FF0FF3AAE
:100830001CE12D2A0DD0302A7FF469AF012358E73F
:100840004FF0010C55E74FF0010E52E74FF0010851
:100850004FE701264DE70EFB0262303A0346184689
:1008600010F8016BA6F1300CBCF1090FF3D99942D5
:100870008FD09DF840101192D20F62F341018DF894
:10088000401086E70B4600224FF00A0EE7E79DF87E
:10089000412042F004028DF8412002331A786C2A7C
:1008A00047D02BD8682A31D06A2A4BD04C2A51D055
:1008B0001A4612F8013B0392782B9DF841208DF8DF
:1008C000433000F2BE806D2B51D8692B00F2B98005
:1008D000572B67D8412B03D0453B022B00F2B18048
:1008E0009DF84230042262F302038DF84230012366
:1008F00073E00CFB0202303A0B465DE7742A25D008
:100900007A2AD5D19DF8412006210CE05A78682A30
:100910009DF8412006D1012161F3C6028DF84120E6
:100920000233C5E7022161F3C6028DF8412001338D
:10093000BEE75A786C2A9DF8412001D10421EBE7EB
:100940000321F0E79DF841200521ECE79DF84120C7
:100950000721E8E7BDF8402022F4F04222F002022D
:1009600042F4804242F00202ADF84020DFE76E3BE5
:10097000D9B201238B4040F282410B4237D113F0B0
:10098000240F51D1D8075CD59DF84230032161F383
:1009900002038DF8423002F07803A3F140014B428C
:1009A0004B411AE0A3F15801C9B2012000FA01F14C
:1009B00011F4624F94D140F6010631421DD111F479
:1009C000043F3ED09DF8423060F3020302F078020B
:1009D000402A8DF8423034D000239DF84020C2F3E5
:1009E00040010B4363F341028DF84020FDE69DF882
:1009F0004230022161F30203E8E79DF84210022031
:100A000002F0780260F30201402A8DF8421002BF22
:100A10009DF8401041F001018DF84010632BDBD1AF
:100A2000131E18BF0123D8E79DF84230032161F35C
:100A3000020312F0780F8DF8423014BF0123002317
:100A4000CBE79DF8403043F001038DF84030C3E719
:100A50009DF94020002AB4BFDDF844804FF0FF38F4
:100A6000D5E698077FF5E2AEDDF848A09DF8411085
:100A70000023CDE911339DF8423003F00703012B29
:100A8000C1F3C30133D1CB1E042B04D8DFE803F03C
:100A9000214646212100236801294FEAE372CDE96E
:100AA0000E321CD19DF93830DA17CDE90E320434FC
:100AB0009DF8403013F0030650D0039B3A46594648
:100AC000484605F010F90028C0F253810544039F01
:100AD000F2E554F8043BDA17CDE90E32E8E70229D3
:100AE000E5D11AB243F3C033CDE90E23DFE7022B81
:100AF00024D1CB1E042B04D8DFE803F01810101803
:100B00001800012954F8043B4FF0000214D00229C8
:100B1000CDE90E32CCD19BB20E93C9E7073424F055
:100B20000704F4E80223CDE90E23C1E754F8043B9F
:100B30000E9300230F93BBE7DBB2CDE7042B08D164
:100B4000073424F00704D4E900230834CDE90E2348
:100B5000AEE7032BACD154F8043BDDE79DF843002E
:100B60007828B4D862281CD825283FF4ADAD582881
:100B7000ADD10DF136030093DDE90E0108AB10AAEB
:100B800005F06BF8BAF1000F074680F29A80002F4B
:100B90009DD00DF13603D81B002E00F0C18001302E
:100BA000BEE06338152892D801A252F820F000BFA9
:100BB000850C0000970C0000CF0A0000CF0A00004F
:100BC000CF0A0000CF0A0000970C0000CF0A0000F7
:100BD000CF0A0000CF0A0000CF0A0000250D000058
:100BE000BD0C0000E30C0000CF0A0000CF0A00009B
:100BF000090C0000CF0A0000BD0C0000CF0A000065
:100C0000CF0A0000BD0C0000BAF1000F0E9F35DBCB
:100C10005146384605F0A5F807EB000A002F3FF4CF
:100C200056AF00269DF8423013F01002059200F0F6
:100C3000938002305B06119A48BF129B04921044C5
:100C400048BFC018B8F1000F40F3A0809DF84020C5
:100C5000A8EB0008C2F380035007069300F19680CA
:100C6000510640F189803EB159463046C8470028B8
:100C70007FDB069B01351E4630227EE0384605F0BC
:100C800069F8C9E70E9B8DF82030002608AF0DF1FA
:100C9000210A0120C6E719075CBFC3F300135E01F8
:100CA000DDE90E2348BF2B26002BBFF662AF524270
:100CB00063EB4303CDE90E232D265AE7002658E7C0
:100CC00000269DF840200DF13603DB1B6FF38612E2
:100CD0009A458DF840207FF65AAFAAEB0303119393
:100CE00055E70E9890B30DF13603009310AA08ABA8
:100CF000002104F0B2FFBDF8423003F0EF0343F4EB
:100D0000F04343F01003BAF1000F0746ADF842304C
:100D1000D6DA00283FF4DBAE0DF13603181A0026B0
:100D20009A467FE70E9B07293FF6D1AEDFE801F038
:100D30000C04060C08080C0C1D70C8E61D80C6E6E5
:100D4000EA17C3E90052C2E61D60C0E62E4F064610
:100D500007F1050A052065E71A0748BF013069E772
:100D60000793104606925946C8470028DDE9062336
:100D700004DA15B0BDE8F08F202243461946002959
:100D800003F1FF33ECDC45446D1A98462EB1594609
:100D90003046C8470028ECDB01359DF84230DA06C2
:100DA00001D41B0705D559463020C8470028E0DB91
:100DB0000135059B33B19DF843005946C8470028CB
:100DC000D7DB0135049E2E4405E059463020C84744
:100DD0000028CEDB0135731B002BF6DC53463A4668
:100DE0005946484604F07FFF0028C2DB0544A8446A
:100DF000A8EB0503002B7FF76AAE59462020C847B1
:100E00000028B6DB0135F3E71D73000008B5044682
:100E10004FF02002EFF3118382F31288BFF36F8F3C
:100E200002F058F9204600F05FFE034804F016FE79
:100E300000F030FAFCE700BF2373000002F07CB939
:100E40002DE9F84305464FF02003EFF3118683F3B5
:100E50001288BFF36F8F0E4B0E4F1C68DFF838807F
:100E60004FF00C092CB986F31188BFF36F8FBDE8E2
:100E7000F883D4E90123002D18BF13462BB198F84D
:100E8000102009FB02F2B85C98472468EAE700BF2B
:100E90009C04002090040020580B002070B5194BD2
:100EA0001C7CBFF35B8F04F01F0301229A40164B9A
:100EB000610903EB8103D04353E8001F01EA0005F9
:100EC00043E80056002EF7D1BFF35B8F0A4213D0E0
:100ED0000E4B0F4D8BB10C236343EA18E85C51783D
:100EE00004F06BFF0020FFF7ABFF0C235C432A19D3
:100EF00000232B51C2E9013370BD83F31188BFF386
:100F00006F8FEFE7580B0020A4040020BB5D0000AA
:100F1000900400202DE9F041354B07461D7C4FF031
:100F20002003EFF3118883F31288BFF36F8F0C2433
:100F3000304B314E6C431A19195D00294CD007CA49
:100F400006EB040C8CE8070000221A5588F3118880
:100F5000BFF36F8F0C236B43F218F05C002839D07D
:100F60007B1C10D0D2F808C0244C254A4FF4004016
:100F70000021ECFB004100232046FFF7C1F80121CE
:100F8000381A02F06BF803F055FF0120FFF758FF05
:100F9000BFF35B8F1B4B6A0903EB820305F01F0154
:100FA00001228A4053E8000F104343E80001002962
:100FB000F8D1BFF35B8F144B3BB10C2303FB05F05F
:100FC0003318305C597804F0ECFEFFF767FF03F04C
:100FD00045FF0120BDE8F0810146284600F016F8E3
:100FE0000028B3D007C8344484E80700AEE700BF48
:100FF000580B002084040020900400203F420F0082
:1010000040420F00A4040020A35D00002DE9F04F32
:1010100085B00E4603A900F043F81E4B039DD3F89C
:1010200000A0DFF87480431E1BB203EB43030446A9
:1010300005EB83054FF400474FF0000B24B9A146A0
:10104000484605B0BDE8F08F6868144AC446594662
:10105000E0FB07C100236046FFF752F80190A86843
:101060000E4AC4465946E0FB07C100236046FFF71D
:1010700047F8BAF1FF3FA94601D0824505D9731C54
:10108000DED0019B1844B042DAD9013CA4B20C3D39
:10109000D4E700BF100000203F420F0040420F0085
:1010A00008B9024B0B600020704700BF4870000079
:1010B000014804F023BB00BF4870000038B5044667
:1010C00018B90F4B0F485B6898476168B1F5683FE6
:1010D0000FD0B1F5680F0CD00B4DA94209D011F417
:1010E000686107D00948214605F02DFC00232360E4
:1010F000656038BD2068142204F047FEF8E700BFA1
:10110000E00100204F7300002C5F5CA9A8090020BB
:1011100008B520B34368B3F5683F10D101220368D6
:10112000BFF35B8F53E8001F002903D143E8002081
:101130000028F7D1BFF35B8F0DD1002008BD094A0D
:1011400093420AD000684FF0FF324FF0FF3303F0B4
:1011500043FB0028F1D00448F0E70448EEE76FF4C1
:10116000E040EBE72C5F5CA9E98FFFFFEA8FFFFF10
:1011700008B5D8B14368B3F5683F10D100220368C1
:10118000BFF35B8F53E8001F012903D143E8002020
:101190000028F7D1BFF35B8F0BD1002008BD074AB1
:1011A000934208D0006803F091FBF6E76FF4E0404B
:1011B000F4E70348F2E70348F0E700BF2C5F5CA9BF
:1011C000E98FFFFFEA8FFFFF10B5044618B91D4BEA
:1011D0001D485B6898476368B3F5683F2FD0B3F547
:1011E000680F2CD0194A934219D1236803BB1848C1
:1011F0004FF0FF324FF0FF33214603F0E9F908B911
:1012000023681BB90F4B13485B689847206814226A
:10121000002104F0BAFD4FF46863636008E0B3F5A1
:10122000683F0DD83A2B03D040F6BA629342DED124
:10123000206805F0CBFB636843F03A03636010BDA0
:10124000054AF3E7E00100204F7300002C5F5CA922
:10125000A8090020757300003A00003A08B5064955
:1012600006484023142205F060FBBDE8084004490D
:10127000044804F0B5BA00BFA8040020A809002063
:101280005070000064700000014910220A6070472D
:1012900010ED00E072B6404080F31188BFF36F8F0D
:1012A000BFF34F8F30BF62B6BFF36F8F704700BF81
:1012B00072B6494081F31188BFF34F8F20BF80F38E
:1012C000118862B6704700BF40B2002807DB044AAD
:1012D0004109012300F01F00834042F8213070478C
:1012E00000E100E040B200280CDB4309064900F0B1
:1012F0001F0020330122824041F82320BFF34F8F8B
:10130000BFF36F8F704700BF00E100E0054B42095B
:1013100000F01F0053F82220012303FA00F01040D0
:10132000704700BF00E100E040B20028A8BF00F114
:10133000604001F10101B8BF064B4FEA4111ACBF5B
:1013400000F5614000F00F00C9B2B4BF195480F835
:101350000013704714ED00E030BFFFF7FDBF00BF82
:101360000B4A08B50B4B22F07F029A60BFF34F8FF8
:10137000BFF36F8FD3F8882022F47002C3F888205F
:1013800003F062F803F0A2FE00F020FA03F0A0F8E8
:101390000000000000ED00E0094A0A49936809686E
:1013A000D967094998674B6843F080534B60002325
:1013B00083F31188BFF36F8F9368D86F704700BFB6
:1013C000580B00202072000000ED00E012498A68EE
:1013D0004FF030001044EFF3098C80E8F01F20201C
:1013E00080F31288BFF36F8F0C4F4FF000668A694D
:1013F0008A603E60906F0023936780F3118804B584
:10140000104600F07FFABDE8044002F1300090E899
:10141000F01F8CF309887047580B002004ED00E0A2
:101420001EF0040F0CBFEFF30880EFF30980816911
:1014300011F8021C0229FFD001B504F072FC01BDB5
:1014400042F8203C009B42F81C3C0A49019B42F8B0
:10145000183C029B42F8143C21F001014FF08073CC
:1014600042F8043C42F8081C0023203A02658367D6
:10147000704700BF775A0000094A0346906870B170
:1014800013F1160F806E05D0A0F140029A4205D8E4
:10149000834203D2814228BF00207047002070475A
:1014A000580B002008B5094B0D461446986000F013
:1014B00029FA204685F30988002163B681F3118853
:1014C000BFF36F8F0022002304F0D5FA580B0020E1
:1014D00001B572B60B4A506900281EBF0021516148
:1014E00005F065FA62B6EFF30580A0F110004FEA4F
:1014F000C0000549014409C99847BDE801400349B6
:1015000008470000580B0020146E00001115000061
:10151000044B99689869884203D003494FF0805280
:101520000A607047580B002004ED00E070B5264BB0
:1015300015469A6A12F0100F9A6A14BF11241024EB
:1015400012F0080F9A6A18BF1224920706460AD5AD
:10155000586B9A6A140634D519B19A6A22F080023F
:101560009A62132401E06FF01500174B9A6A12F08B
:10157000010F9A6A18BF142412F0200F9A6A18BF3C
:101580001524D20602D49B6A9B070AD50E4B5B68D2
:10159000190506D53146FFF76FFF10B180F30988B2
:1015A0000224094B9A6A920642BF5A6A22F40052F8
:1015B0005A629A6A42F0FF029A6200232B70204618
:1015C00070BD6FF01500CCE700ED00E0134B9A6A98
:1015D00012F0007F9A6A14BF1E201D2012F0807F37
:1015E0009A6A18BF1F2012F4002F9A6A18BF212090
:1015F00012F4802F9A6A18BF222012F4003F9A6AD0
:1016000018BF232012F4803F9A6A6FEA02426FEA01
:1016100012429A6218BF2420704700BF00ED00E01C
:1016200010B5194B0246986A9C6A10F4805F14BF8B
:101630001720162014F4006F9C6A18BF1820A40508
:1016400009D5986B986A000404D51AB19A6A22F4F5
:1016500000429A6219200C4B9A6A12F4806F9A6ABF
:1016600018BF1A20D2050CD49B6A13F4005F18BF70
:101670001C20054A936A43F47F43936200230B7056
:1016800010BD1B20F5E700BF00ED00E070B5454B35
:101690005B688AB00546C3F30803002686F3118809
:1016A000BFF36F8F02F07F40B0F17F4F11D102F096
:1016B0000C0008280DD010074CBF0D460126002253
:1016C000033B8DF80720032B05D8DFE803F01E5DF0
:1016D000615A3546F3E700249DF807309BB9202274
:1016E000294602A804F046FB099B002E54D0C3F300
:1016F000080222B96FEA53236FEA4323099302A930
:10170000204604F00CFB0AB070BD264BDA6A910744
:10171000E1D4DA6A002ADEDBDA6A5200DBD55A69E4
:10172000A96942F480725A61BFF34F8FBFF36F8F84
:101730005A6931F8021C22F480725A61BFF34F8F4C
:10174000BFF36F8F4DF6027291420AD09A6AD2B2FD
:101750004AB10DF1070201212846FFF7E7FE0446D2
:10176000BAE72C68B8E79A6A12F47F4F05D00DF1FA
:1017700007010120FFF754FFF1E79B6AB3F5803FB3
:10178000A9D3FFF723FFEAE70DF107020021E3E702
:101790000DF107010020EDE723F4FF7323F00103AF
:1017A000ACE700BF00ED00E0024A536943F01003CC
:1017B0005361704700ED00E0EFF30880EFF309811B
:1017C00001B57246FFF762FF01BD00BF0448002368
:1017D0002021C2180133302B82F80013F9D1704751
:1017E00000E100E0002080F31488BFF36F8FFFF763
:1017F00025FB00200D490860BFF34F8F0C4880F394
:10180000088800F02BF8202080F3118809484FF455
:101810000461401880F30988EFF314800221084323
:1018200080F31488BFF36F8FFFF79AFD94ED00E00B
:10183000801F0020C01100200749D1F8902000230C
:10184000C2F307221846934200DB7047C1F8983074
:10185000C1F8A0000133F6E700ED00E008B572B66C
:10186000002383F31388FFF7E7FF144B4FF0FF3299
:10187000C3F88020C3F88420C3F88820C3F88C20E4
:10188000C3F89020C3F89420C3F89820C3F89C2094
:10189000C3F88021C3F88421C3F88821C3F88C21C0
:1018A000C3F89021C3F89421C3F89821C3F89C2170
:1018B00062B6BFF34F8FBFF36F8F08BD00E100E04A
:1018C000084B9B6883420BD1EFF3058343B1064B72
:1018D0005A6842F080525A605A6A22F400425A62B0
:1018E00003F082BB580B002000ED00E0024B034ADE
:1018F0000348012100F070B800000420000000201F
:1019000074700000826E054B403A1A60044A402110
:10191000C3E901121846012100F068B8C40900208B
:1019200000000B15F0B5204E00258D4239DA4468D1
:1019300074B353B104F1FF3C14EA0C0F2FD11F2CE8
:101940002DD907681CEA070F29D1202C0768D0F889
:1019500008C05FFA82FE1ED9B4F1004F1DD8013CC9
:10196000B4FA84F4C4F11F046400BEF1070F4CEA1A
:10197000040C14D827F01F04144344F01004C6F8D4
:101980009820C6F89C404CF00104C6F8A0400132F3
:1019900001350C30C9E70824E7E73E24E5E76FF09E
:1019A00015021046F0BD00BF00ED00E0044B05221B
:1019B000C3F89420BFF34F8FBFF36F8F704700BF02
:1019C00000ED00E0BFF35F8F024B0022C3F89420CC
:1019D000704700BF00ED00E010B5034C01232278F2
:1019E000FFF7A0FF207010BD6C0D002008B5094A5C
:1019F00000231278FFF796FF10F1160F02D0064A67
:101A0000072800DD08BDC2F89800C2F8A0300130F8
:101A1000F6E700BF6C0D002000ED00E014490868F7
:101A2000082810B521D8FFF7CDFF124C49680022D5
:101A3000904201F10C0105D10F4B1870FFF7B6FF72
:101A4000002010BDC4F8982051F80C3C23F01F036F
:101A5000134343F01003C4F89C3051F8043C43F0A6
:101A60000103C4F8A0300132E2E74FF0FF30E8E7AD
:101A70008070000000ED00E06C0D0020014B18604C
:101A8000704700BF3400002010B54FF02003EFF383
:101A9000118083F31288BFF36F8F114A0123C2F8BC
:101AA00040354FF080424FF08051C2F87835D1F880
:101AB0003041082C08D1D1F83411052904D8094C3B
:101AC000615C09B1C2F838364FF080430122C3F897
:101AD000802580F31188BFF36F8F002010BD00BFF9
:101AE00000E00140B57300004FF08043C0B2C3F87E
:101AF0001C05BFF34F8F0549054BCA6802F4E0622D
:101B00001343CB60BFF34F8F00BFFDE700ED00E054
:101B10000400FA0520B1034B800143F0010318478C
:101B2000704700BF40700000084B70B5C31A0D46E7
:101B300007499B10044659430648402204F05FF9C8
:101B40002B4601462046BDE870401847E4090020B6
:101B5000B76DDBB6846D000073B50C4C0C4A4023A6
:101B6000041B00930D460B460A49A4106143064628
:101B7000094804F071F9011E05DA30462B4602B01F
:101B8000BDE87040184702B070BD00BFE4090020F6
:101B9000C55E0000B76DDBB6846D0000002270B535
:101BA000012104461046FFF7BFFB0F4801F046FC39
:101BB0000E4B984215D104F038FD26690C49304689
:101BC00003F0B3FF00280BDB0125356424690849C5
:101BD00004F11C0003F0A9FF002801DBE5640020EC
:101BE00070BD6FF00400FBE7291C00000000AD0B86
:101BF000A070000070B501460C2309484B43C4187F
:101C0000D4E90E56403300221844A26304F0E4F8ED
:101C10002DB132462B460348BDE87040184770BDD1
:101C2000E4090020846D000010B1012804D0704741
:101C3000034B1B6C5B0701D1FFF7DCBF704700BF94
:101C4000E409002008B54FF02003EFF3118183F37E
:101C50001288BFF36F8F124A136843F002001060BE
:101C6000DA0708D481F31188BFF36F8F0120BDE834
:101C7000084004F0E7BC4FF08043D3F80C24D3F8BD
:101C80000C34D307EED5074804F0A6F881F3118889
:101C9000BFF36F8F0020BDE80840FFF7ABBF00BF68
:101CA000340A0020240A00207FB500220123CDE958
:101CB000022304ABCDE90433094ACDF800D06B46CA
:101CC000CDF804D004F0F7F8002805DB4FF480428B
:101CD0000023684602F05CFE07B05DF804FB00BF1D
:101CE000E35E000010B54FF02003EFF3118483F39F
:101CF0001288BFF36F8F074A136823F00201DB07D6
:101D0000116002D4012004F0D9FC84F31188BFF3E0
:101D10006F8F10BD340A00202DE9F0413849BFF320
:101D20005B8F0746012251E8003F41E80020002870
:101D3000F9D1BFF35B8F33B9324933484B60CB6085
:101D40008A6003F005FF7B1E012B2BD8012F07D1E2
:101D50004FF08043D3F81C3403F00303012B21D050
:101D600004F01AFE0546F8B9284B1B78E3B14FF092
:101D700080430222C3F808230646DFF894804FF020
:101D80008044D4F81834D4F81824D20316D503F0BC
:101D90000303012B01D0012F10D15DB386F311880D
:101DA000BFF36F8FBDE8F0814FF02003EFF3118692
:101DB00083F31288BFF36F8F0125DEE7ADB13046A4
:101DC000FFF776FAD4F81835002BDAD1D4F80421CD
:101DD000002AD6D0C4F80431D4F804310123C4F861
:101DE0001835C8F88031A360CBE70021212003F02B
:101DF000DBF8E7E74FF080430222C3F80423D1E782
:101E0000E0090020D0090020000A002087110020EE
:101E100000E100E008B5074804F047FD38B1064886
:101E2000FFF72CFE0448FEF71DFB002008BD6FF0F5
:101E30001200FBE7CC6D00003D1E00000A2838B5FB
:101E4000074D044604D1AB680D215B6828469847CE
:101E5000AB6803485B68E1B29847204638BD00BFD5
:101E6000CC6D000030B54068057B01F01F04B2F571
:101E7000001F85B044EA451405D1204601F060FDFD
:101E8000002005B030BD0025B2F5800FCDE9025528
:101E900014D1B3F1007F0CBF042305238DF8083063
:101EA0000023194602AA204601F088FB1F4B9842E6
:101EB00039D10121204601F0FBFCE1E7B3F1C06F0D
:101EC00026D0B3F1007F14BF012302238DF8083020
:101ED0008368CB40D907E3D4B2F1A07FE0D1620997
:101EE000012A04F01F03124A03F5E07318BF4FF0F4
:101EF000A04252F82330DB07D2D40DF10705294662
:101F0000204601F081FC0B4B984203D00395C7E7B4
:101F10000323DBE7284601F0C5FC044B9842F5D0CB
:101F20006FF00B00ADE76FF01500AAE70000AD0BF6
:101F3000000300500400AD0B10B501F0A3FC0446F3
:101F400068B901F077FC084B98420AD1074821464E
:101F500001F054FC224605210620FFF7E5F9002098
:101F600010BD6FF00400FBE70000AD0B711F000017
:101F7000420970B5034602D0012A17D070BD0D4E3C
:101F8000326951680029F9D003F01F0301250C685C
:101F90009D400029F2D08A682A4002D04B68304622
:101FA00098472CB1236821461C46F2E7024EE7E72A
:101FB0002346F8E7B46D00009C6D00002DE9FF4159
:101FC00047683B7B01F01F0545EA43150E4628464E
:101FD0000DF10301144601F017FC14F4403F804654
:101FE0000BD1284601F0D4FC3D4B984503D19DF818
:101FF000030001F051FC00200CE00023194602AA66
:102000002846CDE9023301F0D9FA354B984204D085
:102010006FF0150004B0BDE8F081804503D19DF854
:10202000030001F039FCA3034BD540F206332340F3
:10203000B3F5837F19D00CD8062B17D004D8ABB1D9
:10204000022BE5D1042311E0B3F5807FE0D1012319
:102050000CE040F20222934227D0B3F5407F26D015
:10206000B3F5007FD4D1022300E007238DF80430BC
:1020700084F48033C3F30043E0068DF8053054BF89
:10208000C4F34013032321038DF8063011D57A6879
:102090000123B340C2F80835002201A9284601F007
:1020A0003BFB0F4B9842A6D0B2E70523DEE70323A4
:1020B000DCE7620341BF01237A68B340C2F80C3504
:1020C000EAE7E3064FF0000354BFC4F340140324CF
:1020D0001A4601A928468DF8044001F06FFAE0E79E
:1020E0000000AD0B2DE9F0415A4E00EB81010127B4
:1020F000814202D10020BDE8F081046804F07F0332
:10210000C4F343257F2B4FEA144408BF4FF0FF333D
:10211000222C00F29B80DFE804F0122429442C409A
:1021200044999999994770999999999999999999EF
:10213000737B7E81999999848A8D90939600C2F8D9
:102140000C354FEA531CBCF1010F03F01F0414BF00
:102150004FF0A04CB44607FA04F4CCF8084501242B
:1021600002E0C2F814350024A64624E0C2F808357F
:10217000E7E7C2F8083500244FEA531EBEF1010F0D
:1021800014BF4FF0A04EB64603F01F0C07FA0CFC2C
:10219000CEF80CC54FF0010E0DE0C2F80C3501244D
:1021A000EAE7C2F81035DEE7C2F80835002DDAD1CB
:1021B0000024A646062550F804CB0CF40058B8F1CC
:1021C000000F4FEA0525CCF3C11803F01F0C4FEAAE
:1021D00053131CBF01244FF0000E45EA8805012B64
:1021E0000CBF33464FF0A04345EA0E050CF5E07CEA
:1021F00045EA440543F82C507AE7C2F80C35D5E798
:10220000C2F860350468C4F38034002CC7D098E766
:10221000C2F86435F6E7C2F86835F3E7C2F86C3502
:10222000F0E7C2F8243501244FF0000EC3E7C2F8EE
:10223000283586E7C2F83035F5E7C2F83435F2E7DD
:10224000C2F83835EFE7C2F83C35ECE76FF08500AF
:1022500051E700BF00030050F0B54B79012B26D0A9
:10226000032B21D110258B79032B1DD1CE790EB1F3
:10227000012E19D10A7912B1022A15D10E220B684A
:102280004468B3F5164F276867D02DD8B3F5165FAD
:1022900066D016D8B3F5966F64D00AD8B3F5967F9A
:1022A00063D0B3F5167F63D06FF0850054E000254E
:1022B000D9E7B3F5166F5ED0B3F5965FF4D1384B1E
:1022C0003CE0B3F5E14F59D007D8B3F5615F57D083
:1022D000B3F5964FE8D1334B30E047F61224A342D2
:1022E000E2D14FF4000329E0B3F5613F4AD013D89F
:1022F000B3F5963F49D009D84DF6C024A34246D045
:10230000B3F5614FD0D14FF46B0317E0B3F5E13F64
:10231000CAD14FF0EB7311E0B3F5612F3AD008D872
:10232000214CA34239D0B3F5E12FBDD14FF0E86382
:1023300004E01E4CA342B7D14FF080530469C7F8A4
:102340002435436835431B682A43C3F86C2503C909
:10235000231D83E803000020F0BD4FF41D03EDE7CB
:10236000134BEBE74FF49E23E8E74FF4A033E5E788
:102370004FF41C33E2E74FF41D23DFE70D4BDDE79D
:102380000D4BDBE74FF06C73D8E70C4BD6E74FF4FF
:102390006503D3E74FF07063D0E74FF08063CDE77C
:1023A00000B0130000A04E0090D0030040420F0088
:1023B0000050270000C0750000F03A0000903A017C
:1023C0002DE9F7438046002201210220FEF7ACFFF1
:1023D0000220FEF779FFD8F80470D8F810603C6846
:1023E0000021C4F80015C6F80080D7F80C9001AAA7
:1023F000484603F0CEFD051E54DB019BD9F80020B2
:1024000019791868FFF76EFE051E4BDB311D40463B
:10241000FFF722FF0546002844D17B6899071AD5AB
:1024200006F1180001F0B6FB224B98423ED1337EF4
:10243000DB0003F1804303F5F83304F10C0204F5EB
:102440009071C3F81015C3F81425327E0123934010
:10245000194AC2F804350823C4F800353B7A53B949
:10246000C4F81031D4F810317369C4F8343501233D
:10247000C4F8383523607B689A075CBF4FF48073DB
:10248000C4F804337B68DB0644BF4FF48003C4F810
:1024900004333369C4F844350023C4F848350123B4
:1024A000A360E360284603B0BDE8F0836FF0040545
:1024B000F8E700BF0000AD0B00F00140F8B504469E
:1024C00007690D4604F068FAB0B92E4B1B789BB132
:1024D0006426606803F093FD00BB012004F0A3F8BC
:1024E000013EF6D10021212002F05EFDF0E786F3E7
:1024F0001188BFF36F8FF5E74FF02003EFF31186DC
:1025000083F31288BFF36F8F6068314603F077FD65
:1025100090B986F31188BFF36F8FEDE74FF020037A
:10252000EFF3118683F31288BFF36F8F6068314633
:1025300003F065FD0028DAD03B691D7062683869D8
:102540001368C3F844050120C3F848050020C3F808
:102550002001D3F82051C3F858015268D3F858012C
:10256000D20608D5626812680820C2F800054FF448
:102570008002C3F8042301229A6081F31188BFF31B
:102580006F8FF8BD871100207FB5054640682A6926
:10259000536ED16EE3B9A9B1146E91671E460B4616
:1025A000926E0292CDE90046EAB1002918BF1946A1
:1025B00003910022694601F0E7FB0D4B984214D0CD
:1025C0006FF00401284604B0BDE8704003F026BE59
:1025D000146E11B18B4228BF0B46002C936714BFB9
:1025E0001E460026DCE71146E2E704B070BD00BFDE
:1025F0000000AD0B2DE9F04F8BB098464368039374
:102600008B8804690E4699040746914600F1C680FE
:102610004FF0FF334FF0FF3204F1100002F0B8F931
:102620009DF8503084F84C30159B6364169B6660AF
:10263000A364D7F810A07B6801939AF87D300293C9
:102640001BB1DAF800309E4261D0B6F804C01CF429
:10265000006F40F0CB801CF0090F40F0C480CCF339
:102660004513082B40F0BF803568974B9D4240F2E0
:10267000BA80019B03F1080BBBE80F000DF1140EAB
:10268000AEE80F00DBF80030CEF800308F4B9D42F3
:1026900040F28D808E4B9D4240F28C808D4B9D424E
:1026A00040F28B808C4B9D4240F28A808B4B9D4246
:1026B00040F289808A4B9D422CBF4FF000454FF07D
:1026C00080451CF0020F07950CF004037ED0002B10
:1026D00014BF032302238DF82030029BCCF3001C8F
:1026E0008DF821C02BB1019801F016FB00238AF868
:1026F0007D3053467B4A019805A901F05FFA7A4B79
:10270000984267D101238AF87D30CAF8006001231E
:1027100084F87C30B9F1000F6BD1C4F850900023DD
:10272000636504F1640204F1540104F1500003F004
:10273000B4FC2066B8F1000F63D1C4F858800023C0
:10274000E36504F16C0204F15C0104F1580003F04C
:10275000A4FC0022A066226422670121204603F027
:10276000C3FC3846FFF710FF94F84C302068002B6C
:102770004FD0858815F0010505D0256F15F1740F30
:1027800072D0002D28DB23689B889B0402D494F828
:102790004C300BB328460BB0BDE8F08FA369002B7B
:1027A0007FF436AF63689E427FF432AF41E74FF06B
:1027B000007586E74FF0806583E74FF0006580E79E
:1027C0004FF080557DE74FF000557AE7003B18BF8A
:1027D000012380E76FF004050023636004F110001B
:1027E00002F0B0F8D6E76FF01505F5E76FF0850554
:1027F000F2E7D9F800302365002B90D0D9F80430E7
:102800008EE7D8F80030A365002B98D0D8F80430B4
:1028100096E7828812F0010247D1656D1346AB42FC
:1028200035D10023E66D1946B14237D1934238BF06
:1028300013464FF4FA5202FB03F54FF400460368C7
:10284000B5FBF3F540F2E730C83500214FF47A725A
:102850000023E5FB0601FDF753FC02460B4604F19D
:10286000280002F095F820B300250398A56701F031
:1028700053FA84F87D506FF07301384603F0CEFCB4
:1028800004F1280002F0ACF86FF07305A4E7216DA5
:1028900001EBC301013349680A44C0E7A56D05EBAC
:1028A000C10501316D682B44BEE74FF0FF3213467E
:1028B000D5E72368256C9B88DA077FF55FAF002D8D
:1028C0007FF45CAF59E700BF47E801008FD00300F9
:1028D0001FA107003F420F007F841E00FF083D003C
:1028E00000127A00716200000000AD0BF0B50469BF
:1028F0004768666EE36E85B005463EB96BBB194608
:10290000284605B0BDE8F04003F0DFBD216E03BBF3
:1029100031BB3A8D236E0091B24228BF3246A26786
:102920001BB1636E002B18BF13460193A36E029375
:102930001BB1E36E002B18BF1346002269463846D0
:10294000039301F02BFC0F4B984219D06FF0040158
:10295000D6E79E4228BF1E46DAE7216E1E46D8E71C
:1029600001F06043B3F1005FD3D0082E28BF0826E2
:10297000D4F88000324603F0FDF9D4F88010C8E79F
:1029800005B0F0BD0000AD0B2DE9F04F8BB09846BF
:10299000436802938B8804699F0406460D4691465E
:1029A00000F1D5804FF0FF334FF0FF3204F11000FB
:1029B00001F0EEFF9DF8503084F84C30159B6364B5
:1029C000169B6560A364D6F804B0D6F810A0DBF8B7
:1029D000083003939AF87D3000931BB1DAF8003089
:1029E0009D426DD0AF88380500F1DF8017F0090FE8
:1029F00040F0D880C7F34513082B40F0D3802B68F4
:102A00000193019A9F4B9A4240F2CC800BF10C0E3D
:102A1000BEE80F000DF1100CACE80F00039B019A0B
:102A2000934228BF13469EE80300974A93428CE8DE
:102A3000030040F29580954A934240F29480944A74
:102A4000934240F29380934A934240F29280924A9A
:102A5000934240F29180914A9342C0F09080904A14
:102A60009342C0F08F808F4A93422CBF4FF0A05307
:102A70004FF02063B907069307F0040340F1858007
:102A8000002B14BF032302238DF81C30009BC7F3D7
:102A900000178DF81D702BB1584601F021FB002363
:102AA0008AF87D305346804A04A9584601F018FA46
:102AB0007E4B98426DD101238AF87D30CAF80050D0
:102AC000012384F87C30B9F1000F71D1C4F8509023
:102AD0000023636504F1640204F1540104F1500021
:102AE00003F032FC2066B8F1000F69D1C4F85880B9
:102AF0000023E36504F16C0204F15C0104F1580069
:102B000003F022FC0022A0662264226701212046F5
:102B100003F041FC3046FFF7E9FE94F84C302068A2
:102B2000002B55D0858815F0010505D0256F15F1CE
:102B3000740F78D0002D2EDB23689B889B0402D471
:102B400094F84C303BB328460BB0BDE8F08FA36936
:102B5000002B7FF427AF636899427FF423AF32E7FD
:102B60004FF0007386E74FF0806383E74FF0006318
:102B700080E74FF080537DE74FF000537AE74FF046
:102B8000804377E74FF0004374E7003B18BF012311
:102B90007AE76FF004050023636004F1100001F090
:102BA000D1FED0E76FF01505F5E76FF08505F2E788
:102BB000D9F800302365002B8AD0D9F8043088E793
:102BC000D8F80030A365002B92D0D8F8043090E7F5
:102BD000828812F0010247D1656D1346AB4235D1B0
:102BE0000023E76D1946B94237D1934238BF1346E7
:102BF0004FF4FA5202FB03F54FF400470368B5FBAC
:102C0000F3F540F2E730C83500214FF47A72002323
:102C1000E5FB0701FDF774FA02460B4604F12800B4
:102C200001F0B6FE20B300250298A56701F058FA1E
:102C300084F87D506FF07301304603F046FC04F1D8
:102C4000280001F0CDFE6FF07305A4E7216D01EBC4
:102C5000C301013349680A44C0E7A56D05EBC1050E
:102C600001316D682B44BEE74FF0FF321346D5E7C4
:102C70002368256C9B88DA077FF559AF002D7FF418
:102C800056AF53E747E801008FD003001FA10700AC
:102C90003F420F007F841E00FF083D0000127A00B3
:102CA0000024F4000048E8011F6500000000AD0B9F
:102CB00070B5012383400E4ABFF35B8FDC4352E8BB
:102CC000001F01EA040542E80056002EF7D1BFF3C9
:102CD0005B8F4FF4803282400648C0F80823BFF370
:102CE0005F8FBFF36F8F0B4214BF0120002070BDB8
:102CF000540A00200010014070B40E49D1E900349C
:102D0000D01AC31844F1000422F07F46C1E9003410
:102D1000A6F50013B3F5400F09D2074B1B681A0A3A
:102D20001B069C19054B42F10005C3E9004570BC28
:102D300002F0A2BAB0020020580A0020B802002017
:102D400011B3BFF35B8F0123104A834052E800CFD9
:102D50004CEA030C42E800C10029F7D1BFF35B8FB6
:102D60000B4A4FF480338340C2F80433094BBFF35E
:102D70005B8F1B68BFF35B8FC340DB0742BF064B13
:102D80004FF40032C3F80021704700BF540A0020FE
:102D900000100140500A002000E100E00D4B1868CF
:102DA000010A0006BFF35F8F0B4BD3F804351818E8
:102DB00041F10001B3F5801F0AD2084BD3E900238B
:102DC000904271EB030303D210F1807041F10001D6
:102DD000704700BF580A002000100140B8020020D0
:102DE0002DE9F74F16461F460446FFF761FF009096
:102DF000FFF7D4FFB04271EB070351D23A4B301AC0
:102E000067EB0101984271F100016AD2374B03EB85
:102E10000413D3E902239F4208BF96424ED034499F
:102E20004FF4803904F1500509FA04F9AD00C1F8F6
:102E300048932046ADB203F0DAFB26F07F4B05F154
:102E4000804504F5A8732B4A019305F58835DC46C7
:102E50004FF0030A019B2CF07F4041F82300C1F89A
:102E60004493D1F804856FF00200A0EB08006044A1
:102E700020F07F40904221D9286860B1D1F80485C4
:102E8000A8EB0B0020F07F40B0F5000F16D92046CC
:102E900003F0ADFB174A0AEB080C0AF1010AD9E767
:102EA0000123154ABFF35B8FA34052E8000F18437C
:102EB00042E800010029F8D1BFF35B8F0B490C9861
:102EC000230101EB0412C2E90267C8500D9B536055
:102ED000002520460099FFF733FF284603B0BDE8E0
:102EE000F08F6FF01505F4E701008000A0020020CC
:102EF00000100140FDFF7F00500A002073B51B4CFD
:102F00001B4BC4F80833C4F848331A4B00254FF064
:102F1000FF304FF0FF31C4F80855C3E902014FF408
:102F20008033C4F80433144B02264FF400320121DD
:102F3000C4F804631120C3F880212A46FEF7F4F98F
:102F40001120FEF7C1F90D4A0123A360236013602D
:102F50000B4B0C4A0093019500232846FFF740FFD6
:102F60003046FEF7D9FE284602B070BD0010014081
:102F700003000F00A002002000E100E0540A00203E
:102F8000F92C0000FFFF7F002DE9F7432F4CD4F808
:102F9000043399070BD5D4F8043143B12C4A0023EC
:102FA000C4F80431D4F80431136801331360D4F841
:102FB0000433DA032AD5BFF35B8F264B53E8002F87
:102FC00022F0010143E800100028F7D1BFF35B8F26
:102FD000D30702D4D4F84031C3B10025C4F840511E
:102FE000D4F84031FFF7DAFE4FF02003EFF31182FF
:102FF00083F31288BFF36F8F174BD3E90267B04298
:10300000B94106D282F31188BFF36F8F03B0BDE8D8
:10301000F0834FF0FF384FF0FF39C3E90289D3E95D
:1030200000101D604FF48033C4F84833C4F8405199
:10303000D4F8403182F31188BFF36F8F0029E5D0B7
:10304000009032463B4628468847DFE700100140A3
:10305000580A0020500A0020A0020020431C13B58B
:1030600022D0012822DD124A124B9042D4BF0446DE
:103070001C46FFF793FE104B0E49D3E90023801A3C
:10308000B0F5000F28BF002404448C4228BF0C4632
:10309000A2180A4900914FF00000019043F100038B
:1030A000FFF79EFE02B010BD024CE2E70124E0E70C
:1030B000FEFF7F00FFFF7F00B0020020F92C000020
:1030C00008B5FFF76BFE024B1B68C01A08BD00BFB6
:1030D000B002002010B5084C012363601120FEF7F8
:1030E00001F9064BC4F80833C4F84833044B4FF4D5
:1030F0000032C3F8802110BD0010014003000F0012
:1031000000E100E04FF08053D3F83021082A06D1C7
:10311000D3F83431052B02D8024AD05C7047002026
:10312000704700BF5D740000024AD2F80034002BE3
:10313000FBD0704700E0014010B54FF08053D3F84A
:103140003021082A4ED14FF080420021C2F80C11E4
:10315000C2F81011C2F8381502F54042D3F8041431
:10316000C2F82015D3F80814C2F82415D3F80C14AB
:10317000C2F82815D3F81014C2F82C15D3F814147B
:10318000C2F83015D3F81814C2F83415D3F81C144B
:10319000C2F84015D3F82014C2F84415D3F824140B
:1031A000C2F84815D3F82814C2F84C15D3F82C14DB
:1031B000C2F85015D3F83014C2F85415D3F83414AB
:1031C000C2F86015D3F83814C2F86415D3F83C146B
:1031D000C2F86815D3F84014C2F86C15D3F844341B
:1031E000C2F87035FFF78EFF18B13A4B3A4AC3F870
:1031F0008C26FFF787FF18B1384BFB22C3F8182540
:10320000FFF780FF70B14FF080414FF08053D1F84D
:10321000E42ED3F8583222F00F0203F00F031343C9
:10322000C1F8E43EFFF76EFF20B12D4B4FF4007262
:10323000C3F840264FF08053D3F83031082B1AD111
:103240004FF08043D3F80024D20744BF6FF001024F
:10325000C3F800244FF08053D3F83431052B02D843
:10326000204AD35C3BB14FF01023D3F808224FF033
:103270008043C3F858254FF01023D3F80022002ACA
:1032800003DBD3F80432002B22DA174901234FF075
:103290001020C1F804351224FFF746FFC0F80042A1
:1032A000FFF742FFC0F80442FFF73EFF0023C1F8DA
:1032B0000435FFF739FFBFF34F8F0C490C4BCA6839
:1032C00002F4E0621343CB60BFF34F8F00BFFDE712
:1032D00010BD00BF005000404881030000F00040D6
:1032E000009002405774000000E0014000ED00E053
:1032F0000400FA0570B501250268BFF35B8FB2FACE
:1033000082F3C3F11F03DBB205FA03F422EA0404DB
:1033100050E8006F964204D140E8004CBCF1000F29
:10332000F6D1BFF35B8FE7D101480B7070BD00BFD2
:103330000000AD0B10B50368CB40DB0714D40123AC
:103340008B400268BFF35B8F43EA020150E8004FF5
:10335000944204D140E8001CBCF1000FF6D1BFF349
:103360005B8FEED1014810BD0148FCE70000AD0BBA
:103370000400AD0BF7B5044618B1012822D003B004
:10338000F0BD4FF080430222C3F80823C3F80401C4
:10339000D3F804210122DA60074601238DF80730B3
:1033A00042F210754FF08046CCB1012CE7D1C7B383
:1033B000D6F80C3403F001033B70D6F80C34DA0372
:1033C00021D516E04FF080430022C3F80803C3F86C
:1033D0000021D3F8002158600DF10707DDE7B7B1F0
:1033E000D6F8183403F003033B60D6F81834D8033A
:1033F000C5D59DF80700012803D103F014F9013D5C
:10340000D2D1012CBBD10C4B00225A71B7E7D6F8B0
:103410001834D903B3D5012003F005F9013DF6D1E5
:10342000ADE7D6F80C34DB03EDD5012003F0FBF853
:10343000013DF6D1E7E700BF5C0A0020044B1A7992
:1034400022B9012218609A800248704702487047EA
:103450005C0A00200000AD0B0C00AD0B10B54FF066
:103460008043D3F800216AB10022C3F80021D3F8C9
:1034700000210122C3F80823114B587910B95A7161
:103480001B6898474FF08043D3F8042172B10022A3
:10349000C3F80421D3F80421D3F81824D3F818145E
:1034A000920704D10122C3F818259A6010BD0222A8
:1034B000C3F80823024BBDE810401B6801201847E1
:1034C0005C0A0020036803F01F025B09012B026005
:1034D000024818BF4FF0A040704700BF00030050E3
:1034E000034B083033F81000C0F34010704700BFA2
:1034F0005801002070B500F108030C4C34F813306B
:10350000DA0505460E4607D5C3F3432304EBC30291
:1035100054F8333052689847A3682BB1E2683146BB
:103520002846BDE87040184770BD00BF5801002014
:1035300010B4124A083032F81030D9051BD5C3F345
:10354000432123F4F85322F8103002F10E04002036
:1035500034F8023F13F4807F03D0C3F3432399422E
:1035600009D001303028F3D1002342F8313004482B
:1035700010BCFFF7DFBE10BC704700BF5801002031
:10358000CC01002038B50246FFF7AAFF094C02F132
:10359000080540B134F8153007495B0B03F5A273F9
:1035A000002041F823001046FFF7C2FF002324F853
:1035B000153038BD58010020006000402DE9FF4162
:1035C000044616461D4601B34E4F00F1080837F871
:1035D00018309B0702D5FFF783FF10BB0023CDE90E
:1035E00000338DF80E308DF80F300DF10F020B46C1
:1035F00020460DF10E0103F063F837F8183023F080
:10360000020343F0010327F8183046B33D4B96F808
:1036100000C0726804F1080733F81710880702D554
:10362000AAB139481DE021F02001C904C90C23F8D2
:10363000171062B1BCF1030FF3D872681678BCF1B1
:10364000000F11D1314A06F5A27642F826C033F8B0
:10365000172022F01C0242EA8C0223F8172045BBF7
:103660002B4804B0BDE8F081B20002F1804202F5BF
:10367000C04241EA4631D2F8100520F00300C2F8FA
:103680001005D2F8100520F44F3020F44070C2F835
:1036900010052002D2F810E500F47C5040EA0C40FE
:1036A00040EA0E0041F0200123F81710C2F810057F
:1036B000CDE7D5E900672046FFF73AFF002ECFD0CF
:1036C000104DD5E90023964201D19F4218D01148F0
:1036D0000DF10F01FFF70EFE0D4B9842C1D19DF881
:1036E0000F2045F8326005EBC20308345F6035F8FF
:1036F000143043EA422343F4807325F81430AFE7D3
:103700000022EEE7580100200400AD0B00600040ED
:103710000000AD0BCC010020F0B5044685B0154685
:1037200019B3334E00F1080736F81720930703D476
:10373000FFF7D6FE002858D112F01C0F02D04B78AC
:10374000012B52D001238DF80F300023CDE9001357
:103750004A1C8B1C20460DF10F0102F0B1FF36F818
:10376000173043F0030326F8173015B9214805B088
:10377000F0BD1F4E04F1080736F81700830734D553
:1037800095F800C06146890020F0200001F18041D9
:10379000C00401F5C041C00C26F817000023C1F891
:1037A00010356A78002AE1D0D1F81035AD7823F4CD
:1037B000991323F4F853C1F81035D1F810E523021A
:1037C00003F47C53120402F4403243EA0E03134321
:1037D0002A0502F4801240EA4C30134340F02000E6
:1037E00026F81700C1F81035C0E70348BFE700BF4F
:1037F000580100200000AD0B0400AD0B014BC3E9E4
:10380000020170475801002008B50246FFF768FE24
:1038100038B1054B0548083233F812305B0B0B709A
:1038200008BD0348FCE700BF580100200000AD0BB5
:103830000400AD0B38B50F4C94F87850BDB9602238
:10384000294604F1100002F0A0FA0620FDF73CFD25
:10385000094B0A48C3F87C51D3F87C214FF0004251
:10386000C3F80423012384F87830636738BD044823
:10387000FCE700BF58010020006000400000AD0BD5
:103880000500AD0B034B93F87800003818BF0120FA
:10389000704700BF5801002001460148FFF74ABDAC
:1038A000C801002001460148FFF724BDC8010020DF
:1038B00037B50446FFF714FE04F108021E4B33F837
:1038C0001230E8B113F002051AD15B0B9A0002F135
:1038D000804000F5C24002F1804202F5C04205601E
:1038E0000068D2F8100540F00100C2F8100529B1B7
:1038F000012202FA03F3114AC2F8043303B030BDC7
:10390000C3F38203042B12D0052B12D001A801941B
:10391000FFF7D8FD019BD0F81015D94001F0010147
:103920000231204603B0BDE8304002F012BF03214F
:10393000F7E70221F5E700BF5801002000600040D2
:1039400008B50246FFF7CCFDC0B102F108010E4BED
:1039500033F81130990711D45B0B01229A409B0078
:103960000A4903F1804303F5C043C1F80823D3F8A3
:10397000102522F00302C3F8102508BDBDE8084059
:103980000021104602F0E5BE580100200060004012
:1039900013B50E4B00F10802044633F81230DB0772
:1039A00011D5FFF7CDFF2046FFF7ECFD01A80194EC
:1039B000FFF788FD019B03F5E073022240F8232006
:1039C000034802B010BD0348FBE700BF58010020C8
:1039D0000000AD0B0400AD0B2DE9F04F684B6948BA
:1039E0006949002687B0012234461D6835B1D0F8F8
:1039F000045315421EBF1C601D68164304338B42DE
:103A00004FEA4202F1D1DFF87C91D9F87C31002BEA
:103A100000F099804FF0A043D3F820250492C3F81A
:103A20002025D3F820280592C3F820284FF000085D
:103A30000DF1100A4FEA481300934FF0010B49E0D3
:103A4000009B524A94FAA4F4B4FA84F41C44E008AB
:103A500004F10803039432F813701AF8003004F0EC
:103A600007020BFA02F223EA02030AF8003003A865
:103A7000FFF728FD039B03F5E073B90850F82330E6
:103A8000C7F382054A072F46C3F301432CD52046CE
:103A90003946DDB2FFF72EFD03A80394FFF712FDB0
:103AA000039B03F5E07350F82330C3F301439D42B9
:103AB00007D10021204602F04CFE2946204602F0A4
:103AC00048FE03A80394FFF7FDFC039B0BFA03F3E6
:103AD000C0F820355AF82840002CB1D1B8F1000FB9
:103AE0001DD14FF00108A5E7022B0CD10321204680
:103AF00002F02FFE05F00503012BE2D139462046E6
:103B0000FFF7F8FCDDE702212046019302F021FED9
:103B1000032DF3D0019B032BD3D1022DEDE74FF002
:103B2000A042C9F87C41D9F87C311949D2F8203536
:103B30000493C2F82035D1F8202505921343C1F82B
:103B400020257FF473AF012416B907B0BDE8F08FCC
:103B500096FAA6F3B3FA83F304FA03F29B0003F197
:103B6000804303F5C04326EA0206D3F81005D3F8D4
:103B70001015C0F30520C1F30141FFF7BBFCE3E7DB
:103B800000610040006000402061004058010020BA
:103B90000003005001460148FFF7ACBBD4010020F0
:103BA000036803F01F025B09012B0260024818BF83
:103BB0004FF0A040704700BF000300502DE9F341D3
:103BC0000779524C4FF0280C0CFB07FC064604EB1F
:103BD0000C00057F002D40F09680356844F80C20DD
:103BE0004360CB7B80F82530CB7883774B79C377E4
:103BF000CB7B002B40D10B7B0878012B7AD802F0CD
:103C0000D2FD0B78019301A8FFF7CAFF019B03F5D2
:103C1000E073012240F823204878FF280CD002F0FE
:103C2000C2FD4B78019301A8FFF7BAFF019B03F592
:103C3000E073032240F823208B78FF2B0CD001A8DF
:103C400091F80E800193FFF7ABFF019B03F5E07342
:103C50004FEA880240F82320C878FF280CD002F0F1
:103C600095FDCB78019301A8FFF79AFF019B03F51F
:103C7000E073032240F823200B7C93B94B7808783B
:103C8000FF2B18BF1A468B78C5F8080508BF4FF000
:103C9000FF32FF2B08BF4FF0FF33C5F80C25C5F8E6
:103CA00010358B68C5F824354B7B0A7B003B18BF69
:103CB0000123022A21D0032A22D0012A01D143F074
:103CC0000203C5F854350123C5F8003528237B438A
:103CD000E35823B1306840F30730FDF7F5FA2823A5
:103CE00003FB07440023637709480123237702B0CD
:103CF000BDE8F08102F04AFD83E743F00403E0E70A
:103D000043F00603DDE70348F1E700BF640A002043
:103D10000000AD0B0500AD0B70B50679194C0568B8
:103D200028237343E35833B145F30730FDF7DAFA3C
:103D30000423C5F808330023C5F80035282303FB06
:103D4000064393F82530BBB9D5F8080502F010FDFD
:103D5000D5F81005421C01D002F00AFDD5F80C057B
:103D6000431C01D002F004FD282303FB0643987F87
:103D7000FF2801D002F0FCFC282303FB06440023AB
:103D8000237770BD640A00202DE9F8430779394C88
:103D900028237B439046E2180E46517F8146002936
:103DA00066D1E3580BB10123537796E80F0028251D
:103DB00005FB074505F10C0C8CE80F00A87F0023DC
:103DC000FF2885F8243001D002F0EDFC2823B8F15B
:103DD000000F06D003FB0743002227485A77BDE8AF
:103DE000F883D9F8005003FB07430422C5F80823E1
:103DF000C3F82080C5F80881D5F8082172689AB107
:103E000033681B78C5F81C357368012B0ED93368ED
:103E10005B78C5F81C3528237B43E65876B104232C
:103E2000C5F804331548DAE7DB7FEBE7F368012BCD
:103E3000F1D9282303FB0743DB7FEAE707EB870180
:103E400004EBC101D5F80831002BFBD0C5F808619F
:103E50002846D5F8083102F0B3FC0028F2D1282317
:103E600003FB0744A07FFF28DCD002F08FFCD9E7DA
:103E70000348B4E7640A00200300AD0B0000AD0B5B
:103E80000B00AD0B10B54FF040200023C0F80831F7
:103E90000A49D0F8083102F093FC68B9887FFF28FE
:103EA00001D002F073FC00234B770B72BDE8104089
:103EB000D1E900310248184710BD00BF640A002054
:103EC0006C0A0020036803F01F025B09012B0260EB
:103ED000024818BF4FF0A040704700BF00030050D9
:103EE0002DE9F7437A4C0579064604EB4510007F2F
:103EF000002840F0E980002D40F0E8803768C4E9F0
:103F00000023CA7CA37F62F30003A3770A79DBB2A4
:103F100062F34103A3774A7CDBB262F38203A377A7
:103F2000CB78E377CB7CD6F80080002B5ED18B6812
:103F30000878B3F1A05F0B7B08BF0325012B00F2CB
:103F4000AD8002F07DFC0B78019301A8FFF7BAFF6A
:103F5000019B2D0203F5E07345F0010240F8232098
:103F60004878FF280DD002F06BFC4B78019301A834
:103F7000FFF7A8FF019B03F5E07345F0030240F84B
:103F800023208B78FF2B0CD001A891F80E90019381
:103F9000FFF798FF019B03F5E07345EA890240F8BB
:103FA0002320C878FF2810D00B79002B79D002F09D
:103FB00047FCCB78019301A8FFF784FF019B03F531
:103FC000E07345F0030240F82320C87BFF280DD0A2
:103FD00002F029FCCB7B019301A8FFF773FF019B43
:103FE00003F5E07345F0030540F823500B7D5BBB00
:103FF0004B780878FF2B18BF1A468B78C8F808054D
:1040000008BF4FF0FF32FF2B08BF4FF0FF33C8F857
:104010000C25C8F810353379B3B9CB78FF2B43D0D2
:104020004A7C002A40D008798A7CC8F81435C8F840
:104030006805C8F86425337933B9CB7BFF2B08BFFB
:104040004FF0FF33C8F86C350B7CC7F860358B68D0
:10405000C7F824354B7B0A7B003B18BF0123022A9B
:104060002CD0032A2DD0012A01D143F00203C7F836
:1040700054358B79C7F8C0350723C7F80035236856
:1040800023B1306840F30730FDF71EF90023637752
:1040900010480123237703B0BDE8F08302F0C3FB8F
:1040A00051E702F0C0FB84E74FF0FF33C8F8143546
:1040B0000023C8F86835C8F86435BCE743F004034A
:1040C000D5E743F00603D2E70348E4E70348E2E715
:1040D000900A00200000AD0B0500AD0B0300AD0BF6
:1040E0002DE9F34103792A4D04685E0105EB43187D
:1040F000AB590746CBB144F30730FDF7F3F8254B36
:10410000C4F8083398F81D307BB1012363614FF088
:104110006408D4F804312BB9012002F084FAB8F114
:104120000108F6D1AB1900225A770023C4F80035F4
:10413000AB199B7FDB071FD4D4F8080502F08DFB79
:10414000D4F8100502F089FBD4F80C0502F085FBC9
:104150003B791BB9D4F86C0502F07FFBAB19DB7F10
:10416000FF2B09D001A80193FFF7ACFE019B03F5DB
:10417000E073022240F82320074B9C4208BF012332
:10418000354408BF636000232B7702B0BDE8F0819F
:10419000900A00205201080000F002402DE9F84387
:1041A000544F037907EB4318154698F81D208146B4
:1041B0000C465E01002A40F09B80BA592AB115F0E6
:1041C000140F04BF012288F81D2094E80F0007EBAC
:1041D000060C0CF10C0C8CE80F000121404602F09B
:1041E0004CFB2168D9F8003021B101F06042B2F1F6
:1041F000005F06D1A26852B102F06042B2F1005FE6
:1042000005D03E4400233C487377BDE8F8836268DC
:10421000C3F84415C3F84825D4E90212C3F834158D
:10422000C3F83825354A934225D14FF08042D4E96E
:104230000001D2F8004E324A1460E1B1314C20F452
:10424000FF5222F01F02A2423BD80C18DFF8B8C080
:10425000C2F34F3001218140002002F50052944208
:1042600040EA01004FEA410101D96245F5D34FF020
:104270008042C2F8000E0022C3F81821D3F818219A
:1042800015F0010218BF0122C3F8502515F00202F3
:1042900018BF0122C3F840252A0715D5BA59E2B93B
:1042A000164A934202BF164B1A684FF080434FF0F4
:1042B000000108BFC3F8002E404602F0DEFA1348A2
:1042C000A3E74FF48070D2E701221A61BA5922B9EC
:1042D000D3F81821002AFBD0E2E715F0040F4FF0C5
:1042E000400202D0C3F80823E9E7C3F80423E6E755
:1042F00007488AE7900A00200A00AD0B00F0024050
:104300008C0A0020FFFF0020002001200000AD0BE0
:104310000B00AD0B70B50F4BD3F81821C2B10E4A8C
:104320000E4C11684FF080420025C2F8001E204656
:10433000C3F818512946D3F8183102F09EFA657770
:104340002572D4E9003104F10800BDE87040184737
:1043500070BD00BF00F002408C0A0020900A0020CF
:1043600010B5144C144A1549032323616361144B9F
:10437000A261E3614FF4806323620023A36263625E
:10438000E36222660F4A6266E01D1022A26623677E
:10439000E366636701F0D4FCBFF35F8F0A492046F0
:1043A00001F0CEFCBFF35F8F2023A371BFF35F8FBB
:1043B00010BD00BFB00A0020967400009F7400007A
:1043C000870D0020770D0020A3740000104B70B5FE
:1043D00053F82040013053F82060A64200D870BD49
:1043E000D4E900358DB12846984738B10028B8BFC8
:1043F0004042EB68FF28A8BFFF201870EA68537896
:1044000043F0010353700834E7E79847FBE700BF28
:104410002472000008B50A4B012203201A70FFF72E
:10442000D5FF00F0D5FF0420FFF7D0FF00F05CF9C6
:10443000FBF7D0FF034A137B23F00103137308BD7E
:10444000871100204003002008B50348034A0021DB
:10445000121A02F050FA08BDA00200208C110020B0
:1044600070B5002386B00122CDE90423134E144D0C
:1044700001930F22CDE902321249142303FB0055A8
:1044800006EBC01604464FF4C07000FB04110E4B3F
:1044900000954FF4A072304600F0C8F8737B0B4AC9
:1044A000EE6023F0040373734FF4046304FB0333DF
:1044B00013442C746B6006B070BD00BFC0020020B6
:1044C000580B0020001A0020A1470000C011002056
:1044D00080B50020A6B0FFF779FF2D4B83F3088845
:1044E0002C4D2D4E6B692D4F43F400736B610024EE
:1044F000E02385F82230EC772C766C76AC7685F864
:1045000020406B6A43F4E0236B6285F82340FDF79B
:104510004BF9FCF7B9FE4FF0FF33AB62EB62FDF7EE
:104520007DFAFDF7E3F940F20113ADF8243006AB54
:10453000B360CDE92044239402F0B6F90120FFF7DF
:1045400045FF0220164DFFF741FF00F0A3FC154B7D
:10455000B5610593012314490094CDE903434FF459
:1045600080623B46CDE90144284600F05FF86A7B53
:10457000064622F0040228466A7302F068FA2046D2
:10458000FFF76EFF3A4631462846FCF78BFF00BF27
:10459000001A002000ED00E0580B00201544000038
:1045A00040030020AA740000801B002038B5064C90
:1045B000064D0020AC4200D338BD204602F09FF9E2
:1045C0000028F9DB1C34F5E74C0200204C020020E7
:1045D00073B50C464FF02005EFF3118185F3128877
:1045E000BFF36F8F45695DB125602B6843618369B7
:1045F00001338361002081F31188BFF36F8F11E0D5
:1046000052EA030603D125606FF00B00F3E7CDE912
:1046100000230246083000F047FB18B9024B9B68A4
:104620005B69236002B070BD580B00202DE9FF418B
:104630000E9E0673042646730D9E867300F1580580
:104640000F46D61DC0E916550C9A002526F0070620
:104650004037C0E90655C0E91A768560C57305671D
:1046600006F1400802920B9A019288440A9A00923D
:1046700042460446FCF7E4FE044B65659B6803B1C3
:104680005B6F6367404604B0BDE8F081580B0020C3
:10469000F0B587B000250595109D04950F9D0395F5
:1046A0000E9D0295DDE912760D9D01950C9D0095FC
:1046B0000446FFF7BBFFB6F1FF3F08BFB7F1FF3F6E
:1046C00005D056EA070305D1204600F063FB2046DB
:1046D00007B0F0BD03493A46334604F1180000F034
:1046E00055FDF4E7B36A00002DE9F043294C2A4D4B
:1046F00087B02646AE4204F12C040FD300F09AFB9B
:10470000244CDFF898904FF4004640F2E737AC4273
:1047100020D307B0BDE8F04300F0A0BB54F8043C40
:10472000059354F80C3C049354F8103C039354F84C
:10473000143C029354F8183C019354F81C3C009329
:1047400054E9092354E90B01FFF770FF54F82C3C9E
:104750005E65CEE7636A5A1C0DD023EAE37300213D
:104760003846C3FB060151EAC333D4F8008004D1B4
:10477000404600F00FFB2C34C9E74FF47A72002357
:10478000FBF7BEFC02460B4608F11800494600F054
:10479000FDFCF0E7946F0000946F0000B36A000026
:1047A00008B50B4C0B4D4FF02002EFF3118382F351
:1047B0001288BFF36F8F02F003FA2B78606113B990
:1047C000FCF768FDEFE7FCF7A5FB0028EBD1F7E766
:1047D000580B0020871100202DE9F34104461746AD
:1047E0001E464FF02003EFF3118883F31288BFF3C6
:1047F0006F8FC368334A7BB180689168884219D053
:1048000057EA060318D188F31188BFF36F8F6FF052
:104810000F0002B0BDE8F081916891F90E1021619E
:104820000133E3609368A36088F31188BFF36F8F4F
:104830000020EEE72169F2E791F90E1090F90E30B1
:104840009942A8BF19466FF07E029142B8BF114647
:104850008B422EDD02F0B2F80546CDE900761A480B
:104860002246414600F020FA0028E1D04FF0200314
:10487000EFF3118683F31288BFF36F8FA068D0B176
:10488000236821699C420AD04BB193F90E309942BA
:10489000A8BF19466FF07E039942B8BF194602F0CF
:1048A0008DF840B10848314600F062FA6FF00A0016
:1048B000AFE70025D1E7002DF4D186F31188BFF3CF
:1048C0006F8FF3E7580B00208811002038B58368FC
:1048D00004466BB3194A926893422CD1C368012BEA
:1048E00003D9013BC360002038BD4FF02003EFF334
:1048F000118583F31288BFF36F8F0169806802F01E
:104900005DF8204602F0D9F8A06058B190F90E2069
:1049100022610022C26702F09AF80948294600F095
:1049200027FAE0E7E06085F31188BFF36F8FDAE7DD
:104930006FF01500D8E74FF0FF30D5E7580B002097
:104940008811002038B504464FF02003EFF311859D
:1049500083F31288BFF36F8F02F0AFF848B10022E3
:10496000C26702F074F829460848BDE8384000F0F4
:10497000FFB9D4E902329A4218BF0133A360022181
:1049800004F1100002F08EF9EDE700BF881100205D
:1049900013B54FF02004EFF3118184F31288BFF3B5
:1049A0006F8F846844B1013C846081F31188BFF348
:1049B0006F8F002002B010BD52EA030406D181F3CC
:1049C0001188BFF36F8F6FF00F00F3E7CDE900237D
:1049D0000246024800F068F9ECE700BF88110020A9
:1049E00070B504464FF02003EFF3118583F312886E
:1049F000BFF36F8F6FF00A06204602F05EF818B121
:104A0000C66702F024F8F7E7A060022104F1100065
:104A100002F048F929460248BDE8704000F0A8B904
:104A200088110020C3897F2B12D80A4B1B6863B101
:104A3000094B90F90E201B689A4209DB437BDB0689
:104A400006D1064BC31A18BF012303F001007047BB
:104A50000023FAE7840B0020800B0020C002002016
:104A6000044BC01A044BC0105843044B01221A5483
:104A7000704700BFC0030020ABAAAAAA881100207B
:104A800070B50E4B0E4C1E7C06EB460304EBC304C4
:104A90000546204602F07EF80A4B002228469A5529
:104AA000FFF7C0FF48B1084B08491A68013A204691
:104AB000D317BDE8704000F069BB70BD580B0020F3
:104AC000C003002088110020840B0020614A0000F0
:104AD00038B50D4D2B4653F81C4F9C4200D004B9FD
:104AE000EC68AB6838B95A7BD20604D1A26912B916
:104AF000DA897F2A05D89C4202D02046FFF7C0FF02
:104B00002346AB6138BD00BF580B002070B590F94B
:104B10000D20437B002A014604DA03F07F03437330
:104B200001F05BFF4B7B154A63F07F0310464B732C
:104B300050F81C3F146A834208BF002323B9C1E91F
:104B40000004216011620CE091F90E5093F90E609F
:104B5000B5420ED0AE420CDD5868C1E900300160AC
:104B600059609068431A5842BDE870405841FFF7B9
:104B7000AFBF9C42E3D01B68E0E700BF580B0020AA
:104B800070B490F90D30427B002B29DBD30627D17E
:104B900083692BBB134962F07F0242730A4652F8C5
:104BA0001C4F944218BF23460C6A23B9C0E9002465
:104BB000206008620CE090F90E5093F90E60B54247
:104BC0000AD0AE4208DD5A68C0E900321060586071
:104BD00070BC0020FFF77CBFA342E7D01B68E4E76E
:104BE00070BC7047580B002008B590F90D20437B2E
:104BF000002A014604DA03F07F03437301F0EDFE5F
:104C0000044B9868431A58425841BDE80840FFF7E2
:104C10005FBF00BF580B002070B515461C46064606
:104C200001F0EDFEB4F1FF3F08BFB5F1FF3F08D042
:104C30002A46234606F118000249BDE8704000F0FC
:104C4000A5BA70BDB36A000038B54FF02003EFF38A
:104C5000118583F31288BFF36F8F104B104A9C6845
:104C60001068A04206D1FFF70BFF85F31188BFF350
:104C70006F8F38BD00211B7C11600A4AD35C002B6A
:104C8000F3D02046FFF7CEFE0028EED0637BDB0694
:104C900002D12046FFF73AFF2046E4E7580B0020F8
:104CA0007C0B00208811002070B50C480C4D8668E4
:104CB0002E600C461146DDE904234FF02006EFF389
:104CC000118586F31288BFF36F8F8068FFF7A4FF0A
:104CD0002046BDE87040FCF75FBB00BF580B0020CA
:104CE0007C0B0020F8B504464FF02003EFF311864B
:104CF00083F31288BFF36F8F437BDA0649B219D171
:104D00008569BDB903F07F03437301F066FE437B01
:104D1000164A817363F07F034373134653F81C0FE5
:104D2000984218BF0546106A5DB9C4E900300460B6
:104D3000146211E0A173002086F31188BFF36F8F16
:104D4000F8BD95F90E70B9420BD08F4209DD6B6842
:104D5000C4E900531C606C600120FFF7B9FE01201C
:104D6000EAE7A842E1D02D68DEE700BF580B00203B
:104D700049B9EFF3058030B9054B9A699B689A42AF
:104D800001D0FCF709BB81F31188BFF36F8F704727
:104D9000580B002010B54FF02002EFF3118482F37E
:104DA0001288BFF36F8F427B510704D484F31188BC
:104DB000BFF36F8F10BD22F004024273FFF7E0FED5
:104DC00021460248BDE81040FFF7D2BF89110020FC
:104DD00070B50446183001F0DDFE4FF02003EFF30C
:104DE000118683F31288BFF36F8F94F90D20637BD4
:104DF000002A05DA03F07F036373204601F0EDFD1E
:104E00000B4D637BA86843F010036373031B584288
:104E10005841FFF75DFE86F31188BFF36F8FAB68D3
:104E2000A34203D1BDE8704001F087BE70BD00BF52
:104E3000580B00204FF02003EFF3118183F3128809
:104E4000BFF36F8F044B9A68D37B013BD37381F31D
:104E50001188BFF36F8F7047580B002010B54FF0CB
:104E60002003EFF3118483F31288BFF36F8F084B95
:104E70009A68D37B0133D3730020FFF729FE84F3B4
:104E80001188BFF36F8FBDE8104001F056BE00BF20
:104E9000580B0020024B03F11C02C3E907227047A4
:104EA000580B0020F8B54FF02003EFF3118583F382
:104EB0001288BFF36F8F19498868437B03F07F0323
:104EC000437301F08AFD8B685A7B084662F07F02CB
:104ED0005A7350F81C2F0C6A824208BF002222B974
:104EE000C3E9000423600B620CE093F90E6092F9B1
:104EF0000E70BE420ED0B7420CDD5168C3E90021EE
:104F00000B6053600120FFF7E3FD2846BDE8F84041
:104F1000FCF742BAA242E3D01268E0E7580B002047
:104F200050EA01032DE9F04105460E4603D1FFF793
:104F3000B9FF00202CE0831C71F1FF332ADB01F064
:104F40004FFE2C184FF02003EFF3118883F31288E3
:104F5000BFF36F8F114F124BB8681860FFF744FE14
:104F6000B86810492A463346183000F00FF9BA687D
:104F7000537B43F0100353734046FCF70DFA01F0E6
:104F80002FFE201A63EB0303012873F10003D0DB2B
:104F9000BDE8F0816FF00104241AD3E7580B00201C
:104FA0007C0B0020B36A0000B1F1FF3F08BFB0F1F5
:104FB000FF3F08B506D1084B9868FFF709FF4FF08F
:104FC000FF3008BDFFF7ACFF4FF47A7380FB03039B
:104FD000C00B40EA4340F4E7580B0020014B9868AF
:104FE000704700BF580B00202DE9F04104464FF0F8
:104FF0002003EFF3118683F31288BFF36F8F037BD7
:10500000D9070BD586F31188BFF36F8F404080F32B
:1050100011884FF0040002DFBDE8F081437B1A07DE
:1050200004D586F31188BFF36F8FF5E723F02002D4
:1050300042F00801D20920D14173A36813B1204680
:1050400001F0D3FC04F1180001F0A4FD04F15807AD
:105050004FF00008A56DBD4200D0B5B90120FFF7A3
:1050600037FD104B9B68A342DBD1EFF30583002B88
:10507000D7D13046FCF790F9D3E703F05F0343F054
:105080000803437301F0A9FCD7E7284601F0ADFC03
:1050900005F1180001F07EFDC5F87C802846FFF779
:1050A0006FFDD7E7580B0020D3B5DDE90667089CF4
:1050B000CDE90067FFF7F8FD1CB1034B9B685B6906
:1050C000236002B0D0BD00BF580B002008B50648D1
:1050D000064A0749121A01F010FCBDE80840054ACB
:1050E0000549064801F009BC000000209C02002090
:1050F000FC74000000000000FC74000000000020B0
:10510000034B1B680BB9FDF7DBBF0020704700BFE6
:10511000880B002010B50E4B1C689C4204D1FFF791
:10512000EFFF6FF0004010BDFFF7EAFF002CF8D052
:10513000D4E904321B1A62EBE072B3F1004F72F152
:105140000001EEDA002AACBF18460020EBE700BFF2
:10515000D801002030B570B10B4B5B6898420AD083
:10516000036843B1D3E90421D0E90445121941EBA6
:105170000501C3E90421D0E9003213605A6000231D
:10518000C0E9003330BD00BFD8010020B3F1FF3FBC
:1051900008BFB2F1FF3FF8B504461D4616465CD085
:1051A00081604FF02003EFF3118783F31288BFF380
:1051B0006F8F013275F1FF3324DA2D49D1E90020D8
:1051C0006FF001039B1A4FF0FF3262EB00009E1B51
:1051D00060EB0500012E70F1000301DA01260020CA
:1051E000C4E90460234ED6F800C07568B44508BF12
:1051F0004FF0000CBCF1000F0DD1C4E900652C602C
:1052000074601CE0FFF77CFF013645F1000536189D
:1052100045EBE070E4E7DCE90420D4E90431934293
:1052200071EB000E1ADAD21ADCF8043060EB0100E0
:10523000CCE90420C4E900C31C60CCF80440336806
:10524000B34206D09C4204D1FFF764FF0021FDF772
:1052500005FF87F31188BFF36F8FF8BD9B1A61EBD1
:105260000001AC45C4E90431C7D0DCF800C0C1E797
:10527000D8030020D80100202DE9F84F4FF020037B
:10528000EFF3118C83F31288BFF36F8FDFF8B0A0B8
:10529000DFF8B0902C4FC9F80000DAF800000024C5
:1052A000504508BF00200025D7E90021D9F800307B
:1052B000E04680B3D0E9046C4FEAE37EB3427EEB74
:1052C0000C0B05DAF61A6CEB0E04C0E9046422E05C
:1052D000B21841EBE671C0E90445C7E90021FFF7C8
:1052E00039FF88F31188BFF36F8F836898474FF0B9
:1052F0002003EFF3118883F31288BFF36F8FD9F87F
:105300000030DAF800009B1B5045C446C9F8003055
:10531000CAD1D7E900219A1841EBE3730024C7E909
:105320000023C9F80040FFF7F5FE2146FDF796FE81
:1053300088F31188BFF36F8FBDE8F84FFFF784BC87
:10534000D8010020880B0020D803002010B54FF0B2
:105350002003EFF3118483F31288BFF36F8FFFF7FD
:10536000CFFE064A0346D2E90001181841EBE3716B
:1053700084F31188BFF36F8F10BD00BFD8030020E6
:1053800038B503464FF02002EFF3118582F31288FF
:10539000BFF36F8FC160012181600068834206D135
:1053A00085F31188BFF36F8F0024204638BDD0E904
:1053B000003213605A600023C0E9003301F018FC8A
:1053C000294604460148FFF7D3FCEEE78911002087
:1053D000014800F043BB00BFB27400001FB5094B89
:1053E000029302AB00240093074908488DF80C4053
:1053F0004FF0FF334FF4806200F000F9204604B014
:1054000010BD00BFF1740000C01F0020E0030020A9
:105410002DE9F04F4A4E85B004464FF0FF384FF06B
:10542000FF394FF02003EFF3118783F31288BFF3A6
:105430006F8FD4F880508DB9022104F1980001F0EB
:105440003FFC002843D10023CDE90089029304F1F9
:10545000880239463B48FFF727FEE2E7D4F884206C
:105460002B68C4F88030954208BFC4F88430D4F863
:10547000983043F00203C4F89830EB6823F004033B
:1054800043F00103EB606B6887F31188BFF36F8F04
:10549000284698474FF02003EFF3118B83F31288CF
:1054A000BFF36F8FEB68990723F0010219D4EA600C
:1054B000D4F8983023F00203C4F898308BF31188A5
:1054C000BFF36F8FDB05ACD4FFF7ECFCA9E704F169
:1054D000900500220121284601F039FB0028F8D16F
:1054E000B1E7306823F00303EB600028E0D0002729
:1054F000D0F800A03B460028DAD042689542014629
:105500000CD101689FB972683160824200D171602C
:1055100040F8083BFFF716FA39460023BAF1000FAE
:105520000BD0DAF8002050460F469246E3E7396088
:105530007268824208BF7760EAE75246F3E700BF2D
:105540008C0B002089110020F8B5C3689A07044627
:105550000F46C3F340062CD45B071AD40B680BB973
:1055600083680B60E368DD0744BFA3683B603D6868
:105570004CBF02260126002D3AD01F4B9B68AB4240
:105580000AD0D5F89830D807C3F3800214D46FF04E
:10559000120600233B6025E001F0FEF9D5F89830B3
:1055A0000028F0D1D907C3F3C002F0D552B15B0790
:1055B00008D46FF00F06ECE7002AFAD1C3F3C0035A
:1055C000002BF6D100232360D5F8843063B9C5E9F8
:1055D0002044284601F07FFBE36843F00403E360C6
:1055E0003B68A3603046F8BD1C60C5F88440F0E716
:1055F0006FF01506CDE700BF580B0020F0B589B05D
:1056000004460020C4E920000E9D04F18800C4E98E
:10561000220004F19000C4E924001DB32879002879
:1056200040F2011008BF0120C4F8980000204FF09C
:10563000FF364FF0FF37CDE90330CDE90100CDE96A
:105640000667094B00942046FFF722F825B1296828
:1056500011B1204601F0A6F9204609B0BDE8F0409E
:1056600001F0A3B90120DFE71154000010B50A4C86
:1056700023681BB101232360002010BD00F0EAF86D
:105680000028F7D00138062803D8044B53F820002F
:1056900010BD034810BD00BF940B00203C720000F9
:1056A000FE8FFFFFBFF34F8F0549064BCA6802F418
:1056B000E0621343CB60BFF34F8F00BFFDE700BF35
:1056C00000ED00E00400FA0510B4094B09490A4C4A
:1056D0004FF0FE32C3F800244968C3F80424C3F82D
:1056E0000824C3F80C240023C4F8003510BC084774
:1056F00000B00250E001002000A00250D0E90012EA
:10570000014BC3E900127047E001002010B50446C8
:1057100050B1636813F0685F05D0064A934202D027
:1057200000232360626010BD034B04485B68984708
:10573000EFE700BF2C5F5CA9E00100205872000079
:10574000C8B143680D4A934213D013F0685F0ED07E
:10575000012350E8002F194640E8001C9CF0000F80
:10576000F7D1012AF5D0BFF35F8F002070470448BE
:105770007047044870476FF4E04070472C5F5CA9A5
:10578000E98FFFFFEA8FFFFF80B14368094A934228
:105790000AD013F0685F05D0BFF35F8F002303606A
:1057A0001846704704487047044870476FF4E0405B
:1057B000704700BF2C5F5CA9E98FFFFFEA8FFFFFF6
:1057C00010B5044620B1044B63600022226010BD76
:1057D0000248FFF779FFF6E73A00003A80720000CE
:1057E00070B5D0E90023174C174D6360D0E9023043
:1057F000C4E9023022604868D1F800C0134BC3E905
:1058000000C0D5F81801D1F808C0C3F808C010F0DE
:10581000685FD1F80CC00969C3F80CC0196110D0D9
:105820000B49C5F8BC110023C5E9453105F58A705F
:10583000C5F8B8319047236805F5DC70BDE87040C5
:10584000184770BDFC010020AC0B0020E8010020CF
:105850002C5F5CA938B500F02FF820B1032400F0CC
:1058600063F8204638BD00F031F898B900F0ACF884
:1058700098B90F4DD5F828391B0EF02B08D1D5F863
:10588000242A0C4B9A420AD0072400F017F8E6E7C6
:105890000624FAE70424204638BD0024F5E7012059
:1058A00000F092F804460028F7D1C5F80C0AD8E7B2
:1058B00000B002500000E020002070470020704738
:1058C000014BC3F8040A704700B0025010B51148EC
:1058D00000F048F800B110BD0F4800F043F8002870
:1058E000F9D10E4C204600F03DF80028F3D10C4BC6
:1058F0000C481C6000F036F801460028EBD100F09F
:105900002DF8044608B1204610BD00F03FF82046AF
:10591000FAE700BF3C0200203802002034020020D9
:105920002C0200203002002008B5084800F024F8BE
:10593000074800F021F8074800F01EF8064800F07C
:105940001BF8BDE8084000F00BB800BF3C02002087
:10595000380200203402002030020020002070476E
:10596000704700BF08B5034B02681B681068984772
:10597000002008BDFC01002008B5034B02685B68ED
:1059800010689847002008BDFC01002070B5094C44
:10599000094D2069AB68984718B1084B08485B6807
:1059A0009847084AEB68206900211160BDE8704003
:1059B000184700BFE8010020FC010020E0010020A2
:1059C000A4720000A80B0020F8B51A4D1A4E044628
:1059D000B26828699047E8B9184F3B684CB1A3B149
:1059E000012B19D0013B3B602869F36898470020E0
:1059F000F8BD43B9124A0121C2F800151149D1F886
:105A00001029002AFBD101333B60F36828699847CD
:105A10000020F8BD0C48F8BD0A4AD2F81039002B16
:105A2000FBD1074A6FF07E40C2F80035FFF748FF10
:105A30003B68D7E7E8010020FC010020A80B00200C
:105A400000A0025000B00250E98FFFFF704740F6FF
:105A5000CD400021FFF7A8BA002070470FB407B56A
:105A600004A951F8040B0191FAF702FD03B05DF8A7
:105A700004EB04B07047044608B5084611461A46C0
:105A8000A047FFF7ABFAFBF71BFF038B13F00703ED
:105A900005D10368002B0CBF002003207047022BA8
:105AA00005D1408BB0FA80F0400980007047012B8F
:105AB00005D10368002B0CBF002005207047002093
:105AC000704710B50C4600B111B96FF0150010BD4C
:105AD000081D00F095F80028F9D1A368032BF6D92A
