:10000000801F002059460600AB8B06002D460600D7
:100010002D4606002D4606002D4606000000000075
:1000200000000000000000000000000095420600F3
:100030002D46060000000000414206002D46060045
:100040004543060045430600454306004543060078
:100050004543060045430600454306004543060068
:100060004543060045430600454306004543060058
:100070004543060045430600454306004543060048
:100080004543060045430600454306004543060038
:100090004543060045430600454306004543060028
:1000A0004543060045430600454306004543060018
:1000B0004543060045430600454306004543060008
:1000C00045430600454306004543060045430600F8
:1000D00045430600454306004543060045430600E8
:1000E00045430600454306004543060045430600D8
:1000F00045430600454306004543060045430600C8
:1001000053B94AB9002908BF00281CBF4FF0FF317E
:100110004FF0FF3000F00CB8ADF1080C6DE904CEE3
:1001200000F008F8DDF804E0DDE9022304B07047D0
:10013000704700BF2DE9F04786468C460846089E6A
:10014000154674461946002B40F0C2808542B2FA2B
:1001500082F245D94AB1C2F1200300FA02FC2EFA1C
:1001600003F3954043EA0C0C94404FEA154EA8B2B5
:10017000BCFBFEF8230C0EFB18CC08FB00F943EA8D
:100180000C43994528D9EB1808F1FF3704D299455B
:1001900002D9A8F102072B44A3EB0903A4B2B3FBD5
:1001A000FEFC0EFB1C330CFB00F044EA0344A042AF
:1001B00014D92C190CF1FF3304D2A04202D9ACF1AE
:1001C00002032C44241A43EA07401EB1D440002302
:1001D00034607360BDE8F0874746DDE76346F1E7CA
:1001E00092BB431B01214FEA154EAFB2B3FBFEFC9D
:1001F000200C0EFB1C330CFB07F840EA0343984528
:1002000062D9EB180CF1FF3004D2984502D9ACF159
:1002100002002B44A3EB0803A4B2B3FBFEFC0EFBCD
:100220001C330CFB07F744EA0344A7424ED92C19B0
:100230000CF1FF3304D2A74202D9ACF102032C44E3
:10024000E41B43EA0040C0E7C2F1200320FA03F1B7
:10025000954090402EFA03F303434FEA154EAFB298
:10026000B1FBFEFC0EFB1C10190C0CFB07F841EA5D
:100270000041884504FA02F422D969180CF1FF30D4
:1002800004D2884502D9ACF102002944A1EB08014F
:100290009BB2B1FBFEFC0EFB1C110CFB07F743EA03
:1002A00001439F420ED9EB180CF1FF3104D29F425B
:1002B00002D9ACF102012B44DB1B41EA004192E779
:1002C0006046E3E76146F7E76046A3E76346B7E7C2
:1002D000834206D916B9002108467BE7C6E900E04B
:1002E000F9E7B3FA83F78FB9834201D3724508D88F
:1002F000BEEB020460EB030301209C461EB9002103
:1003000068E73846FAE7C6E9004CF8E7C7F1200C81
:10031000BB4022FA0CF41C432EFA0CF120FA0CF329
:10032000B84001434FEA14490EFA07F5B3FBF9F858
:100330001FFA84FE09FB18300B0C08FB0EFA43EA87
:1003400000439A4502FA07F240D9E31808F1FF305A
:1003500004D29A4502D9A8F102002344A3EB0A0370
:1003600089B2B3FBF9F809FB183308FB0EFE41EA2A
:1003700003418E452CD9611808F1FF3304D28E4514
:1003800002D9A8F10203214443EA0040A0FB0298ED
:10039000A1EB0E014145CE46434602D306D14D4561
:1003A00004D2B9EB020E68EB04030138002EA6D08C
:1003B000B5EB0E0261EB030101FA0CFC22FA07F324
:1003C0004CEA0303F940C6E9003198E74046C5E727
:1003D0004346D9E710B586B00DF10703029302AA90
:1003E0000123CDE904238DF807000393084869F041
:1003F000A3FB084B1868836807491C6804AA0023FC
:10040000A047014610B1054868F064FA06B010BD77
:100410000C00002090040020C89E060050A1060099
:1004200038B5134C204668F04CFA002822F04AA751
:100430002269A168136843F4005313600B680D4AE6
:100440000D21204698470028E2F23CA70A4B0B48B2
:10045000186068F036FA10B9094868F03BFA094BA1
:10046000186868F02EFA88B9074868F033FA0DE08A
:10047000349C060001000600900400207C9C0600CD
:1004800065A106000000002083A1060068F01BFAA9
:100490001220FFF79FFF68F016FA4620FFF79AFF39
:1004A000F720FFF797FF68F00EFA4720FFF792FF5B
:1004B000F720FFF78FFF68F006FA0120FFF78AFFA9
:1004C000DF20FFF787FF0120FFF784FF0020FFF701
:1004D00081FF0320FFF77EFF0020FFF77BFF042052
:1004E000FFF778FF4120FFF775FFA820FFF772FFA5
:1004F0003220FFF76FFF1120FFF76CFF0320FFF79B
:1005000069FF3C20FFF766FF0320FFF763FF0C2025
:10051000FFF760FFAE20FFF75DFFC720FFF75AFF30
:10052000C320FFF757FFC020FFF754FFC020FFF79D
:1005300051FF1820FFF74EFF8020FFF74BFF2C20C4
:10054000FFF748FF4420FFF745FF3720FFF742FF42
:100550000020FFF73FFF0020FFF73CFF0020FFF7E0
:1005600039FF0020FFF736FF0020FFF733FF0020A0
:10057000FFF730FF0020FFF72DFF0020FFF72AFFD5
:100580000020FFF727FF0020FFF724FF4420FFF79C
:1005900021FF0020FFF71EFF0020FFF71BFF1720A1
:1005A000FFF718FF0120FFF715FF4520FFF712FFA7
:1005B0000020FFF70FFF0020FFF70CFFDF20FFF701
:1005C00009FF0120FFF706FF2220FFF703FFCF20DE
:1005D000FFF700FF4920FFF7FDFE0020FFF7FAFEBE
:1005E0004E20FFF7F7FE0020FFF7F4FE0020FFF794
:1005F000F1FE4F20FFF7EEFE0020FFF7EBFE00209C
:10060000FFF7E8FE2420FFF7E5FEFF20FFF7E2FEFC
:10061000FF20FFF7DFFEFF20FFF7DCFEFF20FFF7E4
:10062000D9FEFF20FFF7D6FEFF20FFF7D3FEFF2005
:10063000FFF7D0FEFF20FFF7CDFEFF20FFF7CAFE39
:10064000FF20FFF7C7FEFF20FFF7C4FEFF20FFF7E4
:10065000C1FEFF20FFF7BEFEFF20FFF7BBFEFF201D
:10066000FFF7B8FEFF20FFF7B5FEFF20FFF7B2FE51
:10067000FF20FFF7AFFEFF20FFF7ACFEFF20FFF7E4
:10068000A9FEFF20FFF7A6FEFF20FFF7A3FEFF2035
:10069000FFF7A0FEFF20FFF79DFEFF20FFF79AFE69
:1006A000FF20FFF797FEFF20FFF794FEFF20FFF7E4
:1006B00091FEFF20FFF78EFEFF20FFF78BFEFF204D
:1006C000FFF788FEFF20FFF785FEFF20FFF782FE81
:1006D000FF20FFF77FFEFF20FFF77CFEFF20FFF7E4
:1006E00079FEFF20FFF776FEFF20FFF773FEFF2065
:1006F000FFF770FEFF20FFF76DFEFF20FFF76AFE99
:10070000FF20FFF767FEFF20FFF764FEFF20FFF7E3
:1007100061FEFF20FFF75EFEFF20FFF75BFEFF207C
:10072000FFF758FEFF20FFF755FEFF20FFF752FEB0
:10073000FF20FFF74FFEFF20FFF74CFEFF20FFF7E3
:1007400049FEFF20FFF746FEFF20FFF743FEFF2094
:10075000FFF740FEFF20FFF73DFEFF20FFF73AFEC8
:10076000FF20FFF737FEFF20FFF734FEFF20FFF7E3
:1007700031FEFF20FFF72EFEFF20FFF72BFEFF20AC
:10078000FFF728FEFF20FFF725FEFF20FFF722FEE0
:10079000FF20FFF71FFEFF20FFF71CFEFF20FFF7E3
:1007A00019FEFF20FFF716FEFF20FFF713FEFF20C4
:1007B000FFF710FEFF20FFF70DFEFF20FFF70AFEF8
:1007C000FF20FFF707FEFF20FFF704FEFF20FFF7E3
:1007D00001FEFF20FFF7FEFDFF20FFF7FBFDFF20DE
:1007E000FFF7F8FDFF20FFF7F5FDFF20FFF7F2FD13
:1007F000FF20FFF7EFFDFF20FFF7ECFDFF20FFF7E5
:10080000E9FDFF20FFF7E6FDFF20FFF7E3FDFF20F6
:10081000FFF7E0FDFF20FFF7DDFDFF20FFF7DAFD2A
:10082000FF20FFF7D7FDFF20FFF7D4FDFF20FFF7E4
:10083000D1FDFF20FFF7CEFDFF20FFF7CBFDFF200E
:10084000FFF7C8FDFF20FFF7C5FDFF20FFF7C2FD42
:10085000FF20FFF7BFFDFF20FFF7BCFDFF20FFF7E4
:10086000B9FDFF20FFF7B6FDFF20FFF7B3FDFF2026
:10087000FFF7B0FDFF20FFF7ADFDFF20FFF7AAFD5A
:10088000FF20FFF7A7FDFF20FFF7A4FDFF20FFF7E4
:10089000A1FDFF20FFF79EFDFF20FFF79BFDFF203E
:1008A000FFF798FDFF20FFF795FDFF20FFF792FD72
:1008B000FF20FFF78FFDFF20FFF78CFDFF20FFF7E4
:1008C00089FDFF20FFF786FDFF20FFF783FDFF2056
:1008D000FFF780FDFF20FFF77DFDFF20FFF77AFD8A
:1008E000FF20FFF777FDFF20FFF774FDFF20FFF7E4
:1008F00071FDFF20FFF76EFDFF20FFF76BFDFF206E
:10090000FFF768FDFF20FFF765FDFF20FFF762FDA1
:10091000FF20FFF75FFDFF20FFF75CFDFF20FFF7E3
:1009200059FDFF20FFF756FDFF20FFF753FDFF2085
:10093000FFF750FDFF20FFF74DFDFF20FFF74AFDB9
:10094000FF20FFF747FDFF20FFF744FDFF20FFF7E3
:1009500041FDFF20FFF73EFDFF20FFF73BFDFF209D
:10096000FFF738FDFF20FFF735FDFF20FFF732FDD1
:10097000FF20FFF72FFDFF20FFF72CFDFF20FFF7E3
:1009800029FDFF20FFF726FDFF20FFF723FDFF20B5
:10099000FFF720FDFF20FFF71DFDFF20FFF71AFDE9
:1009A000FF20FFF717FDFF20FFF714FDFF20FFF7E3
:1009B00011FDFF20FFF70EFDFF20FFF70BFDFF20CD
:1009C000FFF708FDFF20FFF705FDFF20FFF702FD01
:1009D000FF20FFF7FFFCFF20FFF7FCFCFF20FFF7E5
:1009E000F9FCFF20FFF7F6FCFF20FFF7F3FCFF20E8
:1009F000FFF7F0FCFF20FFF7EDFCFF20FFF7EAFC1C
:100A0000FF20FFF7E7FCFF20FFF7E4FCFF20FFF7E4
:100A1000E1FCFF20FFF7DEFCFF20FFF7DBFCFF20FF
:100A2000FFF7D8FCFF20FFF7D5FCFF20FFF7D2FC33
:100A3000FF20FFF7CFFCFF20FFF7CCFCFF20FFF7E4
:100A4000C9FCFF20FFF7C6FCFF20FFF7C3FCFF2017
:100A5000FFF7C0FCFF20FFF7BDFCFF20FFF7BAFC4B
:100A6000FF20FFF7B7FCFF20FFF7B4FCFF20FFF7E4
:100A7000B1FCFF20FFF7AEFCFF20FFF7ABFCFF202F
:100A8000FFF7A8FCFF20FFF7A5FCFF20FFF7A2FC63
:100A9000FF20FFF79FFCFF20FFF79CFCFF20FFF7E4
:100AA00099FCFF20FFF796FCFF20FFF793FCFF2047
:100AB000FFF790FCFF20FFF78DFCFF20FFF78AFC7B
:100AC000FF20FFF787FCFF20FFF784FCFF20FFF7E4
:100AD00081FCFF20FFF77EFCFF20FFF77BFCFF205F
:100AE000FFF778FCFF20FFF775FCFF20FFF772FC93
:100AF000FF20FFF76FFCFF20FFF76CFCFF20FFF7E4
:100B000069FCFF20FFF766FCFF20FFF763FCFF2076
:100B1000FFF760FCFF20FFF75DFCFF20FFF75AFCAA
:100B2000FF20FFF757FCFF20FFF754FCFF20FFF7E3
:100B300051FCFF20FFF74EFCFF20FFF74BFCFF208E
:100B4000FFF748FCFF20FFF745FCFF20FFF742FCC2
:100B5000FF20FFF73FFCFF20FFF73CFCFF20FFF7E3
:100B600039FCFF20FFF736FCFF20FFF733FCFF20A6
:100B7000FFF730FCFF20FFF72DFCFF20FFF72AFCDA
:100B8000FF20FFF727FCFF20FFF724FCFF20FFF7E3
:100B900021FCFF20FFF71EFCFF20FFF71BFCFF20BE
:100BA000FFF718FCFF20FFF715FCFF20FFF712FCF2
:100BB000FF20FFF70FFCFF20FFF70CFCFF20FFF7E3
:100BC00009FCFF20FFF706FCFF20FFF703FCFF20D6
:100BD000FFF700FCFF20FFF7FDFBFF20FFF7FAFB0C
:100BE000FF20FFF7F7FBFF20FFF7F4FBFF20FFF7E5
:100BF000F1FBFF20FFF7EEFBFF20FFF7EBFBFF20F1
:100C0000FFF7E8FBFF20FFF7E5FBFF20FFF7E2FB24
:100C1000FF20FFF7DFFBFF20FFF7DCFBFF20FFF7E4
:100C2000D9FBFF20FFF7D6FBFF20FFF7D3FBFF2008
:100C3000FFF7D0FBFF20FFF7CDFBFF20FFF7CAFB3C
:100C4000FF20FFF7C7FBFF20FFF7C4FBFF20FFF7E4
:100C5000C1FBFF20FFF7BEFBFF20FFF7BBFBFF2020
:100C6000FFF7B8FBFF20FFF7B5FBFF20FFF7B2FB54
:100C7000FF20FFF7AFFBFF20FFF7ACFBFF20FFF7E4
:100C8000A9FBFF20FFF7A6FBFF20FFF7A3FBFF2038
:100C9000FFF7A0FBFF20FFF79DFBFF20FFF79AFB6C
:100CA000FF20FFF797FBFF20FFF794FBFF20FFF7E4
:100CB00091FBFF20FFF78EFBFF20FFF78BFBFF2050
:100CC000FFF788FBFF20FFF785FBFF20FFF782FB84
:100CD000FF20FFF77FFBFF20FFF77CFBFF20FFF7E4
:100CE00079FBFF20FFF776FBFF20FFF773FBFF2068
:100CF000FFF770FBFF20FFF76DFBFF20FFF76AFB9C
:100D0000FF20FFF767FBFF20FFF764FBFF20FFF7E3
:100D100061FBFF20FFF75EFBFF20FFF75BFBFF207F
:100D2000FFF758FBFF20FFF755FBFF20FFF752FBB3
:100D3000FF20FFF74FFBFF20FFF74CFBFF20FFF7E3
:100D400049FBFF20FFF746FBFF20FFF743FBFF2097
:100D5000FFF740FBFF20FFF73DFBFF20FFF73AFBCB
:100D6000FF20FFF737FBFF20FFF734FBFF20FFF7E3
:100D700031FBFF20FFF72EFBFF20FFF72BFBFF20AF
:100D8000FFF728FBFF20FFF725FBFF20FFF722FBE3
:100D9000FF20FFF71FFBFF20FFF71CFBFF20FFF7E3
:100DA00019FBFF20FFF716FBFF20FFF713FBFF20C7
:100DB000FFF710FBFF20FFF70DFBFF20FFF70AFBFB
:100DC000FF20FFF707FBFF20FFF704FBFF20FFF7E3
:100DD00001FBFF20FFF7FEFAFF20FFF7FBFAFF20E1
:100DE000FFF7F8FAFF20FFF7F5FAFF20FFF7F2FA16
:100DF000FF20FFF7EFFAFF20FFF7ECFAFF20FFF7E5
:100E0000E9FAFF20FFF7E6FAFF20FFF7E3FAFF20F9
:100E1000FFF7E0FAFF20FFF7DDFAFF20FFF7DAFA2D
:100E2000FF20FFF7D7FAFF20FFF7D4FAFF20FFF7E4
:100E3000D1FAFF20FFF7CEFAFF20FFF7CBFAFF2011
:100E4000FFF7C8FAFF20FFF7C5FAFF20FFF7C2FA45
:100E5000FF20FFF7BFFAFF20FFF7BCFAFF20FFF7E4
:100E6000B9FAFF20FFF7B6FAFF20FFF7B3FAFF2029
:100E7000FFF7B0FAFF20FFF7ADFAFF20FFF7AAFA5D
:100E8000FF20FFF7A7FAFF20FFF7A4FAFF20FFF7E4
:100E9000A1FAFF20FFF79EFAFF20FFF79BFAFF2041
:100EA000FFF798FAFF20FFF795FAFF20FFF792FA75
:100EB000FF20FFF78FFAFF20FFF78CFAFF20FFF7E4
:100EC00089FAFF20FFF786FAFF20FFF783FAFF2059
:100ED000FFF780FAFF20FFF77DFAFF20FFF77AFA8D
:100EE000FF20FFF777FAFF20FFF774FAFF20FFF7E4
:100EF00071FAFF20FFF76EFAFF20FFF76BFAFF2071
:100F0000FFF768FAFF20FFF765FAFF20FFF762FAA4
:100F1000FF20FFF75FFAFF20FFF75CFAFF20FFF7E3
:100F200059FAFF20FFF756FAFF20FFF753FAFF2088
:100F3000FFF750FAFF20FFF74DFAFF20FFF74AFABC
:100F4000FF20FFF747FAFF20FFF744FAFF20FFF7E3
:100F500041FAFF20FFF73EFAFF20FFF73BFAFF20A0
:100F6000FFF738FAFF20FFF735FAFF20FFF732FAD4
:100F7000FF20FFF72FFAFF20FFF72CFAFF20FFF7E3
:100F800029FAFF20FFF726FAFF20FFF723FAFF20B8
:100F9000FFF720FAFF20FFF71DFAFF20FFF71AFAEC
:100FA000FF20FFF717FAFF20FFF714FAFF20FFF7E3
:100FB00011FAFF20FFF70EFAFF20FFF70BFAFF20D0
:100FC000FFF708FAFF20FFF705FAFF20FFF702FA04
:100FD000FF20FFF7FFF9FF20FFF7FCF9FF20FFF7E5
:100FE000F9F9FF20FFF7F6F9FF20FFF7F3F9FF20EB
:100FF000FFF7F0F9FF20FFF7EDF9FF20FFF7EAF91F
:10100000FF20FFF7E7F9FF20FFF7E4F9FF20FFF7E4
:10101000E1F9FF20FFF7DEF9FF20FFF7DBF9FF2002
:10102000FFF7D8F9FF20FFF7D5F9FF20FFF7D2F936
:10103000FF20FFF7CFF9FF20FFF7CCF9FF20FFF7E4
:10104000C9F9FF20FFF7C6F9FF20FFF7C3F9FF201A
:10105000FFF7C0F9FF20FFF7BDF9FF20FFF7BAF94E
:10106000FF20FFF7B7F9FF20FFF7B4F9FF20FFF7E4
:10107000B1F9FF20FFF7AEF9FF20FFF7ABF9FF2032
:10108000FFF7A8F9FF20FFF7A5F9FF20FFF7A2F966
:10109000FF20FFF79FF9FF20FFF79CF9FF20FFF7E4
:1010A00099F9FF20FFF796F9FF20FFF793F9FF204A
:1010B000FFF790F9FF20FFF78DF9FF20FFF78AF97E
:1010C000FF20FFF787F9FF20FFF784F9FF20FFF7E4
:1010D00081F9FF20FFF77EF9FF20FFF77BF9FF2062
:1010E000FFF778F9FF20FFF775F9FF20FFF772F996
:1010F000FF20FFF76FF9FF20FFF76CF9FF20FFF7E4
:1011000069F9FF20FFF766F9FF20FFF763F9FF2079
:10111000FFF760F9FF20FFF75DF9FF20FFF75AF9AD
:10112000FF20FFF757F9FF20FFF754F9FF20FFF7E3
:1011300051F9FF20FFF74EF9FF20FFF74BF9FF2091
:10114000FFF748F9FF20FFF745F9FF20FFF742F9C5
:10115000FF20FFF73FF9FF20FFF73CF9FF20FFF7E3
:1011600039F9FF20FFF736F9FF20FFF733F9FF20A9
:10117000FFF730F9FF20FFF72DF9FF20FFF72AF9DD
:10118000FF20FFF727F9FF20FFF724F9FF20FFF7E3
:1011900021F9FF20FFF71EF9FF20FFF71BF9FF20C1
:1011A000FFF718F9FF20FFF715F9FF20FFF712F9F5
:1011B000FF20FFF70FF9FF20FFF70CF9FF20FFF7E3
:1011C00009F9FF20FFF706F9FF20FFF703F9FF20D9
:1011D000FFF700F9FF20FFF7FDF8FF20FFF7FAF80F
:1011E000FF20FFF7F7F8FF20FFF7F4F8FF20FFF7E5
:1011F000F1F8FF20FFF7EEF8FF20FFF7EBF8FF20F4
:10120000FFF7E8F8FF20FFF7E5F8FF20FFF7E2F827
:10121000FF20FFF7DFF8FF20FFF7DCF8FF20FFF7E4
:10122000D9F8FF20FFF7D6F8FF20FFF7D3F8FF200B
:10123000FFF7D0F8FF20FFF7CDF8FF20FFF7CAF83F
:10124000FF20FFF7C7F8FF20FFF7C4F8FF20FFF7E4
:10125000C1F8FF20FFF7BEF8FF20FFF7BBF8FF2023
:10126000FFF7B8F8FF20FFF7B5F8FF20FFF7B2F857
:10127000FF20FFF7AFF8FF20FFF7ACF8FF20FFF7E4
:10128000A9F8FF20FFF7A6F8FF20FFF7A3F8FF203B
:10129000FFF7A0F8FF20FFF79DF8FF20FFF79AF86F
:1012A000FF20FFF797F8FF20FFF794F8FF20FFF7E4
:1012B00091F8FF20FFF78EF8FF20FFF78BF8FF2053
:1012C000FFF788F8FF20FFF785F8FF20FFF782F887
:1012D000FF20FFF77FF8FF20FFF77CF8FF20FFF7E4
:1012E00079F8FF20FFF776F8FF20FFF773F8FF206B
:1012F000FFF770F8FF20FFF76DF8FF20FFF76AF89F
:10130000FF20FFF767F8FF20FFF764F8FF20FFF7E3
:1013100061F8FF20FFF75EF8FF20FFF75BF8FF2082
:10132000FFF758F8FF20FFF755F8FF20FFF752F8B6
:10133000FF20FFF74FF8FF20FFF74CF8FF20FFF7E3
:1013400049F8FF20FFF746F8FF20FFF743F8FF209A
:10135000FFF740F8FF20FFF73DF8FF20FFF73AF8CE
:10136000FF20FFF737F8FF20FFF734F8FF20FFF7E3
:1013700031F8FF20FFF72EF8FF20FFF72BF8FF20B2
:10138000FFF728F8FF20FFF725F8FF20FFF722F8E6
:10139000FF20FFF71FF8FF20FFF71CF8FF20FFF7E3
:1013A00019F8FF20FFF716F8FF20FFF713F8FF20CA
:1013B000FFF710F8FF20FFF70DF8FF20FFF70AF8FE
:1013C000FF20FFF707F8FF20FFF704F8FF20FFF7E3
:1013D00001F8FF20FEF7FEFFFF20FEF7FBFFFF20D6
:1013E000FEF7F8FFFF20FEF7F5FFFF20FEF7F2FF04
:1013F000FF20FEF7EFFFFF20FEF7ECFFFF20FEF7D8
:10140000E9FFFF20FEF7E6FFFF20FEF7E3FFFF20E6
:10141000FEF7E0FFFF20FEF7DDFFFF20FEF7DAFF1B
:10142000FF20FEF7D7FFFF20FEF7D4FFFF20FEF7D7
:10143000D1FFFF20FEF7CEFFFF20FEF7CBFFFF20FE
:10144000FEF7C8FFFF20FEF7C5FFFF20FEF7C2FF33
:10145000FF20FEF7BFFFFF20FEF7BCFFFF20FEF7D7
:10146000B9FFFF20FEF7B6FFFF20FEF7B3FFFF2016
:10147000FEF7B0FFFF20FEF7ADFFFF20FEF7AAFF4B
:10148000FF20FEF7A7FFFF20FEF7A4FFFF20FEF7D7
:10149000A1FFFF20FEF79EFFFF20FEF79BFFFF202E
:1014A000FEF798FFFF20FEF795FFFF20FEF792FF63
:1014B000FF20FEF78FFFFF20FEF78CFFFF20FEF7D7
:1014C00089FFFF20FEF786FFFF20FEF783FFFF2046
:1014D000FEF780FFFF20FEF77DFFFF20FEF77AFF7B
:1014E000FF20FEF777FFFF20FEF774FFFF20FEF7D7
:1014F00071FFFF20FEF76EFFFF20FEF76BFFFF205E
:10150000FEF768FFFF20FEF765FFFF20FEF762FF92
:10151000FF20FEF75FFFFF20FEF75CFFFF20FEF7D6
:1015200059FFFF20FEF756FFFF20FEF753FFFF2075
:10153000FEF750FFFF20FEF74DFFFF20FEF74AFFAA
:10154000FF20FEF747FFFF20FEF744FFFF20FEF7D6
:1015500041FFFF20FEF73EFFFF20FEF73BFFFF208D
:10156000FEF738FFFF20FEF735FFFF20FEF732FFC2
:10157000FF20FEF72FFFFF20FEF72CFFFF20FEF7D6
:1015800029FFFF20FEF726FFFF20FEF723FFFF20A5
:10159000FEF720FFFF20FEF71DFFFF20FEF71AFFDA
:1015A000FF20FEF717FFFF20FEF714FFFF20FEF7D6
:1015B00011FFFF20FEF70EFFFF20FEF70BFFFF20BD
:1015C000FEF708FFFF20FEF705FFFF20FEF702FFF2
:1015D000FF20FEF7FFFEFF20FEF7FCFEFF20FEF7D8
:1015E000F9FEFF20FEF7F6FEFF20FEF7F3FEFF20D8
:1015F000FEF7F0FEFF20FEF7EDFEFF20FEF7EAFE0D
:10160000FF20FEF7E7FEFF20FEF7E4FEFF20FEF7D7
:10161000E1FEFF20FEF7DEFEFF20FEF7DBFEFF20EF
:10162000FEF7D8FEFF20FEF7D5FEFF20FEF7D2FE24
:10163000FF20FEF7CFFEFF20FEF7CCFEFF20FEF7D7
:10164000C9FEFF20FEF7C6FEFF20FEF7C3FEFF2007
:10165000FEF7C0FEFF20FEF7BDFEFF20FEF7BAFE3C
:10166000FF20FEF7B7FEFF20FEF7B4FEFF20FEF7D7
:10167000B1FEFF20FEF7AEFEFF20FEF7ABFEFF201F
:10168000FEF7A8FEFF20FEF7A5FEFF20FEF7A2FE54
:10169000FF20FEF79FFEFF20FEF79CFEFF20FEF7D7
:1016A00099FEFF20FEF796FEFF20FEF793FEFF2037
:1016B000FEF790FEFF20FEF78DFEFF20FEF78AFE6C
:1016C000FF20FEF787FEFF20FEF784FEFF20FEF7D7
:1016D00081FEFF20FEF77EFEFF20FEF77BFEFF204F
:1016E000FEF778FEFF20FEF775FEFF20FEF772FE84
:1016F000FF20FEF76FFEFF20FEF76CFEFF20FEF7D7
:1017000069FEFF20FEF766FEFF20FEF763FEFF2066
:10171000FEF760FEFF20FEF75DFEFF20FEF75AFE9B
:10172000FF20FEF757FEFF20FEF754FEFF20FEF7D6
:1017300051FEFF20FEF74EFEFF20FEF74BFEFF207E
:10174000FEF748FEFF20FEF745FEFF20FEF742FEB3
:10175000FF20FEF73FFEFF20FEF73CFEFF20FEF7D6
:1017600039FEFF20FEF736FEFF20FEF733FEFF2096
:10177000FEF730FEFF20FEF72DFEFF20FEF72AFECB
:10178000FF20FEF727FEFF20FEF724FEFF20FEF7D6
:1017900021FEFF20FEF71EFEFF20FEF71BFEFF20AE
:1017A000FEF718FEFF20FEF715FEFF20FEF712FEE3
:1017B000FF20FEF70FFEFF20FEF70CFEFF20FEF7D6
:1017C00009FEFF20FEF706FEFF20FEF703FEFF20C6
:1017D000FEF700FEFF20FEF7FDFDFF20FEF7FAFDFD
:1017E000FF20FEF7F7FDFF20FEF7F4FDFF20FEF7D8
:1017F000F1FDFF20FEF7EEFDFF20FEF7EBFDFF20E1
:10180000FEF7E8FDFF20FEF7E5FDFF20FEF7E2FD15
:10181000FF20FEF7DFFDFF20FEF7DCFDFF20FEF7D7
:10182000D9FDFF20FEF7D6FDFF20FEF7D3FDFF20F8
:10183000FEF7D0FDFF20FEF7CDFDFF20FEF7CAFD2D
:10184000FF20FEF7C7FDFF20FEF7C4FDFF20FEF7D7
:10185000C1FDFF20FEF7BEFDFF20FEF7BBFDFF2010
:10186000FEF7B8FDFF20FEF7B5FDFF20FEF7B2FD45
:10187000FF20FEF7AFFDFF20FEF7ACFDFF20FEF7D7
:10188000A9FDFF20FEF7A6FDFF20FEF7A3FDFF2028
:10189000FEF7A0FDFF20FEF79DFDFF20FEF79AFD5D
:1018A000FF20FEF797FDFF20FEF794FDFF20FEF7D7
:1018B00091FDFF20FEF78EFDFF20FEF78BFDFF2040
:1018C000FEF788FDFF20FEF785FDFF20FEF782FD75
:1018D000FF20FEF77FFDFF20FEF77CFDFF20FEF7D7
:1018E00079FDFF20FEF776FDFF20FEF773FDFF2058
:1018F000FEF770FDFF20FEF76DFDFF20FEF76AFD8D
:10190000FF20FEF767FDFF20FEF764FDFF20FEF7D6
:1019100061FDFF20FEF75EFDFF20FEF75BFDFF206F
:10192000FEF758FDFF20FEF755FDFF20FEF752FDA4
:10193000FF20FEF74FFDFF20FEF74CFDFF20FEF7D6
:1019400049FDFF20FEF746FDFF20FEF743FDFF2087
:10195000FEF740FDFF20FEF73DFDFF20FEF73AFDBC
:10196000FF20FEF737FDFF20FEF734FDFF20FEF7D6
:1019700031FDFF20FEF72EFDFF20FEF72BFDFF209F
:10198000FEF728FDFF20FEF725FDFF20FEF722FDD4
:10199000FF20FEF71FFDFF20FEF71CFDFF20FEF7D6
:1019A00019FDFF20FEF716FDFF20FEF713FDFF20B7
:1019B000FEF710FDFF20FEF70DFDFF20FEF70AFDEC
:1019C000FF20FEF707FDFF20FEF704FDFF20FEF7D6
:1019D00001FDFF20FEF7FEFCFF20FEF7FBFCFF20D1
:1019E000FEF7F8FCFF20FEF7F5FCFF20FEF7F2FC07
:1019F000FF20FEF7EFFCFF20FEF7ECFCFF20FEF7D8
:101A0000E9FCFF20FEF7E6FCFF20FEF7E3FCFF20E9
:101A1000FEF7E0FCFF20FEF7DDFCFF20FEF7DAFC1E
:101A2000FF20FEF7D7FCFF20FEF7D4FCFF20FEF7D7
:101A3000D1FCFF20FEF7CEFCFF20FEF7CBFCFF2001
:101A4000FEF7C8FCFF20FEF7C5FCFF20FEF7C2FC36
:101A5000FF20FEF7BFFCFF20FEF7BCFCFF20FEF7D7
:101A6000B9FCFF20FEF7B6FCFF20FEF7B3FCFF2019
:101A7000FEF7B0FCFF20FEF7ADFCFF20FEF7AAFC4E
:101A8000FF20FEF7A7FCFF20FEF7A4FCFF20FEF7D7
:101A9000A1FCFF20FEF79EFCFF20FEF79BFCFF2031
:101AA000FEF798FCFF20FEF795FCFF20FEF792FC66
:101AB000FF20FEF78FFCFF20FEF78CFCFF20FEF7D7
:101AC00089FCFF20FEF786FCFF20FEF783FCFF2049
:101AD000FEF780FCFF20FEF77DFCFF20FEF77AFC7E
:101AE000FF20FEF777FCFF20FEF774FCFF20FEF7D7
:101AF00071FCFF20FEF76EFCFF20FEF76BFCFF2061
:101B0000FEF768FCFF20FEF765FCFF20FEF762FC95
:101B1000FF20FEF75FFCFF20FEF75CFCFF20FEF7D6
:101B200059FCFF20FEF756FCFF20FEF753FCFF2078
:101B3000FEF750FCFF20FEF74DFCFF20FEF74AFCAD
:101B4000FF20FEF747FCFF20FEF744FCFF20FEF7D6
:101B500041FCFF20FEF73EFCFF20FEF73BFCFF2090
:101B6000FEF738FCFF20FEF735FCFF20FEF732FCC5
:101B7000FF20FEF72FFCFF20FEF72CFCFF20FEF7D6
:101B800029FCFF20FEF726FCFF20FEF723FCFF20A8
:101B9000FEF720FCFF20FEF71DFCFF20FEF71AFCDD
:101BA000FF20FEF717FCFF20FEF714FCFF20FEF7D6
:101BB00011FCFF20FEF70EFCFF20FEF70BFCFF20C0
:101BC000FEF708FCFF20FEF705FCFF20FEF702FCF5
:101BD000FF20FEF7FFFBFF20FEF7FCFBFF20FEF7D8
:101BE000F9FBFF20FEF7F6FBFF20FEF7F3FBFF20DB
:101BF000FEF7F0FBFF20FEF7EDFBFF20FEF7EAFB10
:101C0000FF20FEF7E7FBFF20FEF7E4FBFF20FEF7D7
:101C1000E1FBFF20FEF7DEFBFF20FEF7DBFBFF20F2
:101C2000FEF7D8FBFF20FEF7D5FBFF20FEF7D2FB27
:101C3000FF20FEF7CFFBFF20FEF7CCFBFF20FEF7D7
:101C4000C9FBFF20FEF7C6FBFF20FEF7C3FBFF200A
:101C5000FEF7C0FBFF20FEF7BDFBFF20FEF7BAFB3F
:101C6000FF20FEF7B7FBFF20FEF7B4FBFF20FEF7D7
:101C7000B1FBFF20FEF7AEFBFF20FEF7ABFBFF2022
:101C8000FEF7A8FBFF20FEF7A5FBFF20FEF7A2FB57
:101C9000FF20FEF79FFBFF20FEF79CFBFF20FEF7D7
:101CA00099FBFF20FEF796FBFF20FEF793FBFF203A
:101CB000FEF790FBFF20FEF78DFBFF20FEF78AFB6F
:101CC000FF20FEF787FBFF20FEF784FBFF20FEF7D7
:101CD00081FBFF20FEF77EFBFF20FEF77BFBFF2052
:101CE000FEF778FBFF20FEF775FBFF20FEF772FB87
:101CF000FF20FEF76FFBFF20FEF76CFBFF20FEF7D7
:101D000069FBFF20FEF766FBFF20FEF763FBFF2069
:101D1000FEF760FBFF20FEF75DFBFF20FEF75AFB9E
:101D2000FF20FEF757FBFF20FEF754FBFF20FEF7D6
:101D300051FBFF20FEF74EFBFF20FEF74BFBFF2081
:101D4000FEF748FBFF20FEF745FBFF20FEF742FBB6
:101D5000FF20FEF73FFBFF20FEF73CFBFF20FEF7D6
:101D600039FBFF20FEF736FBFF20FEF733FBFF2099
:101D7000FEF730FBFF20FEF72DFBFF20FEF72AFBCE
:101D8000FF20FEF727FBFF20FEF724FBFF20FEF7D6
:101D900021FBFF20FEF71EFBFF20FEF71BFBFF20B1
:101DA000FEF718FBFF20FEF715FBFF20FEF712FBE6
:101DB000FF20FEF70FFBFF20FEF70CFBFF20FEF7D6
:101DC00009FBFF20FEF706FBFF20FEF703FBFF20C9
:101DD000FEF700FBFF20FEF7FDFAFF20FEF7FAFA00
:101DE000FF20FEF7F7FAFF20FEF7F4FAFF20FEF7D8
:101DF000F1FAFF20FEF7EEFAFF20FEF7EBFAFF20E4
:101E0000FEF7E8FAFF20FEF7E5FAFF20FEF7E2FA18
:101E1000FF20FEF7DFFAFF20FEF7DCFAFF20FEF7D7
:101E2000D9FAFF20FEF7D6FAFF20FEF7D3FAFF20FB
:101E3000FEF7D0FAFF20FEF7CDFAFF20FEF7CAFA30
:101E4000FF20FEF7C7FAFF20FEF7C4FAFF20FEF7D7
:101E5000C1FAFF20FEF7BEFAFF20FEF7BBFAFF2013
:101E6000FEF7B8FAFF20FEF7B5FAFF20FEF7B2FA48
:101E7000FF20FEF7AFFAFF20FEF7ACFAFF20FEF7D7
:101E8000A9FAFF20FEF7A6FAFF20FEF7A3FAFF202B
:101E9000FEF7A0FAFF20FEF79DFAFF20FEF79AFA60
:101EA000FF20FEF797FAFF20FEF794FAFF20FEF7D7
:101EB00091FAFF20FEF78EFAFF20FEF78BFAFF2043
:101EC000FEF788FAFF20FEF785FAFF20FEF782FA78
:101ED000FF20FEF77FFAFF20FEF77CFAFF20FEF7D7
:101EE00079FAFF20FEF776FAFF20FEF773FAFF205B
:101EF000FEF770FAFF20FEF76DFAFF20FEF76AFA90
:101F0000FF20FEF767FAFF20FEF764FAFF20FEF7D6
:101F100061FAFF20FEF75EFAFF20FEF75BFAFF2072
:101F2000FEF758FAFF20FEF755FAFF20FEF752FAA7
:101F3000FF20FEF74FFAFF20FEF74CFAFF20FEF7D6
:101F400049FAFF20FEF746FAFF20FEF743FAFF208A
:101F5000FEF740FAFF20FEF73DFAFF20FEF73AFABF
:101F6000FF20FEF737FAFF20FEF734FAFF20FEF7D6
:101F700031FAFF20FEF72EFAFF20FEF72BFAFF20A2
:101F8000FEF728FAFF20FEF725FAFF20FEF722FAD7
:101F9000FF20FEF71FFAFF20FEF71CFAFF20FEF7D6
:101FA00019FAFF20FEF716FAFF20FEF713FAFF20BA
:101FB000FEF710FAFF20FEF70DFAFF20FEF70AFAEF
:101FC000FF20FEF707FAFF20FEF704FAFF20FEF7D6
:101FD00001FAFF20FEF7FEF9FF20FEF7FBF9FF20D4
:101FE000FEF7F8F9FF20FEF7F5F9FF20FEF7F2F90A
:101FF000FF20FEF7EFF9FF20FEF7ECF9FF20FEF7D8
:10200000E9F9FF20FEF7E6F9FF20FEF7E3F9FF20EC
:10201000FEF7E0F9FF20FEF7DDF9FF20FEF7DAF921
:10202000FF20FEF7D7F9FF20FEF7D4F9FF20FEF7D7
:10203000D1F9FF20FEF7CEF9FF20FEF7CBF9FF2004
:10204000FEF7C8F9FF20FEF7C5F9FF20FEF7C2F939
:10205000FF20FEF7BFF9FF20FEF7BCF9FF20FEF7D7
:10206000B9F9FF20FEF7B6F9FF20FEF7B3F9FF201C
:10207000FEF7B0F9FF20FEF7ADF9FF20FEF7AAF951
:10208000FF20FEF7A7F9FF20FEF7A4F9FF20FEF7D7
:10209000A1F9FF20FEF79EF9FF20FEF79BF9FF2034
:1020A000FEF798F9FF20FEF795F9FF20FEF792F969
:1020B000FF20FEF78FF9FF20FEF78CF9FF20FEF7D7
:1020C00089F9FF20FEF786F9FF20FEF783F9FF204C
:1020D000FEF780F9FF20FEF77DF9FF20FEF77AF981
:1020E000FF20FEF777F9FF20FEF774F9FF20FEF7D7
:1020F00071F9FF20FEF76EF9FF20FEF76BF9FF2064
:10210000FEF768F9FF20FEF765F9FF20FEF762F998
:10211000FF20FEF75FF9FF20FEF75CF9FF20FEF7D6
:1021200059F9FF20FEF756F9FF20FEF753F9FF207B
:10213000FEF750F9FF20FEF74DF9FF20FEF74AF9B0
:10214000FF20FEF747F9FF20FEF744F9FF20FEF7D6
:1021500041F9FF20FEF73EF9FF20FEF73BF9FF2093
:10216000FEF738F9FF20FEF735F9FF20FEF732F9C8
:10217000FF20FEF72FF9FF20FEF72CF9FF20FEF7D6
:1021800029F9FF20FEF726F9FF20FEF723F9FF20AB
:10219000FEF720F9FF20FEF71DF9FF20FEF71AF9E0
:1021A000FF20FEF717F9FF20FEF714F9FF20FEF7D6
:1021B00011F9FF20FEF70EF9FF20FEF70BF9FF20C3
:1021C000FEF708F9FF20FEF705F9FF20FEF702F9F8
:1021D000FF20FEF7FFF8FF20FEF7FCF8FF20FEF7D8
:1021E000F9F8FF20FEF7F6F8FF20FEF7F3F8FF20DE
:1021F000FEF7F0F8FF20FEF7EDF8FF20FEF7EAF813
:10220000FF20FEF7E7F8FF20FEF7E4F8FF20FEF7D7
:10221000E1F8FF20FEF7DEF8FF20FEF7DBF8FF20F5
:10222000FEF7D8F8FF20FEF7D5F8FF20FEF7D2F82A
:10223000FF20FEF7CFF8FF20FEF7CCF8FF20FEF7D7
:10224000C9F8FF20FEF7C6F8FF20FEF7C3F8FF200D
:10225000FEF7C0F8FF20FEF7BDF8FF20FEF7BAF842
:10226000FF20FEF7B7F8FF20FEF7B4F8FF20FEF7D7
:10227000B1F8FF20FEF7AEF8FF20FEF7ABF8FF2025
:10228000FEF7A8F8FF20FEF7A5F8FF20FEF7A2F85A
:10229000FF20FEF79FF8FF20FEF79CF8FF20FEF7D7
:1022A00099F8FF20FEF796F8FF20FEF793F8FF203D
:1022B000FEF790F8FF20FEF78DF8FF20FEF78AF872
:1022C000FF20FEF787F8FF20FEF784F8FF20FEF7D7
:1022D00081F8FF20FEF77EF8FF20FEF77BF8FF2055
:1022E000FEF778F8FF20FEF775F8FF20FEF772F88A
:1022F000FF20FEF76FF8FF20FEF76CF8FF20FEF7D7
:1023000069F8FF20FEF766F8FF20FEF763F8FF206C
:10231000FEF760F8FF20FEF75DF8FF20FEF75AF8A1
:10232000FF20FEF757F8FF20FEF754F8FF20FEF7D6
:1023300051F8FF20FEF74EF8FF20FEF74BF8FF2084
:10234000FEF748F8FF20FEF745F8FF20FEF742F8B9
:10235000FF20FEF73FF8FF20FEF73CF8FF20FEF7D6
:1023600039F8FF20FEF736F8FF20FEF733F8FF209C
:10237000FEF730F8FF20FEF72DF8FF20FEF72AF8D1
:10238000FF20FEF727F8FF20FEF724F8FF20FEF7D6
:1023900021F8FF20FEF71EF8FF20FEF71BF8FF20B4
:1023A000FEF718F8FF20FEF715F8FF20FEF712F8E9
:1023B000FF20FEF70FF8FF20FEF70CF8FF20FEF7D6
:1023C00009F8FF20FEF706F8FF20FEF703F8FF20CC
:1023D000FEF700F8FF20FDF7FDFFFF20FDF7FAFFF5
:1023E000FF20FDF7F7FFFF20FDF7F4FFFF20FDF7CB
:1023F000F1FFFF20FDF7EEFFFF20FDF7EBFFFF20D1
:10240000FDF7E8FFFF20FDF7E5FFFF20FDF7E2FF06
:10241000FF20FDF7DFFFFF20FDF7DCFFFF20FDF7CA
:10242000D9FFFF20FDF7D6FFFF20FDF7D3FFFF20E8
:10243000FDF7D0FFFF20FDF7CDFFFF20FDF7CAFF1E
:10244000FF20FDF7C7FFFF20FDF7C4FFFF20FDF7CA
:10245000C1FFFF20FDF7BEFFFF20FDF7BBFFFF2000
:10246000FDF7B8FFFF20FDF7B5FFFF20FDF7B2FF36
:10247000FF20FDF7AFFFFF20FDF7ACFFFF20FDF7CA
:10248000A9FFFF20FDF7A6FFFF20FDF7A3FFFF2018
:10249000FDF7A0FFFF20FDF79DFFFF20FDF79AFF4E
:1024A000FF20FDF797FFFF20FDF794FFFF20FDF7CA
:1024B00091FFFF20FDF78EFFFF20FDF78BFFFF2030
:1024C000FDF788FFFF20FDF785FFFF20FDF782FF66
:1024D000FF20FDF77FFFFF20FDF77CFFFF20FDF7CA
:1024E00079FFFF20FDF776FFFF20FDF773FFFF2048
:1024F000FDF770FFFF20FDF76DFFFF20FDF76AFF7E
:10250000FF20FDF767FFFF20FDF764FFFF20FDF7C9
:1025100061FFFF20FDF75EFFFF20FDF75BFFFF205F
:10252000FDF758FFFF20FDF755FFFF20FDF752FF95
:10253000FF20FDF74FFFFF20FDF74CFFFF20FDF7C9
:1025400049FFFF20FDF746FFFF20FDF743FFFF2077
:10255000FDF740FFFF20FDF73DFFFF20FDF73AFFAD
:10256000FF20FDF737FFFF20FDF734FFFF20FDF7C9
:1025700031FFFF20FDF72EFFFF20FDF72BFFFF208F
:10258000FDF728FFFF20FDF725FFFF20FDF722FFC5
:10259000FF20FDF71FFFFF20FDF71CFFFF20FDF7C9
:1025A00019FFFF20FDF716FFFF20FDF713FFFF20A7
:1025B000FDF710FFFF20FDF70DFFFF20FDF70AFFDD
:1025C000FF20FDF707FFFF20FDF704FFFF20FDF7C9
:1025D00001FFFF20FDF7FEFEFF20FDF7FBFEFF20C1
:1025E000FDF7F8FEFF20FDF7F5FEFF20FDF7F2FEF8
:1025F000FF20FDF7EFFEFF20FDF7ECFEFF20FDF7CB
:10260000E9FEFF20FDF7E6FEFF20FDF7E3FEFF20D9
:10261000FDF7E0FEFF20FDF7DDFEFF20FDF7DAFE0F
:10262000FF20FDF7D7FEFF20FDF7D4FEFF20FDF7CA
:10263000D1FEFF20FDF7CEFEFF20FDF7CBFEFF20F1
:10264000FDF7C8FEFF20FDF7C5FEFF20FDF7C2FE27
:10265000FF20FDF7BFFEFF20FDF7BCFEFF20FDF7CA
:10266000B9FEFF20FDF7B6FEFF20FDF7B3FEFF2009
:10267000FDF7B0FEFF20FDF7ADFEFF20FDF7AAFE3F
:10268000FF20FDF7A7FEFF20FDF7A4FEFF20FDF7CA
:10269000A1FEFF20FDF79EFEFF20FDF79BFEFF2021
:1026A000FDF798FEFF20FDF795FEFF20FDF792FE57
:1026B000FF20FDF78FFEFF20FDF78CFEFF20FDF7CA
:1026C00089FEFF20FDF786FEFF20FDF783FEFF2039
:1026D000FDF780FEFF20FDF77DFEFF20FDF77AFE6F
:1026E000FF20FDF777FEFF20FDF774FEFF20FDF7CA
:1026F00071FEFF20FDF76EFEFF20FDF76BFEFF2051
:10270000FDF768FEFF20FDF765FEFF20FDF762FE86
:10271000FF20FDF75FFEFF20FDF75CFEFF20FDF7C9
:1027200059FEFF20FDF756FEFF20FDF753FEFF2068
:10273000FDF750FEFF20FDF74DFEFF20FDF74AFE9E
:10274000FF20FDF747FEFF20FDF744FEFF20FDF7C9
:1027500041FEFF20FDF73EFEFF20FDF73BFEFF2080
:10276000FDF738FEFF20FDF735FEFF20FDF732FEB6
:10277000FF20FDF72FFEFF20FDF72CFEFF20FDF7C9
:1027800029FEFF20FDF726FEFF20FDF723FEFF2098
:10279000FDF720FEFF20FDF71DFEFF20FDF71AFECE
:1027A000FF20FDF717FEFF20FDF714FEFF20FDF7C9
:1027B00011FEFF20FDF70EFEFF20FDF70BFEFF20B0
:1027C000FDF708FEFF20FDF705FEFF20FDF702FEE6
:1027D000FF20FDF7FFFDFF20FDF7FCFDFF20FDF7CB
:1027E000F9FDFF20FDF7F6FDFF20FDF7F3FDFF20CB
:1027F000FDF7F0FDFF20FDF7EDFDFF20FDF7EAFD01
:10280000FF20FDF7E7FDFF20FDF7E4FDFF20FDF7CA
:10281000E1FDFF20FDF7DEFDFF20FDF7DBFDFF20E2
:10282000FDF7D8FDFF20FDF7D5FDFF20FDF7D2FD18
:10283000FF20FDF7CFFDFF20FDF7CCFDFF20FDF7CA
:10284000C9FDFF20FDF7C6FDFF20FDF7C3FDFF20FA
:10285000FDF7C0FDFF20FDF7BDFDFF20FDF7BAFD30
:10286000FF20FDF7B7FDFF20FDF7B4FDFF20FDF7CA
:10287000B1FDFF20FDF7AEFDFF20FDF7ABFDFF2012
:10288000FDF7A8FDFF20FDF7A5FDFF20FDF7A2FD48
:10289000FF20FDF79FFDFF20FDF79CFDFF20FDF7CA
:1028A00099FDFF20FDF796FDFF20FDF793FDFF202A
:1028B000FDF790FDFF20FDF78DFDFF20FDF78AFD60
:1028C000FF20FDF787FDFF20FDF784FDFF20FDF7CA
:1028D00081FDFF20FDF77EFDFF20FDF77BFDFF2042
:1028E000FDF778FDFF20FDF775FDFF20FDF772FD78
:1028F000FF20FDF76FFDFF20FDF76CFDFF20FDF7CA
:1029000069FDFF20FDF766FDFF20FDF763FDFF2059
:10291000FDF760FDFF20FDF75DFDFF20FDF75AFD8F
:10292000FF20FDF757FDFF20FDF754FDFF20FDF7C9
:1029300051FDFF20FDF74EFDFF20FDF74BFDFF2071
:10294000FDF748FDFF20FDF745FDFF20FDF742FDA7
:10295000FF20FDF73FFDFF20FDF73CFDFF20FDF7C9
:1029600039FDFF20FDF736FDFF20FDF733FDFF2089
:10297000FDF730FDFF20FDF72DFDFF20FDF72AFDBF
:10298000FF20FDF727FDFF20FDF724FDFF20FDF7C9
:1029900021FDFF20FDF71EFDFF20FDF71BFDFF20A1
:1029A000FDF718FDFF20FDF715FDFF20FDF712FDD7
:1029B000FF20FDF70FFDFF20FDF70CFDFF20FDF7C9
:1029C00009FDFF20FDF706FDFF20FDF703FDFF20B9
:1029D000FDF700FDFF20FDF7FDFCFF20FDF7FAFCF1
:1029E000FF20FDF7F7FCFF20FDF7F4FCFF20FDF7CB
:1029F000F1FCFF20FDF7EEFCFF20FDF7EBFCFF20D4
:102A0000FDF7E8FCFF20FDF7E5FCFF20FDF7E2FC09
:102A1000FF20FDF7DFFCFF20FDF7DCFCFF20FDF7CA
:102A2000D9FCFF20FDF7D6FCFF20FDF7D3FCFF20EB
:102A3000FDF7D0FCFF20FDF7CDFCFF20FDF7CAFC21
:102A4000FF20FDF7C7FCFF20FDF7C4FCFF20FDF7CA
:102A5000C1FCFF20FDF7BEFCFF20FDF7BBFCFF2003
:102A6000FDF7B8FCFF20FDF7B5FCFF20FDF7B2FC39
:102A7000FF20FDF7AFFCFF20FDF7ACFCFF20FDF7CA
:102A8000A9FCFF20FDF7A6FCFF20FDF7A3FCFF201B
:102A9000FDF7A0FCFF20FDF79DFCFF20FDF79AFC51
:102AA000FF20FDF797FCFF20FDF794FCFF20FDF7CA
:102AB00091FCFF20FDF78EFCFF20FDF78BFCFF2033
:102AC000FDF788FCFF20FDF785FCFF20FDF782FC69
:102AD000FF20FDF77FFCFF20FDF77CFCFF20FDF7CA
:102AE00079FCFF20FDF776FCFF20FDF773FCFF204B
:102AF000FDF770FCFF20FDF76DFCFF20FDF76AFC81
:102B0000FF20FDF767FCFF20FDF764FCFF20FDF7C9
:102B100061FCFF20FDF75EFCFF20FDF75BFCFF2062
:102B2000FDF758FCFF20FDF755FCFF20FDF752FC98
:102B3000FF20FDF74FFCFF20FDF74CFCFF20FDF7C9
:102B400049FCFF20FDF746FCFF20FDF743FCFF207A
:102B5000FDF740FCFF20FDF73DFCFF20FDF73AFCB0
:102B6000FF20FDF737FCFF20FDF734FCFF20FDF7C9
:102B700031FCFF20FDF72EFCFF20FDF72BFCFF2092
:102B8000FDF728FCFF20FDF725FCFF20FDF722FCC8
:102B9000FF20FDF71FFCFF20FDF71CFCFF20FDF7C9
:102BA00019FCFF20FDF716FCFF20FDF713FCFF20AA
:102BB000FDF710FCFF20FDF70DFCFF20FDF70AFCE0
:102BC000FF20FDF707FCFF20FDF704FCFF20FDF7C9
:102BD00001FCFF20FDF7FEFBFF20FDF7FBFBFF20C4
:102BE000FDF7F8FBFF20FDF7F5FBFF20FDF7F2FBFB
:102BF000FF20FDF7EFFBFF20FDF7ECFBFF20FDF7CB
:102C0000E9FBFF20FDF7E6FBFF20FDF7E3FBFF20DC
:102C1000FDF7E0FBFF20FDF7DDFBFF20FDF7DAFB12
:102C2000FF20FDF7D7FBFF20FDF7D4FBFF20FDF7CA
:102C3000D1FBFF20FDF7CEFBFF20FDF7CBFBFF20F4
:102C4000FDF7C8FBFF20FDF7C5FBFF20FDF7C2FB2A
:102C5000FF20FDF7BFFBFF20FDF7BCFBFF20FDF7CA
:102C6000B9FBFF20FDF7B6FBFF20FDF7B3FBFF200C
:102C7000FDF7B0FBFF20FDF7ADFBFF20FDF7AAFB42
:102C8000FF20FDF7A7FBFF20FDF7A4FBFF20FDF7CA
:102C9000A1FBFF20FDF79EFBFF20FDF79BFBFF2024
:102CA000FDF798FBFF20FDF795FBFF20FDF792FB5A
:102CB000FF20FDF78FFBFF20FDF78CFBFF20FDF7CA
:102CC00089FBFF20FDF786FBFF20FDF783FBFF203C
:102CD000FDF780FBFF20FDF77DFBFF20FDF77AFB72
:102CE000FF20FDF777FBFF20FDF774FBFF20FDF7CA
:102CF00071FBFF20FDF76EFBFF20FDF76BFBFF2054
:102D0000FDF768FBFF20FDF765FBFF20FDF762FB89
:102D1000FF20FDF75FFBFF20FDF75CFBFF20FDF7C9
:102D200059FBFF20FDF756FBFF20FDF753FBFF206B
:102D3000FDF750FBFF20FDF74DFBFF20FDF74AFBA1
:102D4000FF20FDF747FBFF20FDF744FBFF20FDF7C9
:102D500041FBFF20FDF73EFBFF20FDF73BFBFF2083
:102D6000FDF738FBFF20FDF735FBFF20FDF732FBB9
:102D7000FF20FDF72FFBFF20FDF72CFBFF20FDF7C9
:102D800029FBFF20FDF726FBFF20FDF723FBFF209B
:102D9000FDF720FBFF20FDF71DFBFF20FDF71AFBD1
:102DA000FF20FDF717FBFF20FDF714FBFF20FDF7C9
:102DB00011FBFF20FDF70EFBFF20FDF70BFBFF20B3
:102DC000FDF708FBFF20FDF705FBFF20FDF702FBE9
:102DD000FF20FDF7FFFAFF20FDF7FCFAFF20FDF7CB
:102DE000F9FAFF20FDF7F6FAFF20FDF7F3FAFF20CE
:102DF000FDF7F0FAFF20FDF7EDFAFF20FDF7EAFA04
:102E0000FF20FDF7E7FAFF20FDF7E4FAFF20FDF7CA
:102E1000E1FAFF20FDF7DEFAFF20FDF7DBFAFF20E5
:102E2000FDF7D8FAFF20FDF7D5FAFF20FDF7D2FA1B
:102E3000FF20FDF7CFFAFF20FDF7CCFAFF20FDF7CA
:102E4000C9FAFF20FDF7C6FAFF20FDF7C3FAFF20FD
:102E5000FDF7C0FAFF20FDF7BDFAFF20FDF7BAFA33
:102E6000FF20FDF7B7FAFF20FDF7B4FAFF20FDF7CA
:102E7000B1FAFF20FDF7AEFAFF20FDF7ABFAFF2015
:102E8000FDF7A8FAFF20FDF7A5FAFF20FDF7A2FA4B
:102E9000FF20FDF79FFAFF20FDF79CFAFF20FDF7CA
:102EA00099FAFF20FDF796FAFF20FDF793FAFF202D
:102EB000FDF790FAFF20FDF78DFAFF20FDF78AFA63
:102EC000FF20FDF787FAFF20FDF784FAFF20FDF7CA
:102ED00081FAFF20FDF77EFAFF20FDF77BFAFF2045
:102EE000FDF778FAFF20FDF775FAFF20FDF772FA7B
:102EF000FF20FDF76FFAFF20FDF76CFAFF20FDF7CA
:102F000069FAFF20FDF766FAFF20FDF763FAFF205C
:102F1000FDF760FAFF20FDF75DFAFF20FDF75AFA92
:102F2000FF20FDF757FAFF20FDF754FAFF20FDF7C9
:102F300051FAFF20FDF74EFAFF20FDF74BFAFF2074
:102F4000FDF748FAFF20FDF745FAFF20FDF742FAAA
:102F5000FF20FDF73FFAFF20FDF73CFAFF20FDF7C9
:102F600039FAFF20FDF736FAFF20FDF733FAFF208C
:102F7000FDF730FAFF20FDF72DFAFF20FDF72AFAC2
:102F8000FF20FDF727FAFF20FDF724FAFF20FDF7C9
:102F900021FAFF20FDF71EFAFF20FDF71BFAFF20A4
:102FA000FDF718FAFF20FDF715FAFF20FDF712FADA
:102FB000FF20FDF70FFAFF20FDF70CFAFF20FDF7C9
:102FC00009FAFF20FDF706FAFF20FDF703FAFF20BC
:102FD000FDF700FAFF20FDF7FDF9FF20FDF7FAF9F4
:102FE000FF20FDF7F7F9FF20FDF7F4F9FF20FDF7CB
:102FF000F1F9FF20FDF7EEF9FF20FDF7EBF9FF20D7
:10300000FDF7E8F9FF20FDF7E5F9FF20FDF7E2F90C
:10301000FF20FDF7DFF9FF20FDF7DCF9FF20FDF7CA
:10302000D9F9FF20FDF7D6F9FF20FDF7D3F9FF20EE
:10303000FDF7D0F9FF20FDF7CDF9FF20FDF7CAF924
:10304000FF20FDF7C7F9FF20FDF7C4F9FF20FDF7CA
:10305000C1F9FF20FDF7BEF9FF20FDF7BBF9FF2006
:10306000FDF7B8F9FF20FDF7B5F9FF20FDF7B2F93C
:10307000FF20FDF7AFF9FF20FDF7ACF9FF20FDF7CA
:10308000A9F9FF20FDF7A6F9FF20FDF7A3F9FF201E
:10309000FDF7A0F9FF20FDF79DF9FF20FDF79AF954
:1030A000FF20FDF797F9FF20FDF794F9FF20FDF7CA
:1030B00091F9FF20FDF78EF9FF20FDF78BF9FF2036
:1030C000FDF788F9FF20FDF785F9FF20FDF782F96C
:1030D000FF20FDF77FF9FF20FDF77CF9FF20FDF7CA
:1030E00079F9FF20FDF776F9FF20FDF773F9FF204E
:1030F000FDF770F9FF20FDF76DF9FF20FDF76AF984
:10310000FF20FDF767F9FF20FDF764F9FF20FDF7C9
:1031100061F9FF20FDF75EF9FF20FDF75BF9FF2065
:10312000FDF758F9FF20FDF755F9FF20FDF752F99B
:10313000FF20FDF74FF9FF20FDF74CF9FF20FDF7C9
:1031400049F9FF20FDF746F9FF20FDF743F9FF207D
:10315000FDF740F9FF20FDF73DF9FF20FDF73AF9B3
:10316000FF20FDF737F9FF20FDF734F9FF20FDF7C9
:1031700031F9FF20FDF72EF9FF20FDF72BF9FF2095
:10318000FDF728F9FF20FDF725F9FF20FDF722F9CB
:10319000FF20FDF71FF9FF20FDF71CF9FF20FDF7C9
:1031A00019F9FF20FDF716F9FF20FDF713F9FF20AD
:1031B000FDF710F9FF20FDF70DF9FF20FDF70AF9E3
:1031C000FF20FDF707F9FF20FDF704F9FF20FDF7C9
:1031D00001F9FF20FDF7FEF8FF20FDF7FBF8FF20C7
:1031E000FDF7F8F8FF20FDF7F5F8FF20FDF7F2F8FE
:1031F000FF20FDF7EFF8FF20FDF7ECF8FF20FDF7CB
:10320000E9F8FF20FDF7E6F8FF20FDF7E3F8FF20DF
:10321000FDF7E0F8FF20FDF7DDF8FF20FDF7DAF815
:10322000FF20FDF7D7F8FF20FDF7D4F8FF20FDF7CA
:10323000D1F8FF20FDF7CEF8FF20FDF7CBF8FF20F7
:10324000FDF7C8F8FF20FDF7C5F8FF20FDF7C2F82D
:10325000FF20FDF7BFF8FF20FDF7BCF8FF20FDF7CA
:10326000B9F8FF20FDF7B6F8FF20FDF7B3F8FF200F
:10327000FDF7B0F8FF20FDF7ADF8FF20FDF7AAF845
:10328000FF20FDF7A7F8FF20FDF7A4F8FF20FDF7CA
:10329000A1F8FF20FDF79EF8FF20FDF79BF8FF2027
:1032A000FDF798F8FF20FDF795F8FF20FDF792F85D
:1032B000FF20FDF78FF8FF20FDF78CF8FF20FDF7CA
:1032C00089F8FF20FDF786F8FF20FDF783F8FF203F
:1032D000FDF780F8FF20FDF77DF8FF20FDF77AF875
:1032E000FF20FDF777F8FF20FDF774F8FF20FDF7CA
:1032F00071F8FF20FDF76EF8FF20FDF76BF8FF2057
:10330000FDF768F8FF20FDF765F8FF20FDF762F88C
:10331000FF20FDF75FF8FF20FDF75CF8FF20FDF7C9
:1033200059F8FF20FDF756F8FF20FDF753F8FF206E
:10333000FDF750F8FF20FDF74DF8FF20FDF74AF8A4
:10334000FF20FDF747F8FF20FDF744F8FF20FDF7C9
:1033500041F8FF20FDF73EF8FF20FDF73BF8FF2086
:10336000FDF738F8FF20FDF735F8FF20FDF732F8BC
:10337000FF20FDF72FF8FF20FDF72CF8FF20FDF7C9
:1033800029F8FF20FDF726F8FF20FDF723F8FF209E
:10339000FDF720F8FF20FDF71DF8FF20FDF71AF8D4
:1033A000FF20FDF717F8FF20FDF714F8FF20FDF7C9
:1033B00011F8FF20FDF70EF8FF20FDF70BF8FF20B6
:1033C000FDF708F8FF20FDF705F8FF20FDF702F8EC
:1033D000FF20FCF7FFFFFF20FCF7FCFFFF20FCF7BE
:1033E000F9FFFF20FCF7F6FFFF20FCF7F3FFFF20BB
:1033F000FCF7F0FFFF20FCF7EDFFFF20FCF7EAFFF2
:10340000FF20FCF7E7FFFF20FCF7E4FFFF20FCF7BD
:10341000E1FFFF20FCF7DEFFFF20FCF7DBFFFF20D2
:10342000FCF7D8FFFF20FCF7D5FFFF20FCF7D2FF09
:10343000FF20FCF7CFFFFF20FCF7CCFFFF20FCF7BD
:10344000C9FFFF20FCF7C6FFFF20FCF7C3FFFF20EA
:10345000FCF7C0FFFF20FCF7BDFFFF20FCF7BAFF21
:10346000FF20FCF7B7FFFF20FCF7B4FFFF20FCF7BD
:10347000B1FFFF20FCF7AEFFFF20FCF7ABFFFF2002
:10348000FCF7A8FFFF20FCF7A5FFFF20FCF7A2FF39
:10349000FF20FCF79FFFFF20FCF79CFFFF20FCF7BD
:1034A00099FFFF20FCF796FFFF20FCF793FFFF201A
:1034B000FCF790FFFF20FCF78DFFFF20FCF78AFF51
:1034C000FF20FCF787FFFF20FCF784FFFF20FCF7BD
:1034D00081FFFF20FCF77EFFFF20FCF77BFFFF2032
:1034E000FCF778FFFF20FCF775FFFF20FCF772FF69
:1034F000FF20FCF76FFFFF20FCF76CFFFF20FCF7BD
:1035000069FFFF20FCF766FFFF20FCF763FFFF2049
:10351000FCF760FFFF20FCF75DFFFF20FCF75AFF80
:10352000FF20FCF757FFFF20FCF754FFFF20FCF7BC
:1035300051FFFF20FCF74EFFFF20FCF74BFFFF2061
:10354000FCF748FFFF20FCF745FFFF20FCF742FF98
:10355000FF20FCF73FFFFF20FCF73CFFFF20FCF7BC
:1035600039FFFF20FCF736FFFF20FCF733FFFF2079
:10357000FCF730FFFF20FCF72DFFFF20FCF72AFFB0
:10358000FF20FCF727FFFF20FCF724FFFF20FCF7BC
:1035900021FFFF20FCF71EFFFF20FCF71BFFFF2091
:1035A000FCF718FFFF20FCF715FFFF20FCF712FFC8
:1035B000FF20FCF70FFFFF20FCF70CFFFF20FCF7BC
:1035C00009FFFF20FCF706FFFF20FCF703FFFF20A9
:1035D000FCF700FFFF20FCF7FDFEFF20FCF7FAFEE2
:1035E000FF20FCF7F7FEFF20FCF7F4FEFF20FCF7BE
:1035F000F1FEFF20FCF7EEFEFF20FCF7EBFEFF20C4
:10360000FCF7E8FEFF20FCF7E5FEFF20FCF7E2FEFA
:10361000FF20FCF7DFFEFF20FCF7DCFEFF20FCF7BD
:10362000D9FEFF20FCF7D6FEFF20FCF7D3FEFF20DB
:10363000FCF7D0FEFF20FCF7CDFEFF20FCF7CAFE12
:10364000FF20FCF7C7FEFF20FCF7C4FEFF20FCF7BD
:10365000C1FEFF20FCF7BEFEFF20FCF7BBFEFF20F3
:10366000FCF7B8FEFF20FCF7B5FEFF20FCF7B2FE2A
:10367000FF20FCF7AFFEFF20FCF7ACFEFF20FCF7BD
:10368000A9FEFF20FCF7A6FEFF20FCF7A3FEFF200B
:10369000FCF7A0FEFF20FCF79DFEFF20FCF79AFE42
:1036A000FF20FCF797FEFF20FCF794FEFF20FCF7BD
:1036B00091FEFF20FCF78EFEFF20FCF78BFEFF2023
:1036C000FCF788FEFF20FCF785FEFF20FCF782FE5A
:1036D000FF20FCF77FFEFF20FCF77CFEFF20FCF7BD
:1036E00079FEFF20FCF776FEFF20FCF773FEFF203B
:1036F000FCF770FEFF20FCF76DFEFF20FCF76AFE72
:10370000FF20FCF767FEFF20FCF764FEFF20FCF7BC
:1037100061FEFF20FCF75EFEFF20FCF75BFEFF2052
:10372000FCF758FEFF20FCF755FEFF20FCF752FE89
:10373000FF20FCF74FFEFF20FCF74CFEFF20FCF7BC
:1037400049FEFF20FCF746FEFF20FCF743FEFF206A
:10375000FCF740FEFF20FCF73DFEFF20FCF73AFEA1
:10376000FF20FCF737FEFF20FCF734FEFF20FCF7BC
:1037700031FEFF20FCF72EFEFF20FCF72BFEFF2082
:10378000FCF728FEFF20FCF725FEFF20FCF722FEB9
:10379000FF20FCF71FFEFF20FCF71CFEFF20FCF7BC
:1037A00019FEFF20FCF716FEFF20FCF713FEFF209A
:1037B000FCF710FEFF20FCF70DFEFF20FCF70AFED1
:1037C000FF20FCF707FEFF20FCF704FEFF20FCF7BC
:1037D00001FEFF20FCF7FEFDFF20FCF7FBFDFF20B4
:1037E000FCF7F8FDFF20FCF7F5FDFF20FCF7F2FDEC
:1037F000FF20FCF7EFFDFF20FCF7ECFDFF20FCF7BE
:10380000E9FDFF20FCF7E6FDFF20FCF7E3FDFF20CC
:10381000FCF7E0FDFF20FCF7DDFDFF20FCF7DAFD03
:10382000FF20FCF7D7FDFF20FCF7D4FDFF20FCF7BD
:10383000D1FDFF20FCF7CEFDFF20FCF7CBFDFF20E4
:10384000FCF7C8FDFF20FCF7C5FDFF20FCF7C2FD1B
:10385000FF20FCF7BFFDFF20FCF7BCFDFF20FCF7BD
:10386000B9FDFF20FCF7B6FDFF20FCF7B3FDFF20FC
:10387000FCF7B0FDFF20FCF7ADFDFF20FCF7AAFD33
:10388000FF20FCF7A7FDFF20FCF7A4FDFF20FCF7BD
:10389000A1FDFF20FCF79EFDFF20FCF79BFDFF2014
:1038A000FCF798FDFF20FCF795FDFF20FCF792FD4B
:1038B000FF20FCF78FFDFF20FCF78CFDFF20FCF7BD
:1038C00089FDFF20FCF786FDFF20FCF783FDFF202C
:1038D000FCF780FDFF20FCF77DFDFF20FCF77AFD63
:1038E000FF20FCF777FDFF20FCF774FDFF20FCF7BD
:1038F00071FDFF20FCF76EFDFF20FCF76BFDFF2044
:10390000FCF768FDFF20FCF765FDFF20FCF762FD7A
:10391000FF20FCF75FFDFF20FCF75CFDFF20FCF7BC
:1039200059FDFF20FCF756FDFF20FCF753FDFF205B
:10393000FCF750FDFF20FCF74DFDFF20FCF74AFD92
:10394000FF20FCF747FDFF20FCF744FDFF20FCF7BC
:1039500041FDFF20FCF73EFDFF20FCF73BFDFF2073
:10396000FCF738FDFF20FCF735FDFF20FCF732FDAA
:10397000FF20FCF72FFDFF20FCF72CFDFF20FCF7BC
:1039800029FDFF20FCF726FDFF20FCF723FDFF208B
:10399000FCF720FDFF20FCF71DFDFF20FCF71AFDC2
:1039A000FF20FCF717FDFF20FCF714FDFF20FCF7BC
:1039B00011FDFF20FCF70EFDFF20FCF70BFDFF20A3
:1039C000FCF708FDFF20FCF705FDFF20FCF702FDDA
:1039D000FF20FCF7FFFCFF20FCF7FCFCFF20FCF7BE
:1039E000F9FCFF20FCF7F6FCFF20FCF7F3FCFF20BE
:1039F000FCF7F0FCFF20FCF7EDFCFF20FCF7EAFCF5
:103A0000FF20FCF7E7FCFF20FCF7E4FCFF20FCF7BD
:103A1000E1FCFF20FCF7DEFCFF20FCF7DBFCFF20D5
:103A2000FCF7D8FCFF20FCF7D5FCFF20FCF7D2FC0C
:103A3000FF20FCF7CFFCFF20FCF7CCFCFF20FCF7BD
:103A4000C9FCFF20FCF7C6FCFF20FCF7C3FCFF20ED
:103A5000FCF7C0FCFF20FCF7BDFCFF20FCF7BAFC24
:103A6000FF20FCF7B7FCFF20FCF7B4FCFF20FCF7BD
:103A7000B1FCFF20FCF7AEFCFF20FCF7ABFCFF2005
:103A8000FCF7A8FCFF20FCF7A5FCFF20FCF7A2FC3C
:103A9000FF20FCF79FFCFF20FCF79CFCFF20FCF7BD
:103AA00099FCFF20FCF796FCFF20FCF793FCFF201D
:103AB000FCF790FCFF20FCF78DFCFF20FCF78AFC54
:103AC000FF20FCF787FCFF20FCF784FCFF20FCF7BD
:103AD00081FCFF20FCF77EFCFF20FCF77BFCFF2035
:103AE000FCF778FCFF20FCF775FCFF20FCF772FC6C
:103AF000FF20FCF76FFCFF20FCF76CFCFF20FCF7BD
:103B000069FCFF20FCF766FCFF20FCF763FCFF204C
:103B1000FCF760FCFF20FCF75DFCFF20FCF75AFC83
:103B2000FF20FCF757FCFF20FCF754FCFF20FCF7BC
:103B300051FCFF20FCF74EFCFF20FCF74BFCFF2064
:103B4000FCF748FCFF20FCF745FCFF20FCF742FC9B
:103B5000FF20FCF73FFCFF20FCF73CFCFF20FCF7BC
:103B600039FCFF20FCF736FCFF20FCF733FCFF207C
:103B7000FCF730FCFF20FCF72DFCFF20FCF72AFCB3
:103B8000FF20FCF727FCFF20FCF724FCFF20FCF7BC
:103B900021FCFF20FCF71EFCFF20FCF71BFCFF2094
:103BA000FCF718FCFF20FCF715FCFF20FCF712FCCB
:103BB000FF20FCF70FFCFF20FCF70CFCFF20FCF7BC
:103BC00009FCFF20FCF706FCFF20FCF703FCFF20AC
:103BD000FCF700FCFF20FCF7FDFBFF20FCF7FAFBE5
:103BE000FF20FCF7F7FBFF20FCF7F4FBFF20FCF7BE
:103BF000F1FBFF20FCF7EEFBFF20FCF7EBFBFF20C7
:103C0000FCF7E8FBFF20FCF7E5FBFF20FCF7E2FBFD
:103C1000FF20FCF7DFFBFF20FCF7DCFBFF20FCF7BD
:103C2000D9FBFF20FCF7D6FBFF20FCF7D3FBFF20DE
:103C3000FCF7D0FBFF20FCF7CDFBFF20FCF7CAFB15
:103C4000FF20FCF7C7FBFF20FCF7C4FBFF20FCF7BD
:103C5000C1FBFF20FCF7BEFBFF20FCF7BBFBFF20F6
:103C6000FCF7B8FBFF20FCF7B5FBFF20FCF7B2FB2D
:103C7000FF20FCF7AFFBFF20FCF7ACFBFF20FCF7BD
:103C8000A9FBFF20FCF7A6FBFF20FCF7A3FBFF200E
:103C9000FCF7A0FBFF20FCF79DFBFF20FCF79AFB45
:103CA000FF20FCF797FBFF20FCF794FBFF20FCF7BD
:103CB00091FBFF20FCF78EFBFF20FCF78BFBFF2026
:103CC000FCF788FBFF20FCF785FBFF20FCF782FB5D
:103CD000FF20FCF77FFBFF20FCF77CFBFF20FCF7BD
:103CE00079FBFF20FCF776FBFF20FCF773FBFF203E
:103CF000FCF770FBFF20FCF76DFBFF20FCF76AFB75
:103D0000FF20FCF767FBFF20FCF764FBFF20FCF7BC
:103D100061FBFF20FCF75EFBFF20FCF75BFBFF2055
:103D2000FCF758FBFF20FCF755FBFF20FCF752FB8C
:103D3000FF20FCF74FFBFF20FCF74CFBFF20FCF7BC
:103D400049FBFF20FCF746FBFF20FCF743FBFF206D
:103D5000FCF740FBFF20FCF73DFBFF20FCF73AFBA4
:103D6000FF20FCF737FBFF20FCF734FBFF20FCF7BC
:103D700031FBFF20FCF72EFBFF20FCF72BFBFF2085
:103D8000FCF728FBFF20FCF725FBFF20FCF722FBBC
:103D9000FF20FCF71FFBFF20FCF71CFBFF20FCF7BC
:103DA00019FBFF20FCF716FBFF20FCF713FBFF209D
:103DB000FCF710FBFF20FCF70DFBFF20FCF70AFBD4
:103DC000FF20FCF707FBFF20FCF704FBFF20FCF7BC
:103DD00001FBFF20FCF7FEFAFF20FCF7FBFAFF20B7
:103DE000FCF7F8FAFF20FCF7F5FAFF20FCF7F2FAEF
:103DF000FF20FCF7EFFAFF20FCF7ECFAFF20FCF7BE
:103E0000E9FAFF20FCF7E6FAFF20FCF7E3FAFF20CF
:103E1000FCF7E0FAFF20FCF7DDFAFF20FCF7DAFA06
:103E2000FF20FCF7D7FAFF20FCF7D4FAFF20FCF7BD
:103E3000D1FAFF20FCF7CEFAFF20FCF7CBFAFF20E7
:103E4000FCF7C8FAFF20FCF7C5FAFF20FCF7C2FA1E
:103E5000FF20FCF7BFFAFF20FCF7BCFAFF20FCF7BD
:103E6000B9FAFF20FCF7B6FAFF20FCF7B3FAFF20FF
:103E7000FCF7B0FAFF20FCF7ADFAFF20FCF7AAFA36
:103E8000FF20FCF7A7FAFF20FCF7A4FAFF20FCF7BD
:103E9000A1FAFF20FCF79EFAFF20FCF79BFAFF2017
:103EA000FCF798FAFF20FCF795FAFF20FCF792FA4E
:103EB000FF20FCF78FFAFF20FCF78CFAFF20FCF7BD
:103EC00089FAFF20FCF786FAFF20FCF783FAFF202F
:103ED000FCF780FAFF20FCF77DFAFF20FCF77AFA66
:103EE000FF20FCF777FAFF20FCF774FAFF20FCF7BD
:103EF00071FAFF20FCF76EFAFF20FCF76BFAFF2047
:103F0000FCF768FAFF20FCF765FAFF20FCF762FA7D
:103F1000FF20FCF75FFAFF20FCF75CFAFF20FCF7BC
:103F200059FAFF20FCF756FAFF20FCF753FAFF205E
:103F3000FCF750FAFF20FCF74DFAFF20FCF74AFA95
:103F4000FF20FCF747FAFF20FCF744FAFF20FCF7BC
:103F500041FAFF20FCF73EFAFF20FCF73BFAFF2076
:103F6000FCF738FAFF20FCF735FAFF20FCF732FAAD
:103F7000FF20FCF72FFAFF20FCF72CFAFF20FCF7BC
:103F800029FAFF20FCF726FAFF20FCF723FAFF208E
:103F9000FCF720FAFF20FCF71DFAFF20FCF71AFAC5
:103FA000FF20FCF717FAFF20FCF714FAFF20FCF7BC
:103FB00011FAFF20FCF70EFAFF20FCF70BFAFF20A6
:103FC000FCF708FAFF20FCF705FAFF20FCF702FADD
:103FD000FF20FCF7FFF9FF20FCF7FCF9FF20FCF7BE
:103FE000F9F9FF20FCF7F6F9FF20FCF7F3F9FF20C1
:103FF000FCF7F0F9FF20FCF7EDF9FF20FCF7EAF9F8
:10400000FF20FCF7E7F9FF20FCF7E4F9FF20FCF7BD
:10401000E1F9FF20FCF7DEF9FF20FCF7DBF9FF20D8
:10402000FCF7D8F9FF20FCF7D5F9FF20FCF7D2F90F
:10403000FF20FCF7CFF9FF20FCF7CCF9FF20FCF7BD
:10404000C9F9FF20FCF7C6F9FF20FCF7C3F9FF20F0
:10405000FCF7C0F9FF20FCF7BDF9FF20FCF7BAF927
:10406000FF20FCF7B7F9FF20FCF7B4F9FF20FCF7BD
:10407000B1F9FF20FCF7AEF9FF20FCF7ABF9FF2008
:10408000FCF7A8F9FF20FCF7A5F9FF20FCF7A2F93F
:10409000FF20FCF79FF9FF20FCF79CF9FF20FCF7BD
:1040A00099F9FF20FCF796F9FF20FCF793F9FF2020
:1040B000FCF790F9FF20FCF78DF9FF20FCF78AF957
:1040C000FF20FCF787F9FF20FCF784F9FF20FCF7BD
:1040D00081F9FF20FCF77EF9FF20FCF77BF9FF2038
:1040E000FCF778F9FF20FCF775F9FF20FCF772F96F
:1040F000FF20FCF76FF9FF20FCF76CF9FF20FCF7BD
:1041000069F9FF20FCF766F9FF20FCF763F9FF204F
:10411000FCF760F9FF20FCF75DF9FF20FCF75AF986
:10412000FF20FCF757F9FF20FCF754F9FF20FCF7BC
:1041300051F9FF20FCF74EF9FF20FCF74BF9FF2067
:10414000FCF748F9FF20FCF745F9FF20FCF742F99E
:10415000FF20FCF73FF9FF20FCF73CF9FF20FCF7BC
:1041600039F9FF20FCF736F9FF20FCF733F9FF207F
:10417000FCF730F9FF20FCF72DF9FF20FCF72AF9B6
:10418000FF20FCF727F9FF20FCF724F9FF20FCF7BC
:1041900021F9FF20FCF71EF9FF20FCF71BF9FF2097
:1041A000FCF718F9FF20FCF715F9FF20FCF712F9CE
:1041B000FF20FCF70FF9FF20FCF70CF9FF20FCF7BC
:1041C00009F9FF20FCF706F9FF20FCF703F9FF20AF
:1041D000FCF700F9FF20FCF7FDF8FF20FCF7FAF8E8
:1041E000FF20FCF7F7F8FF20FCF7F4F8FF20FCF7BE
:1041F000F1F8FF20FCF7EEF8FF20FCF7EBF8FF20CA
:10420000FCF7E8F8FF20FCF7E5F8FF20FCF7E2F800
:10421000FF20FCF7DFF8FF20FCF7DCF8FF20FCF7BD
:10422000D9F8FF20FCF7D6F8FF20FCF7D3F8FF20E1
:10423000FCF7D0F8FF20FCF7CDF8FF20FCF7CAF818
:10424000FF20FCF7C7F8FF20FCF7C4F8FF20FCF7BD
:10425000C1F8FF20FCF7BEF8FF20FCF7BBF8FF20F9
:10426000FCF7B8F8FF20FCF7B5F8FF20FCF7B2F830
:10427000FF20FCF7AFF8FF20FCF7ACF8FF20FCF7BD
:10428000A9F8FF20FCF7A6F8FF20FCF7A3F8FF2011
:10429000FCF7A0F8FF20FCF79DF8FF20FCF79AF848
:1042A000FF20FCF797F8FF20FCF794F8FF20FCF7BD
:1042B00091F8FF20FCF78EF8FF20FCF78BF8FF2029
:1042C000FCF788F8FF20FCF785F8FF20FCF782F860
:1042D000FF20FCF77FF8FF20FCF77CF8FF20FCF7BD
:1042E00079F8FF20FCF776F8FF20FCF773F8FF2041
:1042F000FCF770F8FF20FCF76DF8FF20FCF76AF878
:10430000FF20FCF767F8FF20FCF764F8FF20FCF7BC
:1043100061F8FF20FCF75EF8FF20FCF75BF8FF2058
:10432000FCF758F8FF20FCF755F8FF20FCF752F88F
:10433000FF20FCF74FF8FF20FCF74CF8FF20FCF7BC
:1043400049F8FF20FCF746F8FF20FCF743F8FF2070
:10435000FCF740F8FF20FCF73DF8FF20FCF73AF8A7
:10436000FF20FCF737F8FF20FCF734F8FF20FCF7BC
:1043700031F8FF20FCF72EF8FF20FCF72BF8FF2088
:10438000FCF728F8FF20FCF725F8FF20FCF722F8BF
:10439000FF20FCF71FF8FF20FCF71CF8FF20FCF7BC
:1043A00019F8FF20FCF716F8FF20FCF713F8FF20A0
:1043B000FCF710F8FF20FCF70DF8FF20FCF70AF8D7
:1043C000FF20FCF707F8FF20FCF704F8FF20FCF7BC
:1043D00001F8FF20FBF7FEFFFF20FBF7FBFFFF20AC
:1043E000FBF7F8FFFF20FBF7F5FFFF20FBF7F2FFDD
:1043F000FF20FBF7EFFFFF20FBF7ECFFFF20FBF7B1
:10440000E9FFFF20FBF7E6FFFF20FBF7E3FFFF20BC
:10441000FBF7E0FFFF20FBF7DDFFFF20FBF7DAFFF4
:10442000FF20FBF7D7FFFF20FBF7D4FFFF20FBF7B0
:10443000D1FFFF20FBF7CEFFFF20FBF7CBFFFF20D4
:10444000FBF7C8FFFF20FBF7C5FFFF20FBF7C2FF0C
:10445000FF20FBF7BFFFFF20FBF7BCFFFF20FBF7B0
:10446000B9FFFF20FBF7B6FFFF20FBF7B3FFFF20EC
:10447000FBF7B0FFFF20FBF7ADFFFF20FBF7AAFF24
:10448000FF20FBF7A7FFFF20FBF7A4FFFF20FBF7B0
:10449000A1FFFF20FBF79EFFFF20FBF79BFFFF2004
:1044A000FBF798FFFF20FBF795FFFF20FBF792FF3C
:1044B000FF20FBF78FFFFF20FBF78CFFFF20FBF7B0
:1044C00089FFFF20FBF786FFFF20FBF783FFFF201C
:1044D000FBF780FFFF20FBF77DFFFF20FBF77AFF54
:1044E000FF20FBF777FFFF20FBF774FFFF20FBF7B0
:1044F00071FFFF20FBF76EFFFF20FBF76BFFFF2034
:10450000FBF768FFFF20FBF765FFFF20FBF762FF6B
:10451000FF20FBF75FFFFF20FBF75CFFFF20FBF7AF
:1045200059FFFF20FBF756FFFF20FBF753FFFF204B
:10453000FBF750FFFF20FBF74DFFFF20FBF74AFF83
:10454000FF20FBF747FFFF20FBF744FFFF20FBF7AF
:1045500041FFFF20FBF73EFFFF20FBF73BFFFF2063
:10456000FBF738FFFF20FBF735FFFF20FBF732FF9B
:10457000FF20FBF72FFFFF20FBF72CFFFF20FBF7AF
:1045800029FFFF20FBF726FFFF20FBF723FFFF207B
:10459000FBF720FFFF20FBF71DFFFF20FBF71AFFB3
:1045A000FF20FBF717FFFF20FBF714FFFF20FBF7AF
:1045B00011FFFF20FBF70EFFFF20FBF70BFFFF2093
:1045C000FBF708FFFF20FBF705FFFF20FBF702FFCB
:1045D000FF20FBF7FFFEFF20FBF7FCFEFF20FBF7B1
:1045E000F9FEFF20FBF7F6FEFF20FBF7F3FEFF20AE
:1045F000FBF7F0FEFF20FBF7EDFEFF20FBF7EAFEE6
:10460000FF20FBF7E7FEFF20FBF7E4FEFF20FBF7B0
:10461000E1FEFF20FBF7DEFEFF20FBF7DBFEFF20C5
:10462000FBF7D8FEFF20FBF7D5FEFF20FBF7D2FEFD
:10463000FF20FBF7CFFEFF20FBF7CCFEFF20FBF7B0
:10464000C9FEFF20FBF7C6FEFF20FBF7C3FEFF20DD
:10465000FBF7C0FEFF20FBF7BDFEFF20FBF7BAFE15
:10466000FF20FBF7B7FEFF20FBF7B4FEFF20FBF7B0
:10467000B1FEFF20FBF7AEFEFF20FBF7ABFEFF20F5
:10468000FBF7A8FEFF20FBF7A5FEFF20FBF7A2FE2D
:10469000FF20FBF79FFEFF20FBF79CFEFF20FBF7B0
:1046A00099FEFF20FBF796FEFF20FBF793FEFF200D
:1046B000FBF790FEFF20FBF78DFEFF20FBF78AFE45
:1046C000FF20FBF787FEFF20FBF784FEFF20FBF7B0
:1046D00081FEFF20FBF77EFEFF20FBF77BFEFF2025
:1046E000FBF778FEFF20FBF775FEFF20FBF772FE5D
:1046F000FF20FBF76FFEFF20FBF76CFEFF20FBF7B0
:1047000069FEFF20FBF766FEFF20FBF763FEFF203C
:10471000FBF760FEFF20FBF75DFEFF20FBF75AFE74
:10472000FF20FBF757FEFF20FBF754FEFF20FBF7AF
:1047300051FEFF20FBF74EFEFF20FBF74BFEFF2054
:10474000FBF748FEFF20FBF745FEFF20FBF742FE8C
:10475000FF20FBF73FFEFF20FBF73CFEFF20FBF7AF
:1047600039FEFF20FBF736FEFF20FBF733FEFF206C
:10477000FBF730FEFF20FBF72DFEFF20FBF72AFEA4
:10478000FF20FBF727FEFF20FBF724FEFF20FBF7AF
:1047900021FEFF20FBF71EFEFF20FBF71BFEFF2084
:1047A000FBF718FEFF20FBF715FEFF20FBF712FEBC
:1047B000FF20FBF70FFEFF20FBF70CFEFF20FBF7AF
:1047C00009FEFF20FBF706FEFF20FBF703FEFF209C
:1047D000FBF700FEFF20FBF7FDFDFF20FBF7FAFDD6
:1047E000FF20FBF7F7FDFF20FBF7F4FDFF20FBF7B1
:1047F000F1FDFF20FBF7EEFDFF20FBF7EBFDFF20B7
:10480000FBF7E8FDFF20FBF7E5FDFF20FBF7E2FDEE
:10481000FF20FBF7DFFDFF20FBF7DCFDFF20FBF7B0
:10482000D9FDFF20FBF7D6FDFF20FBF7D3FDFF20CE
:10483000FBF7D0FDFF20FBF7CDFDFF20FBF7CAFD06
:10484000FF20FBF7C7FDFF20FBF7C4FDFF20FBF7B0
:10485000C1FDFF20FBF7BEFDFF20FBF7BBFDFF20E6
:10486000FBF7B8FDFF20FBF7B5FDFF20FBF7B2FD1E
:10487000FF20FBF7AFFDFF20FBF7ACFDFF20FBF7B0
:10488000A9FDFF20FBF7A6FDFF20FBF7A3FDFF20FE
:10489000FBF7A0FDFF20FBF79DFDFF20FBF79AFD36
:1048A000FF20FBF797FDFF20FBF794FDFF20FBF7B0
:1048B00091FDFF20FBF78EFDFF20FBF78BFDFF2016
:1048C000FBF788FDFF20FBF785FDFF20FBF782FD4E
:1048D000FF20FBF77FFDFF20FBF77CFDFF20FBF7B0
:1048E00079FDFF20FBF776FDFF20FBF773FDFF202E
:1048F000FBF770FDFF20FBF76DFDFF20FBF76AFD66
:10490000FF20FBF767FDFF20FBF764FDFF20FBF7AF
:1049100061FDFF20FBF75EFDFF20FBF75BFDFF2045
:10492000FBF758FDFF20FBF755FDFF20FBF752FD7D
:10493000FF20FBF74FFDFF20FBF74CFDFF20FBF7AF
:1049400049FDFF20FBF746FDFF20FBF743FDFF205D
:10495000FBF740FDFF20FBF73DFDFF20FBF73AFD95
:10496000FF20FBF737FDFF20FBF734FDFF20FBF7AF
:1049700031FDFF20FBF72EFDFF20FBF72BFDFF2075
:10498000FBF728FDFF20FBF725FDFF20FBF722FDAD
:10499000FF20FBF71FFDFF20FBF71CFDFF20FBF7AF
:1049A00019FDFF20FBF716FDFF20FBF713FDFF208D
:1049B000FBF710FDFF20FBF70DFDFF20FBF70AFDC5
:1049C000FF20FBF707FDFF20FBF704FDFF20FBF7AF
:1049D00001FDFF20FBF7FEFCFF20FBF7FBFCFF20A7
:1049E000FBF7F8FCFF20FBF7F5FCFF20FBF7F2FCE0
:1049F000FF20FBF7EFFCFF20FBF7ECFCFF20FBF7B1
:104A0000E9FCFF20FBF7E6FCFF20FBF7E3FCFF20BF
:104A1000FBF7E0FCFF20FBF7DDFCFF20FBF7DAFCF7
:104A2000FF20FBF7D7FCFF20FBF7D4FCFF20FBF7B0
:104A3000D1FCFF20FBF7CEFCFF20FBF7CBFCFF20D7
:104A4000FBF7C8FCFF20FBF7C5FCFF20FBF7C2FC0F
:104A5000FF20FBF7BFFCFF20FBF7BCFCFF20FBF7B0
:104A6000B9FCFF20FBF7B6FCFF20FBF7B3FCFF20EF
:104A7000FBF7B0FCFF20FBF7ADFCFF20FBF7AAFC27
:104A8000FF20FBF7A7FCFF20FBF7A4FCFF20FBF7B0
:104A9000A1FCFF20FBF79EFCFF20FBF79BFCFF2007
:104AA000FBF798FCFF20FBF795FCFF20FBF792FC3F
:104AB000FF20FBF78FFCFF20FBF78CFCFF20FBF7B0
:104AC00089FCFF20FBF786FCFF20FBF783FCFF201F
:104AD000FBF780FCFF20FBF77DFCFF20FBF77AFC57
:104AE000FF20FBF777FCFF20FBF774FCFF20FBF7B0
:104AF00071FCFF20FBF76EFCFF20FBF76BFCFF2037
:104B0000FBF768FCFF20FBF765FCFF20FBF762FC6E
:104B1000FF20FBF75FFCFF20FBF75CFCFF20FBF7AF
:104B200059FCFF20FBF756FCFF20FBF753FCFF204E
:104B3000FBF750FCFF20FBF74DFCFF20FBF74AFC86
:104B4000FF20FBF747FCFF20FBF744FCFF20FBF7AF
:104B500041FCFF20FBF73EFCFF20FBF73BFCFF2066
:104B6000FBF738FCFF20FBF735FCFF20FBF732FC9E
:104B7000FF20FBF72FFCFF20FBF72CFCFF20FBF7AF
:104B800029FCFF20FBF726FCFF20FBF723FCFF207E
:104B9000FBF720FCFF20FBF71DFCFF20FBF71AFCB6
:104BA000FF20FBF717FCFF20FBF714FCFF20FBF7AF
:104BB00011FCFF20FBF70EFCFF20FBF70BFCFF2096
:104BC000FBF708FCFF20FBF705FCFF20FBF702FCCE
:104BD000FF20FBF7FFFBFF20FBF7FCFBFF20FBF7B1
:104BE000F9FBFF20FBF7F6FBFF20FBF7F3FBFF20B1
:104BF000FBF7F0FBFF20FBF7EDFBFF20FBF7EAFBE9
:104C0000FF20FBF7E7FBFF20FBF7E4FBFF20FBF7B0
:104C1000E1FBFF20FBF7DEFBFF20FBF7DBFBFF20C8
:104C2000FBF7D8FBFF20FBF7D5FBFF20FBF7D2FB00
:104C3000FF20FBF7CFFBFF20FBF7CCFBFF20FBF7B0
:104C4000C9FBFF20FBF7C6FBFF20FBF7C3FBFF20E0
:104C5000FBF7C0FBFF20FBF7BDFBFF20FBF7BAFB18
:104C6000FF20FBF7B7FBFF20FBF7B4FBFF20FBF7B0
:104C7000B1FBFF20FBF7AEFBFF20FBF7ABFBFF20F8
:104C8000FBF7A8FBFF20FBF7A5FBFF20FBF7A2FB30
:104C9000FF20FBF79FFBFF20FBF79CFBFF20FBF7B0
:104CA00099FBFF20FBF796FBFF20FBF793FBFF2010
:104CB000FBF790FBFF20FBF78DFBFF20FBF78AFB48
:104CC000FF20FBF787FBFF20FBF784FBFF20FBF7B0
:104CD00081FBFF20FBF77EFBFF20FBF77BFBFF2028
:104CE000FBF778FBFF20FBF775FBFF20FBF772FB60
:104CF000FF20FBF76FFBFF20FBF76CFBFF20FBF7B0
:104D000069FBFF20FBF766FBFF20FBF763FBFF203F
:104D1000FBF760FBFF20FBF75DFBFF20FBF75AFB77
:104D2000FF20FBF757FBFF20FBF754FBFF20FBF7AF
:104D300051FBFF20FBF74EFBFF20FBF74BFBFF2057
:104D4000FBF748FBFF20FBF745FBFF20FBF742FB8F
:104D5000FF20FBF73FFBFF20FBF73CFBFF20FBF7AF
:104D600039FBFF20FBF736FBFF20FBF733FBFF206F
:104D7000FBF730FBFF20FBF72DFBFF20FBF72AFBA7
:104D8000FF20FBF727FBFF20FBF724FBFF20FBF7AF
:104D900021FBFF20FBF71EFBFF20FBF71BFBFF2087
:104DA000FBF718FBFF20FBF715FBFF20FBF712FBBF
:104DB000FF20FBF70FFBFF20FBF70CFBFF20FBF7AF
:104DC00009FBFF20FBF706FBFF20FBF703FBFF209F
:104DD000FBF700FBFF20FBF7FDFAFF20FBF7FAFAD9
:104DE000FF20FBF7F7FAFF20FBF7F4FAFF20FBF7B1
:104DF000F1FAFF20FBF7EEFAFF20FBF7EBFAFF20BA
:104E0000FBF7E8FAFF20FBF7E5FAFF20FBF7E2FAF1
:104E1000FF20FBF7DFFAFF20FBF7DCFAFF20FBF7B0
:104E2000D9FAFF20FBF7D6FAFF20FBF7D3FAFF20D1
:104E3000FBF7D0FAFF20FBF7CDFAFF20FBF7CAFA09
:104E4000FF20FBF7C7FAFF20FBF7C4FAFF20FBF7B0
:104E5000C1FAFF20FBF7BEFAFF20FBF7BBFAFF20E9
:104E6000FBF7B8FAFF20FBF7B5FAFF20FBF7B2FA21
:104E7000FF20FBF7AFFAFF20FBF7ACFAFF20FBF7B0
:104E8000A9FAFF20FBF7A6FAFF20FBF7A3FAFF2001
:104E9000FBF7A0FAFF20FBF79DFAFF20FBF79AFA39
:104EA000FF20FBF797FAFF20FBF794FAFF20FBF7B0
:104EB00091FAFF20FBF78EFAFF20FBF78BFAFF2019
:104EC000FBF788FAFF20FBF785FAFF20FBF782FA51
:104ED000FF20FBF77FFAFF20FBF77CFAFF20FBF7B0
:104EE00079FAFF20FBF776FAFF20FBF773FAFF2031
:104EF000FBF770FAFF20FBF76DFAFF20FBF76AFA69
:104F0000FF20FBF767FAFF20FBF764FAFF20FBF7AF
:104F100061FAFF20FBF75EFAFF20FBF75BFAFF2048
:104F2000FBF758FAFF20FBF755FAFF20FBF752FA80
:104F3000FF20FBF74FFAFF20FBF74CFAFF20FBF7AF
:104F400049FAFF20FBF746FAFF20FBF743FAFF2060
:104F5000FBF740FAFF20FBF73DFAFF20FBF73AFA98
:104F6000FF20FBF737FAFF20FBF734FAFF20FBF7AF
:104F700031FAFF20FBF72EFAFF20FBF72BFAFF2078
:104F8000FBF728FAFF20FBF725FAFF20FBF722FAB0
:104F9000FF20FBF71FFAFF20FBF71CFAFF20FBF7AF
:104FA00019FAFF20FBF716FAFF20FBF713FAFF2090
:104FB000FBF710FAFF20FBF70DFAFF20FBF70AFAC8
:104FC000FF20FBF707FAFF20FBF704FAFF20FBF7AF
:104FD00001FAFF20FBF7FEF9FF20FBF7FBF9FF20AA
:104FE000FBF7F8F9FF20FBF7F5F9FF20FBF7F2F9E3
:104FF000FF20FBF7EFF9FF20FBF7ECF9FF20FBF7B1
:10500000E9F9FF20FBF7E6F9FF20FBF7E3F9FF20C2
:10501000FBF7E0F9FF20FBF7DDF9FF20FBF7DAF9FA
:10502000FF20FBF7D7F9FF20FBF7D4F9FF20FBF7B0
:10503000D1F9FF20FBF7CEF9FF20FBF7CBF9FF20DA
:10504000FBF7C8F9FF20FBF7C5F9FF20FBF7C2F912
:10505000FF20FBF7BFF9FF20FBF7BCF9FF20FBF7B0
:10506000B9F9FF20FBF7B6F9FF20FBF7B3F9FF20F2
:10507000FBF7B0F9FF20FBF7ADF9FF20FBF7AAF92A
:10508000FF20FBF7A7F9FF20FBF7A4F9FF20FBF7B0
:10509000A1F9FF20FBF79EF9FF20FBF79BF9FF200A
:1050A000FBF798F9FF20FBF795F9FF20FBF792F942
:1050B000FF20FBF78FF9FF20FBF78CF9FF20FBF7B0
:1050C00089F9FF20FBF786F9FF20FBF783F9FF2022
:1050D000FBF780F9FF20FBF77DF9FF20FBF77AF95A
:1050E000FF20FBF777F9FF20FBF774F9FF20FBF7B0
:1050F00071F9FF20FBF76EF9FF20FBF76BF9FF203A
:10510000FBF768F9FF20FBF765F9FF20FBF762F971
:10511000FF20FBF75FF9FF20FBF75CF9FF20FBF7AF
:1051200059F9FF20FBF756F9FF20FBF753F9FF2051
:10513000FBF750F9FF20FBF74DF9FF20FBF74AF989
:10514000FF20FBF747F9FF20FBF744F9FF20FBF7AF
:1051500041F9FF20FBF73EF9FF20FBF73BF9FF2069
:10516000FBF738F9FF20FBF735F9FF20FBF732F9A1
:10517000FF20FBF72FF9FF20FBF72CF9FF20FBF7AF
:1051800029F9FF20FBF726F9FF20FBF723F9FF2081
:10519000FBF720F9FF20FBF71DF9FF20FBF71AF9B9
:1051A000FF20FBF717F9FF20FBF714F9FF20FBF7AF
:1051B00011F9FF20FBF70EF9FF20FBF70BF9FF2099
:1051C000FBF708F9FF20FBF705F9FF20FBF702F9D1
:1051D000FF20FBF7FFF8FF20FBF7FCF8FF20FBF7B1
:1051E000F9F8FF20FBF7F6F8FF20FBF7F3F8FF20B4
:1051F000FBF7F0F8FF20FBF7EDF8FF20FBF7EAF8EC
:10520000FF20FBF7E7F8FF20FBF7E4F8FF20FBF7B0
:10521000E1F8FF20FBF7DEF8FF20FBF7DBF8FF20CB
:10522000FBF7D8F8FF20FBF7D5F8FF20FBF7D2F803
:10523000FF20FBF7CFF8FF20FBF7CCF8FF20FBF7B0
:10524000C9F8FF20FBF7C6F8FF20FBF7C3F8FF20E3
:10525000FBF7C0F8FF20FBF7BDF8FF20FBF7BAF81B
:10526000FF20FBF7B7F8FF20FBF7B4F8FF20FBF7B0
:10527000B1F8FF20FBF7AEF8FF20FBF7ABF8FF20FB
:10528000FBF7A8F8FF20FBF7A5F8FF20FBF7A2F833
:10529000FF20FBF79FF8FF20FBF79CF8FF20FBF7B0
:1052A00099F8FF20FBF796F8FF20FBF793F8FF2013
:1052B000FBF790F8FF20FBF78DF8FF20FBF78AF84B
:1052C000FF20FBF787F8FF20FBF784F8FF20FBF7B0
:1052D00081F8FF20FBF77EF8FF20FBF77BF8FF202B
:1052E000FBF778F8FF20FBF775F8FF20FBF772F863
:1052F000FF20FBF76FF8FF20FBF76CF8FF20FBF7B0
:1053000069F8FF20FBF766F8FF20FBF763F8FF2042
:10531000FBF760F8FF20FBF75DF8FF20FBF75AF87A
:10532000FF20FBF757F8FF20FBF754F8FF20FBF7AF
:1053300051F8FF20FBF74EF8FF20FBF74BF8FF205A
:10534000FBF748F8FF20FBF745F8FF20FBF742F892
:10535000FF20FBF73FF8FF20FBF73CF8FF20FBF7AF
:1053600039F8FF20FBF736F8FF20FBF733F8FF2072
:10537000FBF730F8FF20FBF72DF8FF20FBF72AF8AA
:10538000FF20FBF727F8FF20FBF724F8FF20FBF7AF
:1053900021F8FF20FBF71EF8FF20FBF71BF8FF208A
:1053A000FBF718F8FF20FBF715F8FF20FBF712F8C2
:1053B000FF20FBF70FF8FF20FBF70CF8FF20FBF7AF
:1053C00009F8FF20FBF706F8FF20FBF703F8FF20A2
:1053D000FBF700F8FF20FAF7FDFFFF20FAF7FAFFCE
:1053E000FF20FAF7F7FFFF20FAF7F4FFFF20FAF7A4
:1053F000F1FFFF20FAF7EEFFFF20FAF7EBFFFF20A7
:10540000FAF7E8FFFF20FAF7E5FFFF20FAF7E2FFDF
:10541000FF20FAF7DFFFFF20FAF7DCFFFF20FAF7A3
:10542000D9FFFF20FAF7D6FFFF20FAF7D3FFFF20BE
:10543000FAF7D0FFFF20FAF7CDFFFF20FAF7CAFFF7
:10544000FF20FAF7C7FFFF20FAF7C4FFFF20FAF7A3
:10545000C1FFFF20FAF7BEFFFF20FAF7BBFFFF20D6
:10546000FAF7B8FFFF20FAF7B5FFFF20FAF7B2FF0F
:10547000FF20FAF7AFFFFF20FAF7ACFFFF20FAF7A3
:10548000A9FFFF20FAF7A6FFFF20FAF7A3FFFF20EE
:10549000FAF7A0FFFF20FAF79DFFFF20FAF79AFF27
:1054A000FF20FAF797FFFF20FAF794FFFF20FAF7A3
:1054B00091FFFF20FAF78EFFFF20FAF78BFFFF2006
:1054C000FAF788FFFF20FAF785FFFF20FAF782FF3F
:1054D000FF20FAF77FFFFF20FAF77CFFFF20FAF7A3
:1054E00079FFFF20FAF776FFFF20FAF773FFFF201E
:1054F000FAF770FFFF20FAF76DFFFF20FAF76AFF57
:10550000FF20FAF767FFFF20FAF764FFFF20FAF7A2
:1055100061FFFF20FAF75EFFFF20FAF75BFFFF2035
:10552000FAF758FFFF20FAF755FFFF20FAF752FF6E
:10553000FF20FAF74FFFFF20FAF74CFFFF20FAF7A2
:1055400049FFFF20FAF746FFFF20FAF743FFFF204D
:10555000FAF740FFFF20FAF73DFFFF20FAF73AFF86
:10556000FF20FAF737FFFF20FAF734FFFF20FAF7A2
:1055700031FFFF20FAF72EFFFF20FAF72BFFFF2065
:10558000FAF728FFFF20FAF725FFFF20FAF722FF9E
:10559000FF20FAF71FFFFF20FAF71CFFFF20FAF7A2
:1055A00019FFFF20FAF716FFFF20FAF713FFFF207D
:1055B000FAF710FFFF20FAF70DFFFF20FAF70AFFB6
:1055C000FF20FAF707FFFF20FAF704FFFF20FAF7A2
:1055D00001FFFF20FAF7FEFEFF20FAF7FBFEFF2097
:1055E000FAF7F8FEFF20FAF7F5FEFF20FAF7F2FED1
:1055F000FF20FAF7EFFEFF20FAF7ECFEFF20FAF7A4
:10560000E9FEFF20FAF7E6FEFF20FAF7E3FEFF20AF
:10561000FAF7E0FEFF20FAF7DDFEFF20FAF7DAFEE8
:10562000FF20FAF7D7FEFF20FAF7D4FEFF20FAF7A3
:10563000D1FEFF20FAF7CEFEFF20FAF7CBFEFF20C7
:10564000FAF7C8FEFF20FAF7C5FEFF20FAF7C2FE00
:10565000FF20FAF7BFFEFF20FAF7BCFEFF20FAF7A3
:10566000B9FEFF20FAF7B6FEFF20FAF7B3FEFF20DF
:10567000FAF7B0FEFF20FAF7ADFEFF20FAF7AAFE18
:10568000FF20FAF7A7FEFF20FAF7A4FEFF20FAF7A3
:10569000A1FEFF20FAF79EFEFF20FAF79BFEFF20F7
:1056A000FAF798FEFF20FAF795FEFF20FAF792FE30
:1056B000FF20FAF78FFEFF20FAF78CFEFF20FAF7A3
:1056C00089FEFF20FAF786FEFF20FAF783FEFF200F
:1056D000FAF780FEFF20FAF77DFEFF20FAF77AFE48
:1056E000FF20FAF777FEFF20FAF774FEFF20FAF7A3
:1056F00071FEFF20FAF76EFEFF20FAF76BFEFF2027
:10570000FAF768FEFF20FAF765FEFF20FAF762FE5F
:10571000FF20FAF75FFEFF20FAF75CFEFF20FAF7A2
:1057200059FEFF20FAF756FEFF20FAF753FEFF203E
:10573000FAF750FEFF20FAF74DFEFF20FAF74AFE77
:10574000FF20FAF747FEFF20FAF744FEFF20FAF7A2
:1057500041FEFF20FAF73EFEFF20FAF73BFEFF2056
:10576000FAF738FEFF20FAF735FEFF20FAF732FE8F
:10577000FF20FAF72FFEFF20FAF72CFEFF20FAF7A2
:1057800029FEFF20FAF726FEFF20FAF723FEFF206E
:10579000FAF720FEFF20FAF71DFEFF20FAF71AFEA7
:1057A000FF20FAF717FEFF20FAF714FEFF20FAF7A2
:1057B00011FEFF20FAF70EFEFF20FAF70BFEFF2086
:1057C000FAF708FEFF20FAF705FEFF20FAF702FEBF
:1057D000FF20FAF7FFFDFF20FAF7FCFDFF20FAF7A4
:1057E000F9FDFF20FAF7F6FDFF20FAF7F3FDFF20A1
:1057F000FAF7F0FDFF20FAF7EDFDFF20FAF7EAFDDA
:10580000FF20FAF7E7FDFF20FAF7E4FDFF20FAF7A3
:10581000E1FDFF20FAF7DEFDFF20FAF7DBFDFF20B8
:10582000FAF7D8FDFF20FAF7D5FDFF20FAF7D2FDF1
:10583000FF20FAF7CFFDFF20FAF7CCFDFF20FAF7A3
:10584000C9FDFF20FAF7C6FDFF20FAF7C3FDFF20D0
:10585000FAF7C0FDFF20FAF7BDFDFF20FAF7BAFD09
:10586000FF20FAF7B7FDFF20FAF7B4FDFF20FAF7A3
:10587000B1FDFF20FAF7AEFDFF20FAF7ABFDFF20E8
:10588000FAF7A8FDFF20FAF7A5FDFF20FAF7A2FD21
:10589000FF20FAF79FFDFF20FAF79CFDFF20FAF7A3
:1058A00099FDFF20FAF796FDFF20FAF793FDFF2000
:1058B000FAF790FDFF20FAF78DFDFF20FAF78AFD39
:1058C000FF20FAF787FDFF20FAF784FDFF20FAF7A3
:1058D00081FDFF20FAF77EFDFF20FAF77BFDFF2018
:1058E000FAF778FDFF20FAF775FDFF20FAF772FD51
:1058F000FF20FAF76FFDFF20FAF76CFDFF20FAF7A3
:1059000069FDFF20FAF766FDFF20FAF763FDFF202F
:10591000FAF760FDFF20FAF75DFDFF20FAF75AFD68
:10592000FF20FAF757FDFF20FAF754FDFF20FAF7A2
:1059300051FDFF20FAF74EFDFF20FAF74BFDFF2047
:10594000FAF748FDFF20FAF745FDFF20FAF742FD80
:10595000FF20FAF73FFDFF20FAF73CFDFF20FAF7A2
:1059600039FDFF20FAF736FDFF20FAF733FDFF205F
:10597000FAF730FDFF20FAF72DFDFF20FAF72AFD98
:10598000FF20FAF727FDFF20FAF724FDFF20FAF7A2
:1059900021FDFF20FAF71EFDFF20FAF71BFDFF2077
:1059A000FAF718FDFF20FAF715FDFF20FAF712FDB0
:1059B000FF20FAF70FFDFF20FAF70CFDFF20FAF7A2
:1059C00009FDFF20FAF706FDFF20FAF703FDFF208F
:1059D000FAF700FDFF20FAF7FDFCFF20FAF7FAFCCA
:1059E000FF20FAF7F7FCFF20FAF7F4FCFF20FAF7A4
:1059F000F1FCFF20FAF7EEFCFF20FAF7EBFCFF20AA
:105A0000FAF7E8FCFF20FAF7E5FCFF20FAF7E2FCE2
:105A1000FF20FAF7DFFCFF20FAF7DCFCFF20FAF7A3
:105A2000D9FCFF20FAF7D6FCFF20FAF7D3FCFF20C1
:105A3000FAF7D0FCFF20FAF7CDFCFF20FAF7CAFCFA
:105A4000FF20FAF7C7FCFF20FAF7C4FCFF20FAF7A3
:105A5000C1FCFF20FAF7BEFCFF20FAF7BBFCFF20D9
:105A6000FAF7B8FCFF20FAF7B5FCFF20FAF7B2FC12
:105A7000FF20FAF7AFFCFF20FAF7ACFCFF20FAF7A3
:105A8000A9FCFF20FAF7A6FCFF20FAF7A3FCFF20F1
:105A9000FAF7A0FCFF20FAF79DFCFF20FAF79AFC2A
:105AA000FF20FAF797FCFF20FAF794FCFF20FAF7A3
:105AB00091FCFF20FAF78EFCFF20FAF78BFCFF2009
:105AC000FAF788FCFF20FAF785FCFF20FAF782FC42
:105AD000FF20FAF77FFCFF20FAF77CFCFF20FAF7A3
