:10000000C01700207D170000815400005117000028
:1000100051170000511700005117000000000000A8
:10002000000000000000000000000000B913000004
:100030005117000000000000651300005117000078
:1000400069140000691400006914000069140000BC
:1000500069140000691400006914000069140000AC
:10006000691400006914000069140000691400009C
:10007000691400006914000069140000691400008C
:10008000691400006914000069140000691400007C
:10009000691400006914000069140000691400006C
:1000A000691400006914000069140000691400005C
:1000B000691400006914000069140000691400004C
:1000C000691400006914000069140000691400003C
:1000D000691400006914000069140000691400002C
:1000E000691400006914000069140000691400001C
:1000F000691400006914000069140000691400000C
:1001000053B94AB9002908BF00281CBF4FF0FF317E
:100110004FF0FF3000F00CB8ADF1080C6DE904CEE3
:1001200000F008F8DDF804E0DDE9022304B07047D0
:10013000704700BF2DE9F04786468C460846089E6A
:10014000154674461946002B40F0C2808542B2FA2B
:1001500082F245D94AB1C2F1200300FA02FC2EFA1C
:1001600003F3954043EA0C0C94404FEA154EA8B2B5
:10017000BCFBFEF8230C0EFB18CC08FB00F943EA8D
:100180000C43994528D9EB1808F1FF3704D299455B
:1001900002D9A8F102072B44A3EB0903A4B2B3FBD5
:1001A000FEFC0EFB1C330CFB00F044EA0344A042AF
:1001B00014D92C190CF1FF3304D2A04202D9ACF1AE
:1001C00002032C44241A43EA07401EB1D440002302
:1001D00034607360BDE8F0874746DDE76346F1E7CA
:1001E00092BB431B01214FEA154EAFB2B3FBFEFC9D
:1001F000200C0EFB1C330CFB07F840EA0343984528
:1002000062D9EB180CF1FF3004D2984502D9ACF159
:1002100002002B44A3EB0803A4B2B3FBFEFC0EFBCD
:100220001C330CFB07F744EA0344A7424ED92C19B0
:100230000CF1FF3304D2A74202D9ACF102032C44E3
:10024000E41B43EA0040C0E7C2F1200320FA03F1B7
:10025000954090402EFA03F303434FEA154EAFB298
:10026000B1FBFEFC0EFB1C10190C0CFB07F841EA5D
:100270000041884504FA02F422D969180CF1FF30D4
:1002800004D2884502D9ACF102002944A1EB08014F
:100290009BB2B1FBFEFC0EFB1C110CFB07F743EA03
:1002A00001439F420ED9EB180CF1FF3104D29F425B
:1002B00002D9ACF102012B44DB1B41EA004192E779
:1002C0006046E3E76146F7E76046A3E76346B7E7C2
:1002D000834206D916B9002108467BE7C6E900E04B
:1002E000F9E7B3FA83F78FB9834201D3724508D88F
:1002F000BEEB020460EB030301209C461EB9002103
:1003000068E73846FAE7C6E9004CF8E7C7F1200C81
:10031000BB4022FA0CF41C432EFA0CF120FA0CF329
:10032000B84001434FEA14490EFA07F5B3FBF9F858
:100330001FFA84FE09FB18300B0C08FB0EFA43EA87
:1003400000439A4502FA07F240D9E31808F1FF305A
:1003500004D29A4502D9A8F102002344A3EB0A0370
:1003600089B2B3FBF9F809FB183308FB0EFE41EA2A
:1003700003418E452CD9611808F1FF3304D28E4514
:1003800002D9A8F10203214443EA0040A0FB0298ED
:10039000A1EB0E014145CE46434602D306D14D4561
:1003A00004D2B9EB020E68EB04030138002EA6D08C
:1003B000B5EB0E0261EB030101FA0CFC22FA07F324
:1003C0004CEA0303F940C6E9003198E74046C5E727
:1003D0004346D9E710B5184B93E803008AB002AA48
:1003E00082E80300D3E90201144B0492012406AA17
:1003F00082E80300CDE908241A7811480594111900
:100400001970104B19785A7004F0D3FE0E4C204628
:1004100005F028FF0D4B0E4A18680E4983680092BC
:1004200001945C6804AA08ABA047014610B10A48D1
:1004300004F0BFFE0AB010BDD0650000B805002072
:10044000F0670000C005002000000020C00300206D
:10045000515B0000E86500000E6800002DE9F04FD8
:100460008DB04A4C204605F042FD002800F08A80FD
:100470002269A168136843F4005313600B68444A6F
:100480000D212046984700287CDB424D42482860D9
:1004900005F02DFD10B9414804F08BFE404B186863
:1004A00005F025FD10B93F4804F083FE3E4B3F4A5E
:1004B00028681A6005F01BFD10B93D4804F079FE6C
:1004C0003C483D4E3D4FDFF8F89004F072FEFFF7D8
:1004D00081FF99F800103B48049604AB0222069372
:1004E0000DF1200A0123CDE90737CDE90AA30592D2
:1004F0000992CB18727889F80030317004F059FEF7
:10050000DFF8C480404605F0ADFE28682F4A8368B6
:100510000092CDF80480D3F804B02D490AAB06AAA6
:10052000D847014600B32B4804F043FEA3681748A0
:100530005B694FF400519847002823DB00214FF4FA
:10054000004004F0D1FA24480AAA514605F08DFE75
:10055000089B002BBDD0214B21485A78197804F014
:1005600028FEFFF737FFB4E703AA02A9404605F0CB
:100570007CFE029B002BF7D07A783978194804F07A
:1005800018FED3E70DB0BDE8F08F00BF5063000048
:1005900001000600C4030020806300002E680000F4
:1005A000100000204C680000C00300209863000089
:1005B0007668000093680000BB050020B9050020A4
:1005C000BD050020B56800001C000020515B000044
:1005D000FC650000CD68000000000020BE05002082
:1005E000FF680000E7680000014B1B68184700BF68
:1005F0002C000020014B1860704700BF2C00002029
:1006000007B50B46002102460091034800F014F99B
:1006100003B05DF804FB00BFE90500002DE9F047D9
:10062000058B04462807904611D4022905F00705DA
:1006300040F0CD80204604F0D3FD78B10138218B05
:10064000042811D8DFE800F0C3106D85950001295A
:100650000CBF45F0100545F02005258388F311886F
:10066000BFF36F8FBDE8F08701F0070AAA4500F0DD
:10067000A6800027B9463E46A368002B00F0BD8047
:1006800041F00801218388F31188BFF36F8FA168BF
:10069000002900F0BB800D68002900F0B780D1F878
:1006A0000480334652462046C047002D76D02B6842
:1006B00029461D46F0E701F007035A1F012A1BD8FF
:1006C000002221F00701062B276889B2C4E9002225
:1006D00009D13B4603E0628B013262831B68002B29
:1006E000F9D141F002012183204604F079FD002870
:1006F0007BD041F0200177E0042B0AD121F00701E3
:1007000089B22183204604F06BFD10B141F0200135
:100710002183218B01F0070AAA4550D00027B94652
:10072000AAE7236921F0070141F00601062DD3F85D
:10073000009021832DD1B9F1000F40D041F0080184
:10074000218388F31188BFF36F8F3A492046C84749
:1007500029E021F00701236941F0040189B2042D49
:10076000D3F804902183E6D000273E464FF0040AD8
:1007700082E721F00701236941F0050189B2052DC7
:10078000D3F808902183D6D000273E464FF0050AC3
:1007900072E700273E464FF0060A6DE72B4687E7D3
:1007A000B9F1000FD1D14FF02003EFF3118883F39B
:1007B0001288BFF36F8F238B23F008032383258BCD
:1007C000EA062ED525F01003238305F00705666998
:1007D000218B002EBFF66FAF00232768C4E90033DA
:1007E00021F0070141F001012183218B01F0070A6B
:1007F000AA454FF000097FF43FAF002F9BD041F096
:100800000801218388F31188BFF36F8F002FC7D0B1
:100810003D68394633465246204604F00DFD2F46CA
:10082000F4E7AB067FF51AAF25F02003238305F02C
:100830000705FFE6655200002DE9F04F814695B0AF
:100840008B4617461C460025387808B9284658E3D9
:100850007B1C2528039306D05946C8470028C0F2C0
:1008600050830135FBE1182200210EA804F02BFE75
:100870007B78252B7DD00023781C98469E469C468D
:100880001E46014610F8012B2B2A00F0A18000F231
:100890009880202A00F09F80232A00F09F802BB1AF
:1008A0009DF8403043F040038DF84030B8F1000F20
:1008B00005D09DF8403043F020038DF84030BEF164
:1008C000000F05D09DF8403043F010038DF8403004
:1008D000BCF1000F05D09DF8403043F008038DF8BF
:1008E00040302EB19DF8403043F004038DF8403085
:1008F0009DF8403003F04400442803D16FF3861381
:100900008DF840309DF840302A2A43F080038DF85E
:1009100040307FD19DF8412042F001024B1C8DF800
:1009200041201A782E2A9DF841200CBF0121002178
:1009300061F341028DF8412078D15A782A2A6ED08D
:10094000013300224FF00A0C194611F8010BA0F1F7
:100950003006092E40F295809DF840101292C1F3A6
:10096000400040EAD2700A4660F341028DF8402010
:100970005CE0BA1C03928DF843309DF84130DA07F1
:1009800040F12E8154F8048BB8F1000F07DA9DF87E
:10099000402042F004028DF84020C8F100085E07B4
:1009A00040F1278154F804ABBAF1000F80F22681A0
:1009B0009DF841306FF341038DF841304FF0FF3A1D
:1009C0001CE12D2A0DD0302A7FF469AF012358E7AE
:1009D0004FF0010C55E74FF0010E52E74FF00108C0
:1009E0004FE701264DE70EFB0262303A03461846F8
:1009F00010F8016BA6F1300CBCF1090FF3D9994244
:100A00008FD09DF840101192D20F62F341018DF802
:100A1000401086E70B4600224FF00A0EE7E79DF8EC
:100A2000412042F004028DF8412002331A786C2AEA
:100A300047D02BD8682A31D06A2A4BD04C2A51D0C3
:100A40001A4612F8013B0392782B9DF841208DF84D
:100A5000433000F2BE806D2B51D8692B00F2B98073
:100A6000572B67D8412B03D0453B022B00F2B180B6
:100A70009DF84230042262F302038DF842300123D4
:100A800073E00CFB0202303A0B465DE7742A25D076
:100A90007A2AD5D19DF8412006210CE05A78682A9F
:100AA0009DF8412006D1012161F3C6028DF8412055
:100AB0000233C5E7022161F3C6028DF841200133FC
:100AC000BEE75A786C2A9DF8412001D10421EBE75A
:100AD0000321F0E79DF841200521ECE79DF8412036
:100AE0000721E8E7BDF8402022F4F04222F002029C
:100AF00042F4804242F00202ADF84020DFE76E3B54
:100B0000D9B201238B4040F282410B4237D113F01E
:100B1000240F51D1D8075CD59DF84230032161F3F1
:100B200002038DF8423002F07803A3F140014B42FA
:100B30004B411AE0A3F15801C9B2012000FA01F1BA
:100B400011F4624F94D140F6010631421DD111F4E7
:100B5000043F3ED09DF8423060F3020302F0780279
:100B6000402A8DF8423034D000239DF84020C2F353
:100B700040010B4363F341028DF84020FDE69DF8F0
:100B80004230022161F30203E8E79DF8421002209F
:100B900002F0780260F30201402A8DF8421002BF91
:100BA0009DF8401041F001018DF84010632BDBD11E
:100BB000131E18BF0123D8E79DF84230032161F3CB
:100BC000020312F0780F8DF8423014BF0123002386
:100BD000CBE79DF8403043F001038DF84030C3E788
:100BE0009DF94020002AB4BFDDF844804FF0FF3863
:100BF000D5E698077FF5E2AEDDF848A09DF84110F4
:100C00000023CDE911339DF8423003F00703012B97
:100C1000C1F3C30133D1CB1E042B04D8DFE803F0AA
:100C2000214646212100236801294FEAE372CDE9DC
:100C30000E321CD19DF93830DA17CDE90E3204346A
:100C40009DF8403013F0030650D0039B3A465946B6
:100C5000484604F0F3FB0028C0F253810544039F8B
:100C6000F2E554F8043BDA17CDE90E32E8E7022941
:100C7000E5D11AB243F3C033CDE90E23DFE7022BEF
:100C800024D1CB1E042B04D8DFE803F01810101871
:100C90001800012954F8043B4FF0000214D0022937
:100CA000CDE90E32CCD19BB20E93C9E7073424F0C4
:100CB0000704F4E80223CDE90E23C1E754F8043B0E
:100CC0000E9300230F93BBE7DBB2CDE7042B08D1D3
:100CD000073424F00704D4E900230834CDE90E23B7
:100CE000AEE7032BACD154F8043BDDE79DF843009D
:100CF0007828B4D862281CD825283FF4ADAD5828F0
:100D0000ADD10DF136030093DDE90E0108AB10AA59
:100D100004F04EFBBAF1000F074680F29A80002FD4
:100D20009DD00DF13603D81B002E00F0C18001309C
:100D3000BEE06338152892D801A252F820F000BF17
:100D4000150E0000270E00005F0C00005F0C000075
:100D50005F0C00005F0C0000270E00005F0C00001D
:100D60005F0C00005F0C00005F0C0000B50E00007F
:100D70004D0E0000730E00005F0C00005F0C0000C1
:100D8000990D00005F0C00004D0E00005F0C00008C
:100D90005F0C00004D0E0000BAF1000F0E9F35DB16
:100DA0005146384604F09BFB07EB000A002F3FF446
:100DB00056AF00269DF8423013F01002059200F065
:100DC000938002305B06119A48BF129B0492104434
:100DD00048BFC018B8F1000F40F3A0809DF8402034
:100DE000A8EB0008C2F380035007069300F1968039
:100DF000510640F189803EB159463046C847002827
:100E00007FDB069B01351E4630227EE0384604F02B
:100E100048FBC9E70E9B8DF82030002608AF0DF186
:100E2000210A0120C6E719075CBFC3F300135E0166
:100E3000DDE90E2348BF2B26002BBFF662AF5242DE
:100E400063EB4303CDE90E232D265AE7002658E72E
:100E500000269DF840200DF13603DB1B6FF3861250
:100E60009A458DF840207FF65AAFAAEB0303119301
:100E700055E70E9890B30DF13603009310AA08AB16
:100E8000002104F095FABDF8423003F0EF0343F47B
:100E9000F04343F01003BAF1000F0746ADF84230BB
:100EA000D6DA00283FF4DBAE0DF13603181A00261F
:100EB0009A467FE70E9B07293FF6D1AEDFE801F0A7
:100EC0000C04060C08080C0C1D70C8E61D80C6E654
:100ED000EA17C3E90052C2E61D60C0E62E4F06467F
:100EE00007F1050A052065E71A0748BF013069E7E1
:100EF0000793104606925946C8470028DDE90623A5
:100F000004DA15B0BDE8F08F2022434619460029C7
:100F100003F1FF33ECDC45446D1A98462EB1594677
:100F20003046C8470028ECDB01359DF84230DA0630
:100F300001D41B0705D559463020C8470028E0DBFF
:100F40000135059B33B19DF843005946C847002839
:100F5000D7DB0135049E2E4405E059463020C847B2
:100F60000028CEDB0135731B002BF6DC53463A46D6
:100F70005946484604F062FA0028C2DB0544A844FA
:100F8000A8EB0503002B7FF76AAE59462020C8471F
:100F90000028B6DB0135F3E72E69000001F074BFCD
:100FA0002DE9F84305464FF02003EFF3118683F354
:100FB0001288BFF36F8F0E4B0E4F1C68DFF838801E
:100FC0004FF00C092CB986F31188BFF36F8FBDE881
:100FD000F883D4E90123002D18BF13462BB198F8EC
:100FE000102009FB02F2B85C98472468EAE700BFCA
:100FF000E0030020D40300207C05002070B5194BCD
:101000001C7CBFF35B8F04F01F0301229A40164B38
:10101000610903EB8103D04353E8001F01EA000597
:1010200043E80056002EF7D1BFF35B8F0A4213D07E
:101030000E4B0F4D8BB10C236343EA18E85C5178DB
:1010400004F062FA0020FFF7ABFF0C235C432A197F
:1010500000232B51C2E9013370BD83F31188BFF324
:101060006F8FEFE77C050020E803002009550000A2
:10107000D40300202DE9F041354B07461D7C4FF08D
:101080002003EFF3118883F31288BFF36F8F0C24D2
:10109000304B314E6C431A19195D00294CD007CAE8
:1010A00006EB040C8CE8070000221A5588F311881F
:1010B000BFF36F8F0C236B43F218F05C002839D01C
:1010C0007B1C10D0D2F808C0244C254A4FF40040B5
:1010D0000021ECFB004100232046FFF711F801211D
:1010E000381A01F07BFE03F045FC0120FFF758FFA2
:1010F000BFF35B8F1B4B6A0903EB820305F01F01F3
:1011000001228A4053E8000F104343E80001002900
:10111000F8D1BFF35B8F144B3BB10C2303FB05F0FD
:101120003318305C597804F0E3F9FFF767FF03F0F8
:1011300035FC0120BDE8F0810146284600F016F894
:101140000028B3D007C8344484E80700AEE700BFE6
:101150007C050020C8030020D40300203F420F007C
:1011600040420F00E8030020F15400002DE9F04F49
:1011700085B00E4603A900F043F81E4B039DD3F83B
:1011800000A0DFF87480431E1BB203EB4303044648
:1011900005EB83054FF400474FF0000B24B9A1463F
:1011A000484605B0BDE8F08F6868144AC446594601
:1011B000E0FB07C100236046FEF7A2FF0190A8688C
:1011C0000E4AC4465946E0FB07C100236046FEF7BD
:1011D00097FFBAF1FF3FA94601D0824505D9731C9C
:1011E000DED0019B1844B042DAD9013CA4B20C3DD8
:1011F000D4E700BF300000203F420F0040420F0004
:1012000008B9024B0B600020704700BF1066000059
:10121000014910220A60704710ED00E072B64040AC
:1012200080F31188BFF36F8FBFF34F8F30BF62B66B
:10123000BFF36F8F704700BF72B6494081F31188CA
:10124000BFF34F8F20BF80F3118862B6704700BF95
:1012500040B2002807DB044A4109012300F01F00C7
:10126000834042F82130704700E100E040B200289E
:101270000CDB4309064900F01F00203301228240A5
:1012800041F82320BFF34F8FBFF36F8F704700BF2C
:1012900000E100E0054B420900F01F0053F8222056
:1012A000012303FA00F01040704700BF00E100E0A6
:1012B00040B20028A8BF00F1604001F10101B8BFB1
:1012C000064B4FEA4111ACBF00F5614000F00F0042
:1012D000C9B2B4BF195480F80013704714ED00E090
:1012E00030BFFFF7FDBF00BF0F4A08B50F4B22F01C
:1012F0007F029A60BFF34F8FBFF36F8FD3F88820C0
:1013000022F47002C3F88820EFF3148323F004035F
:1013100083F31488BFF36F8F02F072FF03F076FC43
:1013200000F020FA02F0B0FF0000000000ED00E045
:10133000094A0A4993680968D967094998674B6857
:1013400043F080534B60002383F31188BFF36F8F0A
:101350009368D86F704700BF7C050020D4670000F9
:1013600000ED00E012498A684FF030001044EFF3BE
:10137000098C80E8F01F202080F31288BFF36F8F64
:101380000C4F4FF000668A698A603E60906F0023C0
:10139000936780F3118804B5104600F029FABDE880
:1013A000044002F1300090E8F01F8CF30988704788
:1013B0007C05002004ED00E01EF0040F0CBFEFF3ED
:1013C0000880EFF30980816911F8021C0229FFD01F
:1013D00001B504F04DF801BD42F8203C009B42F8F5
:1013E0001C3C0A49019B42F8183C029B42F8143C01
:1013F00021F001014FF0807342F8043C42F8081CD0
:101400000023203A02658367704700BFCD5100007A
:10141000094A0346906870B113F1160F806E05D02B
:10142000A0F140029A4205D8834203D2814228BFEC
:1014300000207047002070477C05002008B5094B4C
:101440000D461446986000F0D3F9204685F30988CC
:10145000002163B681F31188BFF36F8F0022002350
:1014600003F0B4FE7C05002001B572B60B4A50694A
:1014700000281EBF0021516104F07AFD62B6EFF32F
:101480000580A0F110004FEAC0000549014409C9D8
:101490009847BDE801400349084700007C0500204B
:1014A000B0630000A9140000044B99689869884251
:1014B00003D003494FF080520A6070477C0500203A
:1014C00004ED00E070B5264B15469A6A12F0100F35
:1014D0009A6A14BF1124102412F0080F9A6A18BFD8
:1014E0001224920706460AD5586B9A6A140634D518
:1014F00019B19A6A22F080029A62132401E06FF017
:101500001500174B9A6A12F0010F9A6A18BF14243B
:1015100012F0200F9A6A18BF1524D20602D49B6AD3
:101520009B070AD50E4B5B68190506D53146FFF7B8
:101530006FFF10B180F309880224094B9A6A920662
:1015400042BF5A6A22F400525A629A6A42F0FF027B
:101550009A6200232B70204670BD6FF01500CCE717
:1015600000ED00E0134B9A6A12F0007F9A6A14BFF4
:101570001E201D2012F0807F9A6A18BF1F2012F4CF
:10158000002F9A6A18BF212012F4802F9A6A18BF80
:10159000222012F4003F9A6A18BF232012F4803FE1
:1015A0009A6A6FEA02426FEA12429A6218BF2420D6
:1015B000704700BF00ED00E010B5194B0246986A75
:1015C0009C6A10F4805F14BF1720162014F4006F7B
:1015D0009C6A18BF1820A40509D5986B986A000466
:1015E00004D51AB19A6A22F400429A6219200C4B6F
:1015F0009A6A12F4806F9A6A18BF1A20D2050CD426
:101600009B6A13F4005F18BF1C20054A936A43F4D9
:101610007F43936200230B7010BD1B20F5E700BFD2
:1016200000ED00E070B5454B5B688AB00546C3F33A
:101630000803002686F31188BFF36F8F02F07F4006
:10164000B0F17F4F11D102F00C0008280DD0100727
:101650004CBF0D4601260022033B8DF80720032BCB
:1016600005D8DFE803F01E5D615A3546F3E7002434
:101670009DF807309BB92022294602A803F018FFE5
:10168000099B002E54D0C3F3080222B96FEA5323FA
:101690006FEA4323099302A9204603F0E7FE0AB04C
:1016A00070BD264BDA6A9107E1D4DA6A002ADEDBE4
:1016B000DA6A5200DBD55A69A96942F480725A612C
:1016C000BFF34F8FBFF36F8F5A6931F8021C22F4BA
:1016D00080725A61BFF34F8FBFF36F8F4DF6027266
:1016E00091420AD09A6AD2B24AB10DF107020121A1
:1016F0002846FFF7E7FE0446BAE72C68B8E79A6A7F
:1017000012F47F4F05D00DF107010120FFF754FFC0
:10171000F1E79B6AB3F5803FA9D3FFF723FFEAE720
:101720000DF107020021E3E70DF107010020EDE7CD
:1017300023F4FF7323F00103ACE700BF00ED00E0EA
:10174000024A536943F010035361704700ED00E013
:10175000EFF30880EFF3098101B57246FFF762FFEE
:1017600001BD00BF044800232021C2180133302BE3
:1017700082F80013F9D1704700E100E0FFF70EFC9A
:10178000202080F3118808484FF40461401880F34A
:101790000988EFF314800221084380F31488BFF313
:1017A0006F8FFFF7A1FD0000000A0020084B9B6827
:1017B00083420BD1EFF3058343B1064B5A6842F0E5
:1017C00080525A605A6A22F400425A6203F0ACB95D
:1017D0007C05002000ED00E0024B034A0348012194
:1017E00000F070B800000420000000201066000027
:1017F000826E054B403A1A60044A4021C3E9011247
:101800001846012100F068B8EC03002000000B1519
:10181000F0B5204E00258D4239DA446874B353B1D7
:1018200004F1FF3C14EA0C0F2FD11F2C2DD90768AF
:101830001CEA070F29D1202C0768D0F808C05FFAEE
:1018400082FE1ED9B4F1004F1DD8013CB4FA84F4D5
:10185000C4F11F046400BEF1070F4CEA040C14D855
:1018600027F01F04144344F01004C6F89820C6F86B
:101870009C404CF00104C6F8A040013201350C3008
:10188000C9E70824E7E73E24E5E76FF015021046B4
:10189000F0BD00BF00ED00E0044B0522C3F894202A
:1018A000BFF34F8FBFF36F8F704700BF00ED00E0B5
:1018B000BFF35F8F024B0022C3F89420704700BF34
:1018C00000ED00E010B5034C01232278FFF7A0FFE4
:1018D000207010BDC205002008B5094A0023127807
:1018E000FFF796FF10F1160F02D0064A072800DD19
:1018F00008BDC2F89800C2F8A0300130F6E700BF7A
:10190000C205002000ED00E014490868082810B561
:1019100021D8FFF7CDFF124C49680022904201F117
:101920000C0105D10F4B1870FFF7B6FF002010BD5A
:10193000C4F8982051F80C3C23F01F03134343F0E4
:101940001003C4F89C3051F8043C43F00103C4F880
:10195000A0300132E2E74FF0FF30E8E71C660000FC
:1019600000ED00E0C2050020014B1860704700BF89
:101970003400002010B54FF02003EFF3118083F303
:101980001288BFF36F8F114A0123C2F840354FF020
:1019900080424FF08051C2F87835D1F83041082CA0
:1019A00008D1D1F83411052904D8094C615C09B17A
:1019B000C2F838364FF080430122C3F8802580F307
:1019C0001188BFF36F8F002010BD00BF00E0014001
:1019D0004A69000020B1034B800143F0010318471E
:1019E000704700BFE0650000084B70B5C31A0D4694
:1019F00007499B10044659430648402203F0A6FDC0
:101A00002B4601462046BDE8704018470C040020D4
:101A1000B76DDBB62063000073B50C4C0C4A402355
:101A2000041B00930D460B460A49A4106143064669
:101A3000094803F0B8FD011E05DA30462B4602B016
:101A4000BDE87040184702B070BD00BF0C04002014
:101A500013560000B76DDBB620630000002270B59E
:101A6000012104461046FFF723FC0F4801F096FBC6
:101A70000E4B984215D104F088F826690C4930467F
:101A800003F0FEFB00280BDB0125356424690849BF
:101A900004F11C0003F0F4FB002801DBE5640020E6
:101AA00070BD6FF00400FBE7E91A00000000AD0B09
:101AB0003C66000070B501460C2309484B43C4182E
:101AC000D4E90E56403300221844A26303F02BFDE4
:101AD0002DB132462B460348BDE87040184770BD13
:101AE0000C0400202063000010B1012804D07047CE
:101AF000034B1B6C5B0701D1FFF7DCBF704700BFD6
:101B00000C04002008B54FF02003EFF3118183F39C
:101B10001288BFF36F8F124A136843F002001060FF
:101B2000DA0708D481F31188BFF36F8F0120BDE875
:101B3000084004F037B84FF08043D3F80C24D3F8B2
:101B40000C34DB07EED5074803F0EDFC81F3118878
:101B5000BFF36F8F0020BDE80840FFF7ABBF00BFA9
:101B60005C0400204C0400207FB500220123CDE955
:101B7000022304ABCDE90433094ACDF800D06B460B
:101B8000CDF804D003F03EFD002805DB4FF4804281
:101B90000023684602F0E2FC07B05DF804FB00BFDA
:101BA0003156000010B54FF02003EFF3118483F39A
:101BB0001288BFF36F8F074A136823F00201DB0717
:101BC000116002D4012004F029F884F31188BFF3D6
:101BD0006F8F10BD5C0400202DE9F0413849BFF340
:101BE0005B8F0746012251E8003F41E800200028B2
:101BF000F9D1BFF35B8F33B9324933484B60CB60C7
:101C00008A6003F050FB7B1E012B2BD8012F07D1DC
:101C10004FF08043D3F81C3403F00303012B21D091
:101C200004F09BF90546F8B9284B1B78E3B14FF057
:101C300080430222C3F808230646DFF894804FF061
:101C40008044D4F81824D4F81834D20316D503F0FD
:101C50000303012B01D0012F10D15DB386F311884E
:101C6000BFF36F8FBDE8F0814FF02003EFF31186D3
:101C700083F31288BFF36F8F0125DEE7ADB13046E5
:101C8000FFF7DAFAD4F81835002BDAD1D4F80421AA
:101C9000002AD6D0C4F80431D4F804310123C4F8A2
:101CA0001835C8F88031A360CBE70021212002F06D
:101CB0001BFFE7E74FF080430222C3F80423D1E77C
:101CC00008040020F803002028040020DD0900207B
:101CD00000E100E008B5074804F009F938B106480A
:101CE000FFF742FE0448FEF785FC002008BD6FF0B8
:101CF0001200FBE768630000FD1C00000A2838B5ED
:101D0000074D044604D1AB680D215B68284698470F
:101D1000AB6803485B68E1B29847204638BD00BF16
:101D20006863000030B54068057B01F01F04B2F520
:101D3000001F85B044EA451405D1204601F0ACFCF3
:101D4000002005B030BD0025B2F5800FCDE9025569
:101D500014D1B3F1007F0CBF042305238DF80830A4
:101D60000023194602AA204601F0DEFA234B9842CE
:101D70003DD10121204601F049FCE1E7B3F1C06FFC
:101D800027D0B3F1007F14BF012302238DF8083060
:101D9000836823FA01F111F00101E1D1B2F1A07FD2
:101DA000DED104F01F03620903F5E07313D0012AAA
:101DB00020D1134A52F82330DB07D1D40DF10705A7
:101DC0002946204601F0D2FB0E4B984206D00395DF
:101DD000C6E70323DAE74FF0A042EBE7284601F01D
:101DE0000FFC064B9842F2D06FF00B00A9E76FF0A2
:101DF0001500A6E751F82330FFDE00BF0000AD0B51
:101E0000000300500400AD0B10B501F0E9FB0446DF
:101E100068B901F0BDFB084B98420AD1074821463A
:101E200001F09EFB224605210620FFF741FA002023
:101E300010BD6FF00400FBE70000AD0B411E000079
:101E4000420970B5034602D0012A17D070BD0D4E6D
:101E5000326951680029F9D003F01F0301250C688D
:101E60009D400029F2D08A682A4002D04B68304653
:101E700098472CB1236821461C46F2E7024EE7E75B
:101E80002346F8E750630000386300002DE9FF4166
:101E900047683B7B01F01F0545EA43150E4628467F
:101EA0000DF10301144601F061FB14F4403F80463C
:101EB0000BD1284601F012FC3D4B984503D19DF80B
:101EC000030001F097FB00200CE00023194602AA52
:101ED0002846CDE9023301F027FA354B984204D069
:101EE0006FF0150004B0BDE8F081804503D19DF886
:101EF000030001F07FFBA3034BD540F206332340E0
:101F0000B3F5837F19D00CD8062B17D004D8ABB10A
:101F1000022BE5D1042311E0B3F5807FE0D101234A
:101F20000CE040F20222934227D0B3F5407F26D046
:101F3000B3F5007FD4D1022300E007238DF80430ED
:101F400084F48033C3F30043E0068DF8053054BFBA
:101F5000C4F34013032321038DF8063011D57A68AA
:101F60000123B340C2F80835002201A9284601F038
:101F700087FA0F4B9842A6D0B2E70523DEE703238A
:101F8000DCE7620341BF01237A68B340C2F80C3535
:101F9000EAE7E3064FF0000354BFC4F34014032400
:101FA0001A4601A928468DF8044001F0BDF9E0E782
:101FB0000000AD0B036803F01F025B09026004D050
:101FC000012B034818BF002070474FF0A040704716
:101FD000000300502DE9F04FDFF8709185B01546F1
:101FE000824600EB81014FF00108514503D10020EA
:101FF00005B0BDE8F08FDAF8003003F07F04C3F3DA
:1020000043277F2C4FEA134308BF4FF0FF34222BA6
:1020100000F29980DFE803F012431F222736223AAC
:10202000223D434670979797979797979797737C1A
:102030007F8297979785888B8E919400C5F80C4581
:1020400003A80394FFF7B6FF039B08FA03F3C0F855
:102050000835012613E0C5F80845F1E7C5F8104535
:102060000026B34625E0C5F80845002603A80394DA
:10207000FFF7A0FF039B08FA03F3C0F80C354FF0FD
:10208000010B16E0C5F80C450126EFE7C5F8084539
:10209000E6E7C5F80C4501264FF0000B09E0C5F84E
:1020A0001445DDE7C5F80845002FD9D10026B34611
:1020B00006275AF8043B019303F40052002A03A8B0
:1020C0001CBF01264FF0000B0394FFF773FF039A28
:1020D000019B00EB8200C3F3C114D0F800273B0240
:1020E00043EA840343EA0B0302EA0902134343EA87
:1020F0004603C0F8003778E7C5F80C45D4E7C5F8C3
:102100006045DAF80030C3F38033002BBCD097E78A
:10211000C5F86445F5E7C5F86845F2E7C5F86C45CC
:10212000EFE7C5F82445B6E7C5F8284588E7C5F8C0
:102130003045B0E7C5F83445ADE7C5F83845AAE7FE
:10214000C5F83C45A7E76FF0850051E7F0F8FCFFC4
:10215000F0B54B79012B26D0032B21D110258B799B
:10216000032B1DD1CE790EB1012E19D10A7912B1EE
:10217000022A15D10E220B684468B3F5164F276862
:1021800067D02DD8B3F5165F66D016D8B3F5966F25
:1021900064D00AD8B3F5967F63D0B3F5167F63D0C9
:1021A0006FF0850054E00025D9E7B3F5166F5ED0D7
:1021B000B3F5965FF4D1384B3CE0B3F5E14F59D01D
:1021C00007D8B3F5615F57D0B3F5964FE8D1334BDD
:1021D00030E047F61224A342E2D14FF4000329E095
:1021E000B3F5613F4AD013D8B3F5963F49D009D82B
:1021F0004DF6C024A34246D0B3F5614FD0D14FF481
:102200006B0317E0B3F5E13FCAD14FF0EB7311E078
:10221000B3F5612F3AD008D8214CA34239D0B3F599
:10222000E12FBDD14FF0E86304E01E4CA342B7D1CB
:102230004FF080530469C7F82435436835431B6861
:102240002A43C3F86C2503C9231D83E8030000203B
:10225000F0BD4FF41D03EDE7134BEBE74FF49E2366
:10226000E8E74FF4A033E5E74FF41C33E2E74FF41F
:102270001D23DFE70D4BDDE70D4BDBE74FF06C7304
:10228000D8E70C4BD6E74FF46503D3E74FF0706304
:10229000D0E74FF08063CDE700B0130000A04E0000
:1022A00090D0030040420F000050270000C075008E
:1022B00000F03A0000903A012DE9F74380460022F1
:1022C00001210220FEF7F4FF0220FEF7C1FFD8F83B
:1022D0000470D8F810603C680021C4F80015C6F8F6
:1022E0000080D7F80C9001AA484603F0F9F9051EC2
:1022F0004CDB019BD9F8002019791868FFF76AFEBA
:10230000051E43DB311D4046FFF722FF054600282E
:102310003CD17B68990712D506F1180001F0E6FA66
:102320001E4B984236D1307E04F10C0204F59071B8
:1023300003F021FC337E0120984000F0C7FE082303
:10234000C4F800353B7A53B9C4F81031D4F81031D1
:102350007369C4F834350123C4F8383523607B68C9
:102360009A075CBF4FF48073C4F804337B68DB06C4
:1023700044BF4FF48003C4F804333369C4F84435D0
:102380000023C4F848350123A360E360284603B066
:10239000BDE8F0836FF00405F8E700BF0000AD0B67
:1023A000F8B5044607690D4603F0D7FDB0B92E4BCA
:1023B0001B789BB16426606803F0C8F900BB01205C
:1023C00003F0D7FB013EF6D10021212002F08CFB67
:1023D000F0E786F31188BFF36F8FF5E74FF0200326
:1023E000EFF3118683F31288BFF36F8F6068314675
:1023F00003F0ACF990B986F31188BFF36F8FEDE766
:102400004FF02003EFF3118683F31288BFF36F8F31
:102410006068314603F09AF90028DAD03B691D70F4
:10242000626838691368C3F844050120C3F8480599
:102430000020C3F82001D3F82051C3F85801526896
:10244000D3F85801D20608D5626812680820C2F88D
:1024500000054FF48002C3F8042301229A6081F33F
:102460001188BFF36F8FF8BDDD090020F0B5046956
:102470004768666EE36E85B005463EB96BBB19468C
:10248000284605B0BDE8F04003F055BA216E03BB05
:1024900031BB3A8F236E0091B24228BF3246A26709
:1024A0001BB1636E002B18BF13460193A36E0293FA
:1024B0001BB1E36E002B18BF134600226946384655
:1024C000039301F04DFC0F4B984219D06FF00401BB
:1024D000D6E79E4228BF1E46DAE7216E1E46D8E7A1
:1024E00001F06043B3F1005FD3D0082E28BF082667
:1024F000D4F88000324602F0DBFFD4F88010C8E741
:1025000005B0F0BD0000AD0B2DE9F04F8FB098463F
:10251000436802938B8804690E46990407469146E6
:1025200000F1BD804FF0FF334FF0FF3204F1100097
:1025300002F014F89DF8603084F84C30199B636405
:102540001A9B6660A364D7F804B0D7F810A0DBF834
:10255000083003939AF87D3000931BB1DAF800300D
:102560009E424DD0B6F804E01EF4006F40F0B080FB
:102570001EF0090F40F0A980CEF34513082B40F060
:10258000A48033680193019A884B9A4240F29D805F
:102590000BF10C0CBCE80F0004AD0FC5BCE80F003C
:1025A0000FC59CE80300039B019A934294BF0993D3
:1025B00009921EF0020F85E803000EF0040377D0A5
:1025C000002B14BF032302238DF82830009BCEF389
:1025D000001E8DF829E02BB1584601F06BFB00235B
:1025E0008AF87D305346724A04A9584601F030FB00
:1025F000704B984260D101238AF87D30CAF80060A0
:10260000012384F87C30B9F1000F64D1C4F85090F4
:102610000023636504F1640204F1540104F15000E5
:1026200003F0E2F82066B8F1000F5CD1C4F85880DE
:102630000023E36504F16C0204F15C0104F158002D
:1026400003F0D2F8A066206800232364236748B112
:1026500083683BB10121083003F0D9F82368186979
:1026600003F094FD3846FFF701FF94F84C302068E2
:10267000002B40D0858815F0010505D0256F15F198
:10268000740F63D0002D19DB23689B889B0402D450
:1026900094F84C3093B128460FB0BDE8F08FA36991
:1026A000002B7FF43FAF63689E427FF43BAF4AE765
:1026B000003B18BF012387E76FF004050023636028
:1026C00004F1100001F024FFE5E76FF01505F5E7D0
:1026D0006FF08505F2E7D9F800302365002B97D01D
:1026E000D9F8043095E7D8F80030A365002B9FD0C7
:1026F000D8F804309DE7828812F0010247D1656D59
:102700001346AB4235D10023E66D1946B14237D1AD
:10271000934238BF13464FF4FA5202FB03F54FF4CD
:1027200000460368B5FBF3F540F2E730C8350021F9
:102730004FF47A720023E5FB0601FDF7E1FC024647
:102740000B4604F1280001F009FF20B30025029890
:10275000A56701F0AFFA84F87D506FF07301384639
:1027600003F0E9F804F1280001F020FF6FF0730591
:10277000A4E7216D01EBC301013349680A44C0E7B6
:10278000A56D05EBC10501316D682B44BEE74FF027
:10279000FF321346D5E72368256C9B88DA077FF55F
:1027A0006EAF002D7FF46BAF68E700BF47E8010014
:1027B000A15900000000AD0B73B544680569E66AD5
:1027C00001AA0021304602F08BFF002815DB019B97
:1027D000326819791868FFF7FDFB00280DDB2B46DE
:1027E000084A04F10801204601F0E6FB064B984236
:1027F00005D1284603F040F9002002B070BD6FF00B
:102800000F00FAE7155B00000000AD0B2DE9F34166
:102810001F468B8805699B0406468846144623D4C8
:102820004FF0FF334FF0FF3205F1100001F096FE3C
:102830009DF8203085F84C30099B6B640A9BC5F8E5
:102840000480AB64326971681368984535D0B8F874
:10285000043018050FD56FF0850400236B6005F177
:10286000100001F055FE85E0AB69002BD8D16B68F4
:102870009942D5D1E6E7D80740F1D280180700F198
:10288000CF80C3F34513082B40F0CA80D8F8083036
:10289000002B40F0C580C2F80080B8F80420096819
:1028A000130912F0020F03F0010302F0040216D024
:1028B000D2B143F00603C1F85435C4B997B37B686D
:1028C000012BC8D8224670683B68018DD6F810806D
:1028D0009142D3E900735DD38B425BD827E0002A95
:1028E000E9D043F00203E6E743F00403E3E763685B
:1028F000012BB0D86FB17B68012BACD82368D3E92A
:102900000042002ADFD004F06043B3F1005FDAD068
:10291000A1E72368D3E9004282BBD6F81080706833
:102920003B4604E0D6F8108070683B463A46009378
:1029300021463B4601F07AFB3C4B984205D06FF0B4
:1029400004023146404603F0C3F8286895F84C303D
:10295000848804F0010403B31CB12C6F002CFFF633
:102960007CAF2B689B889B0404D495F84C30002BDB
:102970003FF473AF204602B0BDE8F08104F060433D
:10298000B3F1005F7FF467AF7068D6F81080038DF5
:102990009A42C5D96FF01502D3E7002C3CD1696D7E
:1029A00023468B422AD10023EE6D1A46B2422CD127
:1029B000A34238BF23464FF4FA5202FB03F44FF40C
:1029C00000460368B4FBF3F440F2E730C83400215A
:1029D0004FF47A720023E4FB0601FDF791FB0246F7
:1029E0000B4605F1280001F0B9FDE0B92B682C6C0D
:1029F0009B88DA07B2D5002CB0D1AEE72A6D02EB86
:102A0000C302013352681444CBE7A96D01EBC20144
:102A1000013249680B44C9E74FF0FF321346E0E743
:102A20006FF0150419E76FF0730416E70000AD0BA3
:102A300070B5012383400E4ABFF35B8FDC4352E83D
:102A4000001F01EA040542E80056002EF7D1BFF34B
:102A50005B8F4FF4803282400648C0F80823BFF3F2
:102A60005F8FBFF36F8F0B4214BF0120002070BD3A
:102A70007C0400200010014070B40E49D1E90034FC
:102A8000D01AC31844F1000422F07F46C1E9003493
:102A9000A6F50013B3F5400F09D2074B1B681A0ABD
:102AA0001B069C19054B42F10005C3E9004570BCAB
:102AB00002F082B9F001002080040020F80100201B
:102AC00011B3BFF35B8F0123104A834052E800CF5C
:102AD0004CEA030C42E800C10029F7D1BFF35B8F39
:102AE0000B4A4FF480338340C2F80433094BBFF3E1
:102AF0005B8F1B68BFF35B8FC340DB0742BF064B96
:102B00004FF40032C3F80021704700BF7C0400205E
:102B1000001001407804002000E100E00D4B18682F
:102B2000010A0006BFF35F8F0B4BD3F8043518186A
:102B300041F10001B3F5801F0AD2084BD3E900230D
:102B4000904271EB030303D210F1807041F1000158
:102B5000704700BF8004002000100140F8010020F1
:102B60002DE9F74F16461F460446FFF761FF009018
:102B7000FFF7D4FFB04271EB070351D23A4B301A42
:102B800067EB0101984271F100016AD2374B03EB08
:102B90000413D3E902239F4208BF96424ED0344922
:102BA0004FF4803904F1500509FA04F9AD00C1F879
:102BB00048932046ADB202F0CFFF26F07F4B05F1DF
:102BC000804504F5A8732B4A019305F58835DC464A
:102BD0004FF0030A019B2CF07F4041F82300C1F81D
:102BE0004493D1F804856FF00200A0EB0800604424
:102BF00020F07F40904221D9286860B1D1F8048547
:102C0000A8EB0B0020F07F40B0F5000F16D920464E
:102C100002F0A2FF174A0AEB080C0AF1010AD9E7F1
:102C20000123154ABFF35B8FA34052E8000F1843FE
:102C300042E800010029F8D1BFF35B8F0B490C98E3
:102C4000230101EB0412C2E90267C8500D9B5360D7
:102C5000002520460099FFF733FF284603B0BDE862
:102C6000F08F6FF01505F4E701008000E00100200F
:102C700000100140FDFF7F007804002073B51B4C5D
:102C80001B4BC4F80833C4F848331A4B00254FF0E7
:102C9000FF304FF0FF31C4F80855C3E902014FF48B
:102CA0008033C4F80433144B02264FF40032012160
:102CB000C4F804631120C3F880212A46FEF7F8FA0D
:102CC0001120FEF7C5FA0D4A0123A36023601360AB
:102CD0000B4B0C4A0093019500232846FFF740FF59
:102CE0003046FEF779FF284602B070BD0010014063
:102CF00003000F00E001002000E100E07C04002060
:102D0000792A0000FFFF7F002DE9F7432F4CD4F80C
:102D1000043399070BD5D4F8043143B12C4A00236E
:102D2000C4F80431D4F80431136801331360D4F8C3
:102D30000433DA032AD5BFF35B8F264B53E8002F09
:102D400022F0010143E800100028F7D1BFF35B8FA8
:102D5000D30702D4D4F84031C3B10025C4F84051A0
:102D6000D4F84031FFF7DAFE4FF02003EFF3118281
:102D700083F31288BFF36F8F174BD3E90267B0421A
:102D8000B94106D282F31188BFF36F8F03B0BDE85B
:102D9000F0834FF0FF384FF0FF39C3E90289D3E9E0
:102DA00000101D604FF48033C4F84833C4F840511C
:102DB000D4F8403182F31188BFF36F8F0029E5D03A
:102DC000009032463B4628468847DFE70010014026
:102DD0008004002078040020E0010020431C13B58B
:102DE00022D0012822DD124A124B9042D4BF044661
:102DF0001C46FFF793FE104B0E49D3E90023801ABF
:102E0000B0F5000F28BF002404448C4228BF0C46B4
:102E1000A2180A4900914FF00000019043F100030D
:102E2000FFF79EFE02B010BD024CE2E70124E0E78E
:102E3000FEFF7F00FFFF7F00F0010020792A0000E5
:102E400008B5FFF76BFE024B1B68C01A08BD00BF38
:102E5000F00100204FF08053D3F83021082A06D12A
:102E6000D3F83431052B02D8024AD05C70470020D9
:102E7000704700BFE7690000024AD2F80034002B17
:102E8000FBD0704700E0014010B54FF08053D3F8FD
:102E90003021082A4ED14FF080420021C2F80C1197
:102EA000C2F81011C2F8381502F54042D3F80414E4
:102EB000C2F82015D3F80814C2F82415D3F80C145E
:102EC000C2F82815D3F81014C2F82C15D3F814142E
:102ED000C2F83015D3F81814C2F83415D3F81C14FE
:102EE000C2F84015D3F82014C2F84415D3F82414BE
:102EF000C2F84815D3F82814C2F84C15D3F82C148E
:102F0000C2F85015D3F83014C2F85415D3F834145D
:102F1000C2F86015D3F83814C2F86415D3F83C141D
:102F2000C2F86815D3F84014C2F86C15D3F84434CD
:102F3000C2F87035FFF78EFF18B13A4B3A4AC3F822
:102F40008C26FFF787FF18B1384BFB22C3F81825F2
:102F5000FFF780FF70B14FF080414FF08053D1F800
:102F6000E42ED3F8583222F00F0203F00F0313437C
:102F7000C1F8E43EFFF76EFF20B12D4B4FF4007215
:102F8000C3F840264FF08053D3F83031082B1AD1C4
:102F90004FF08043D3F80024D20744BF6FF0010202
:102FA000C3F800244FF08053D3F83431052B02D8F6
:102FB000204AD35C3BB14FF01023D3F808224FF0E6
:102FC0008043C3F858254FF01023D3F80022002A7D
:102FD00003DBD3F80432002B22DA174901234FF028
:102FE0001020C1F804351224FFF746FFC0F8004254
:102FF000FFF742FFC0F80442FFF73EFF0023C1F88D
:103000000435FFF739FFBFF34F8F0C490C4BCA68EB
:1030100002F4E0621343CB60BFF34F8F00BFFDE7C4
:1030200010BD00BF005000404881030000F0004088
:1030300000900240E169000000E0014000ED00E086
:103040000400FA0530B50468CCB1BFF35B8FB4FA65
:1030500084F3C3F11F03DBB201229A4024EA020287
:1030600050E8005FA54204D140E8002CBCF1000FFD
:10307000F6D1BFF35B8FE6D102480B7030BD02483A
:10308000FCE700BF0000AD0B0200AD0B10B50368FC
:10309000CB40DB0714D401238B400268BFF35B8F66
:1030A00043EA020150E8004F944204D140E8001C7A
:1030B000BCF1000FF6D1BFF35B8FEED1014810BD1C
:1030C0000148FCE70000AD0B0400AD0B014BC3F859
:1030D0000405704700F00140F7B5044618B1012817
:1030E00023D003B0F0BD4FF080430222C3F8082381
:1030F000C3F80401D3F804210122DA600646012353
:103100008DF8073042F210754FF08047D4B1012C92
:10311000E7D1D7F80C3403F48033AEBB83B301207E
:1031200002F027FD013DF4D12AE04FF08043002258
:10313000C3F80803C3F80021D3F8002158600DF14B
:103140000706DCE7D7F8183403F480333EB9002BC8
:10315000C7D0012002F00DFD013DF3D1C1E7D7F842
:10316000182402F003023260002BBAD09DF8070049
:10317000012803D102F0FDFC013DC7D1012CB0D1E3
:10318000054B00225A71ACE7D7F80C2402F001027B
:103190003270002BEAD1F3E784040020044B1A7943
:1031A00022B9012218609A8002487047024870478D
:1031B000840400200000AD0B0C00AD0B10B54FF0E7
:1031C0008043D3F800216AB10022C3F80021D3F86C
:1031D00000210122C3F80823114B587910B95A7104
:1031E0001B6898474FF08043D3F8042172B1002246
:1031F000C3F80421D3F80421D3F81824D3F81824F1
:10320000920704D10122C3F818259A6010BD02224A
:10321000C3F80823024BBDE810401B680120184783
:1032200084040020036803F01F025B09026004D0DD
:10323000012B034818BF002070474FF0A040704793
:103240000003005070B500F108030C4C34F8133043
:10325000DA0505460E4607D5C3F3432304EBC30244
:1032600054F8333052689847A3682BB1E26831466E
:103270002846BDE87040184770BD00BF4C010020D3
:1032800010B4124A083032F81030D9051BD5C3F3F8
:10329000432123F4F85322F8103002F10E040020E9
:1032A00034F8023F13F4807F03D0C3F343239942E1
:1032B00009D001303028F3D1002342F831300448DE
:1032C00010BCFFF7E3BE10BC704700BF4C010020EC
:1032D000C0010020F0B50146104A114C0020012524
:1032E000064602F14043A3F5C2439B0805FA03F3E7
:1032F000194204D0176817B11660176818430432D2
:10330000A242EED1074BD3F87C2132B10022C3F8A0
:103310007C21D3F87C3140F00040F0BD00610040DA
:1033200020610040006000402DE9FF411D46044639
:1033300016460B46E9B14D4F00F1080837F8182042
:1033400002F02202222A20D00022CDE900228DF8AC
:103350000E208DF80F200DF10E010DF10F0202F07D
:103360005FFC37F8183023F0020343F0010327F81D
:10337000183046B33D4B96F800C0726804F1080758
:1033800033F81710880702D5AAB139481DE021F09B
:103390002001C904C90C23F8171062B1BCF1030F56
:1033A000F3D872681678BCF1000F11D1314A06F5D6
:1033B000A27642F826C033F8172022F01C0242EA17
:1033C0008C0223F8172045BB2B4804B0BDE8F081E0
:1033D000B20002F1804202F5C04241EA4631D2F821
:1033E000100520F00300C2F81005D2F8100520F4F3
:1033F0004F3020F44070C2F810052002D2F810E5DA
:1034000000F47C5040EA0C4040EA0E0041F02001FC
:1034100023F81710C2F81005CDE7D5E9006720465C
:10342000FFF72EFF002ECFD0104DD5E90023964296
:1034300001D19F4218D011480DF10F01FFF702FE94
:103440000D4B9842C1D19DF80F2045F8326005EB35
:10345000C20308345F6035F8143043EA422343F472
:10346000807325F81430AFE70022EEE74C0100200E
:103470000400AD0B006000400000AD0BC001002057
:10348000F0B5044685B0154609B300F10807314E82
:1034900036F81730980701D49A0658D413F01C0F49
:1034A00002D04B78012B52D001238DF80F3000232E
:1034B000CDE900134A1C8B1C20460DF10F0102F0D0
:1034C000AFFB36F8173043F0030326F8173015B971
:1034D000214805B0F0BD1F4E04F1080736F817006B
:1034E000830734D595F800C06146890020F020009C
:1034F00001F18041C00401F5C041C00C26F817005D
:103500000023C1F810356A78002AE1D0D1F81035CF
:10351000AD7823F4991323F4F853C1F81035D1F89A
:1035200010E5230203F47C53120443EA0E0302F471
:1035300040322D05134305F4801540EA4C302B43EF
:1035400040F0200026F81700C1F81035C0E7034806
:10355000BFE700BF4C0100200000AD0B0400AD0B25
:10356000014BC3E9020170474C0100200830054BB4
:1035700033F810309A0643BF5B0B03480B700348C7
:10358000704700BF4C0100200000AD0B0400AD0BE4
:1035900070B50F4C94F87860BEB90E4D602231467C
:1035A00004F1100001F08FFFC5F87C610620D5F80A
:1035B0007C31FDF74DFE4FF00043C5F8043306485B
:1035C000012384F87830636770BD0448FCE700BFCE
:1035D0004C010020006000400000AD0B0500AD0B69
:1035E000034B93F87800003818BF0120704700BFE4
:1035F0004C01002001460148FFF748BDBC010020F6
:1036000001460148FFF71EBDBC01002037B5204B25
:1036100000F10802044633F812309A061DD513F063
:1036200002051AD15B0B9A0002F1804000F5C240FE
:1036300002F1804202F5C04205600068D2F8100530
:1036400040F00100C2F8100529B1012202FA03F38B
:10365000104AC2F8043303B030BDC3F38203042B15
:1036600012D0052B12D001A80194FFF7DBFD019BBE
:10367000D0F81015D94001F001010231204603B005
:10368000BDE8304002F015BB0321F7E70221F5E762
:103690004C010020006000400E4B00F1080233F89E
:1036A0001230990613D59A0711D45B0B01229A4068
:1036B0009B00094903F1804303F5C043C1F8082387
:1036C000D3F8102522F00302C3F81025704700211B
:1036D00002F0EFBA4C0100200060004073B5174DB6
:1036E00000F10806044635F81630D90724D5FFF74F
:1036F000D3FF35F816309A0606D55B0B104A03F552
:10370000A273002142F823102046FFF7B9FD0023E1
:1037100001A825F816300194FFF784FD019B00EB0A
:103720008300084BD0F80027134043F00203C0F891
:103730000037054802B070BD0448FBE74C0100208B
:1037400000600040F0F8FCFF0000AD0B0400AD0B82
:103750002DE9F04F624BD3F80403C0B287B040F0BC
:103760000040FFF7B7FD051E80F29C804FF0A0439C
:10377000DFF87081D3F820250492C3F82025D8F80B
:1037800020350593C8F820354FF000090DF1100AD7
:103790004FEA491300934FF0010B49E0009B524A56
:1037A00094FAA4F4B4FA84F41C44E00804F1080385
:1037B000039432F813701AF8003004F007020BFA81
:1037C00002F223EA02030AF8003003A8FFF72AFDF9
:1037D000039B03F5E073B90850F82330C7F3820662
:1037E0004A073746C3F301432CD520463946DEB29B
:1037F000FFF728FD03A80394FFF714FD039B03F5CF
:10380000E07350F82330C3F301439E4207D10021F7
:10381000204602F04EFA3146204602F04AFA03A84A
:103820000394FFF7FFFC039B0BFA03F3C0F820356A
:103830005AF82940002CB1D1B9F1000F1DD14FF039
:103840000109A5E7022B0CD10321204602F031FA31
:1038500006F00503012BE2D139462046FFF7F2FCC2
:10386000DDE702212046019302F023FA032EF3D074
:10387000019B032BD3D1022EEDE74FF00040FFF761
:1038800029FD4FF0A042D2F820350493C2F820352C
:10389000D8F8202505921343C8F820257FF474AF8B
:1038A00025F00045012415B907B0BDE8F08F95FA61
:1038B000A5F3B3FA83F304FA03F29B0003F1804308
:1038C00003F5C04325EA0205D3F81005D3F8101517
:1038D000C0F30520C1F30141FFF7B4FCE3E700BFEB
:1038E00000600040000300504C01002001460148E8
:1038F000FFF7A8BBC8010020036803F01F025B09A3
:10390000026004D0012B034818BF002070474FF01D
:10391000A0407047000300500F4B984219D00DD8BB
:103920000E4B984215D007D80D4B984211D00D4B35
:10393000C31A5842584170470B4BF9E70B4B98425A
:1039400007D004D80A4B984203D00A4BF0E70A4B41
:10395000EEE70120704700BF80841E0020A1070011
:1039600048E8010090D0030040420F000024F4001A
:1039700000093D0000127A000048E80173B51646C0
:10398000421C1C460546069B18D0012902D1BBB13A
:1039900002F0F1F901A80195FFF7AEFF019B00EBE2
:1039A00083002402D0F80027074B44EA86040C4326
:1039B00013401C4344EA4101C0F8001702B070BD37
:1039C00002F0E6F9E6E700BFF0F8FCFF2DE9F04F62
:1039D0008A4B4D6990F804A09D4287B006460C467C
:1039E00000F0E58000F2D580854B9D4200F0E2803A
:1039F00000F2C780834B9D4200F0DF80824B9D42E6
:103A00000CBF4FF080654FF08045804F94F8230045
:103A1000242202FB0A73997F60F3000199773379BE
:103A2000217C02FB0373D97794F82380B8F1000F4F
:103A300034D16269764B9A420CBF4FF003094FF0C4
:103A40000009237E012B94BF0023012300932068EB
:103A50004B4642460121FFF791FFCDF80080606898
:103A60004B4642460121FFF789FFCDF80080A27E38
:103A7000A0684B464146FFF781FF237C83F001039A
:103A80000093E0684B4642460121FFF777FF012192
:103A90000091E0694B464246FFF770FF94F82130F1
:103AA0002422002B00F0928002FB0A724FF0FF31BB
:103AB000116294F82110627E94F8129094F818C064
:103AC000E0690492002900F08A80E16894F810E02F
:103AD00094F822B094F820A0CDF814E0002B40F028
:103AE000818010F1010818BF4FF0010894F824E01C
:103AF0003368BEF1000F0CD1226802926268039213
:103B0000029AA468C3F80825039AC3F80C25C3F8E1
:103B10001045049AC3F8C095003A18BF0122BCF1C1
:103B2000020FC3F8245560D0BCF1030F60D0BCF184
:103B3000010F01D142F00202C3F85425B8F1000F81
:103B400011D0BEF1000F0CD1441C18BFC3F86C0596
:103B50004A1C1FBF059AC3F81415C3F86825C3F89B
:103B600064B5C3F860A5337924225343FB58002B76
:103B700041D0306840F3073007B0BDE8F04FFDF7A3
:103B800067BB244B9D420CBF4FF080554FF08045E2
:103B90003BE7214B9D4213D01D4B9D4213D01F4B41
:103BA0009D420CBF4FF000454FF080452DE74FF090
:103BB00000552AE74FF0006527E74FF0007524E72E
:103BC0004FF0206521E74FF0A0551EE702FB0A7A6F
:103BD000E168CAF82010227C8AF81F2069E74FF0BC
:103BE000FF3173E74FF0010880E742F00402A3E7DA
:103BF00042F00602A0E707B0BDE8F08F80841E0007
:103C000020A1070048E8010090D0030090040020A4
:103C10000048E80140420F000024F40000127A003E
:103C2000431C07B50ED0019001A8FFF765FE019B6C
:103C300000EB8300054BD0F80027134043F002034C
:103C4000C0F8003703B05DF804FB00BFF0F8FCFFDC
:103C5000F8B50546134C2F7924267E4304EB060C59
:103C60009CF81CE0BEF1000F17D1A251CCF8043033
:103C700051B14869FFF750FE88B12846FFF7A6FE0C
:103C80002B680722C3F80025242303FB07440023E5
:103C90006377054801232377F8BD0448FCE704480F
:103CA000FAE700BF900400200000AD0B0500AD0B4B
:103CB0000400AD0B2DE9F041044606790068254D5E
:103CC00040F30730FDF7D2FA24237343EA18EB5888
:103CD00063B123682049C3F80813537F33B106EB5F
:103CE000C601206805EB810102F05FF8236800221D
:103CF000C3F800252421236801FB0651D3F80805E9
:103D0000D3F80C75D3F810858B7FDB0714D4FFF73D
:103D100087FF4046FFF784FF3846FFF781FF086AB8
:103D2000FFF77EFF2368D3F86C05D3F81415FFF76F
:103D300077FF0846FFF774FF2368084A934204BFE1
:103D400001225A60242303FB065500232B77BDE88C
:103D5000F08100BF900400205201080000F00240F2
:103D60002DE9F04390F80480624E242303FB08F30E
:103D70001746F2180D46517F85B08146002940F064
:103D8000B780F35823B117F0140F04BF0123537702
:103D900095E80F00242404FB086404F10C0C8CE863
:103DA0000F00206A411C03D0E37FD3B101F0E3FF91
:103DB0002968D9F8004021B101F06043B3F1005FF8
:103DC00006D1AB6883B103F06043B3F1005F0BD061
:103DD000242303FB0863002247485A7705B0BDE857
:103DE000F08301F0D5FFE3E7444B9C4224D14FF030
:103DF00080436A68D3F8000E414B1860E2B1414835
:103E000021F4FF5323F01F03834260D85018DFF8DA
:103E1000F8C0C3F34F3101228A40002103F500535B
:103E2000984241EA02014FEA420201D96345F5D3C3
:103E30004FF08043C3F8001E17F0010318BF0123A1
:103E4000C4F8503517F0020318BF0123C4F84035F9
:103E500095E80F00EC468CE80F00039BC4F844057E
:103E6000C4F84815C4F83425C4F838350023C4F81C
:103E700018313A07D4F818310FD4242303FB08F380
:103E8000F2580123236142B9D4F81831002BFBD03A
:103E900062464021204601F030FF242303FB08F353
:103EA000F358D3B9154B9C4201BF154B1A684FF01C
:103EB0008043C3F8002E242303FB0866306A431CAA
:103EC00003D0F37F33B101F063FF104886E74FF46E
:103ED0008071ADE701F04FFFF7E717F0040F4FF0E7
:103EE000400302D0C4F80833EFE7C4F80433ECE72A
:103EF000074873E7900400200A00AD0B00F0024071
:103F00008C040020FFFF0020002001200000AD0BEA
:103F10000B00AD0B114A124810B5402101F0EDFE27
:103F2000420619D50F4B10491A684FF08043C3F869
:103F3000002E086A431C03D0CB7F53B101F028FF49
:103F400000234B770B72BDE81040D1E900310748E0
:103F5000184701F010FFF3E710BD00BF9C040020DC
:103F600000F002408C0400209004002098040020FF
:103F700030B500F01F04400911D0012812D10C48BF
:103F800000EB84001B02D0F800570A4C43EA82027F
:103F90002C4042EA41012143C0F8001730BD4FF0E8
:103FA000A040EDE704F5E074002353F82430FFDE71
:103FB00000030050F0F8FCFF2DE9F041174E0479A2
:103FC0004FEA441806EB441494F814C0BCF1000FF7
:103FD00022D10568A260A361B1B946440023C5F8A7
:103FE0003435C5F83835C5F84435C5F848357375E6
:103FF00040F20243C5F80433012333750848022315
:10400000C5F80035BDE8F081CB7D237701F001FFD5
:104010000028E2D10348F5E70348F3E7B4040020A1
:104020000000AD0B0400AD0B0500AD0BF8B5047935
:10403000069E2CBB46EA0204B4F5803F20D221B193
:1040400001F06044B4F1005F1CD123B103F060447F
:10405000B4F1005F16D10E4C677D012FFDB213D075
:1040600002D9023D012D11D8C4E903132260666014
:10407000006807490123637501F0ABFE0548F8BDF0
:104080000548FCE70548FAE70548F8E70548F6E77C
:10409000B40400200000AD0B0600AD0B0A00AD0B10
:1040A0000500AD0B0100AD0B10B54FF04020D0F86E
:1040B0002831D3B100231749C0F82831D0F828316E
:1040C0004B7D012BDAB210D10B68CC68C0F84445A7
:1040D000C0F848354B680C69C0F83445C0F838352D
:1040E000826202234B7501F074FE4FF04020D0F83D
:1040F000043173B100230749C0F80431D0F804310A
:104100004B7D022B05D103234B75BDE8104001F018
:1041100060BE10BDB404002010B5144C144A1549FB
:10412000032323616361144BA261E3614FF4806355
:1041300023620023A3626362E36222660F4A62661F
:10414000E01D1022A2662367E366636701F09FF912
:10415000BFF35F8F0A49204601F099F9BFF35F8FE3
:104160002023A371BFF35F8F10BD00BFD4040020D4
:10417000216A00002A6A0000DD050020CD0500202C
:104180002E6A0000104B70B553F82040013053F8F0
:104190002060A64200D870BDD4E9003595B153B176
:1041A0002846984738B10028B8BF4042EB68FF283E
:1041B000A8BFFF201870EA68537843F001035370DA
:1041C0000834E6E79847FBE7D867000008B50A4BD4
:1041D000012203201A70FFF7D5FF00F099FE04209A
:1041E000FFF7D0FF00F01CF9FCF738F9034A137B06
:1041F00023F00103137308BDDD09002080020020B5
:1042000008B50348034A0021121A01F0A2FE08BDB6
:10421000E0010020E009002070B5002386B00122F3
:10422000CDE90423134E144D01930F22CDE9023240
:104230001249142303FB005506EBC01604464FF445
:10424000C07000FB04110E4B00954FF4A072304675
:1042500000F088F8737B0B4AEE6023F0040373735D
:104260004FF4046304FB033313442C746B6006B0F7
:1042700070BD00BF000200207C050020401200201D
:10428000D9440000000A002080B50020A6B0FFF746
:1042900079FF2D4B83F308882C4D2D4E6B692D4FE4
:1042A00043F400736B610024E02385F82230EC773F
:1042B0002C766C76AC7685F820406B6A43F4E0236C
:1042C0006B6285F82340FDF73BFAFCF7A1FF4FF046
:1042D000FF33AB62EB62FDF717FBFDF77DFA40F2AF
:1042E0000113ADF8243006ABB360CDE9204423942C
:1042F00001F0FCFD0120FFF745FF0220164DFFF7FE
:1043000041FF00F067FB154BB5610593012314498C
:104310000094CDE903434FF480623B46CDE901446C
:10432000284600F01FF86A7B064622F00402284661
:104330006A7301F05EFE2046FFF76EFF3A46314693
:104340002846FDF77BF800BF4012002000ED00E09A
:104350007C050020CD41000080020020356A00006D
:10436000C01300202DE9FF410E9E067304264673FC
:104370000D9E867300F158050F46D61DC0E91655EF
:104380000C9A002526F007064037C0E90655C0E91B
:104390001A768560C573056706F1400802920B9A8C
:1043A000019288440A9A009242460446FDF714F8A6
:1043B000044B65659B6803B15B6F6367404604B05F
:1043C000BDE8F0817C050020F0B587B0002505959B
:1043D000109D04950F9D03950E9D0295DDE91276C3
:1043E0000D9D01950C9D00950446FFF7BBFFB6F1AE
:1043F000FF3F08BFB7F1FF3F05D056EA070305D1DD
:10440000204600F067FA204607B0F0BD03493A465F
:10441000334604F1180000F059FCF4E7576000003F
:104420002DE9F043294C2A4D87B02646AE4204F1CF
:104430002C040FD300F09EFA244CDFF898904FF430
:10444000004640F2E737AC4220D307B0BDE8F04366
:1044500000F0A4BA54F8043C059354F80C3C0493BF
:1044600054F8103C039354F8143C029354F8183C4D
:10447000019354F81C3C009354E9092354E90B01BF
:10448000FFF770FF54F82C3C5E65CEE7636A5A1C58
:104490000DD023EAE37300213846C3FB060151EA3D
:1044A000C333D4F8008004D1404600F013FA2C3412
:1044B000C9E74FF47A720023FBF722FE02460B464F
:1044C00008F11800494600F001FCF0E730650000F3
:1044D000306500005760000008B50B4C0B4D4FF0E5
:1044E0002002EFF3118382F31288BFF36F8F01F084
:1044F00039FE2B78606113B9FCF790FEEFE7FCF70B
:10450000B9FD0028EBD1F7E77C050020DD0900208C
:1045100038B504464FF02003EFF3118583F312887A
:10452000BFF36F8F01F09BFD48B10022C26701F01D
:1045300060FD29460848BDE8384000F0B9B9D4E923
:1045400002329A4218BF0133A360022104F1100025
:1045500001F07AFEEDE700BFDE09002013B54FF051
:104560002004EFF3118184F31288BFF36F8F846806
:1045700044B1013C846081F31188BFF36F8F002048
:1045800002B010BD52EA030406D181F31188BFF3D3
:104590006F8F6FF00F00F3E7CDE90023024602486A
:1045A00000F068F9ECE700BFDE09002070B50446B2
:1045B0004FF02003EFF3118583F31288BFF36F8F61
:1045C0006FF00A06204601F04AFD18B1C66701F0F7
:1045D00010FDF7E7A060022104F1100001F034FEA5
:1045E00029460248BDE8704000F062B9DE090020AB
:1045F000C3897F2B12D80A4B1B6863B1094B90F912
:104600000E201B689A4209DB437BDB0606D1064B72
:10461000C31A18BF012303F0010070470023FAE713
:10462000A8050020A405002000020020044BC01AA9
:10463000044BC0105843044B01221A54704700BF6A
:1046400000030020ABAAAAAADE09002070B50E4B19
:104650000E4C1E7C06EB460304EBC30405462046C5
:1046600001F06AFD0A4B002228469A55FFF7C0FF69
:1046700048B1084B08491A68013A2046D317BDE8EB
:10468000704000F023BB70BD7C05002000030020BB
:10469000DE090020A80500202D46000038B50D4D8C
:1046A0002B4653F81C4F9C4200D004B9EC68AB6811
:1046B00038B95A7BD20604D1A26912B9DA897F2AA5
:1046C00005D89C4202D02046FFF7C0FF2346AB61CD
:1046D00038BD00BF7C05002070B590F90D20437BEC
:1046E000002A014604DA03F07F03437301F047FC1C
:1046F0004B7B154A63F07F0310464B7350F81C3F09
:10470000146A834208BF002323B9C1E90004216071
:1047100011620CE091F90E5093F90E60B5420ED083
:10472000AE420CDD5868C1E9003001605960906804
:10473000431A5842BDE870405841FFF7AFBF9C4252
:10474000E3D01B68E0E700BF7C05002070B490F95F
:104750000D30427B002B29DBD30627D183692BBB8D
:10476000134962F07F0242730A4652F81C4F94428A
:1047700018BF23460C6A23B9C0E9002420600862F0
:104780000CE090F90E5093F90E60B5420AD0AE429B
:1047900008DD5A68C0E900321060586070BC002023
:1047A000FFF77CBFA342E7D01B68E4E770BC70470B
:1047B0007C05002008B590F90D20437B002A0146B6
:1047C00004DA03F07F03437301F0D9FB044B9868CC
:1047D000431A58425841BDE80840FFF75FBF00BF89
:1047E0007C05002070B515461C46064601F0D9FB35
:1047F000B4F1FF3F08BFB5F1FF3F08D02A4623467A
:1048000006F118000249BDE8704000F05FBA70BDC3
:104810005760000038B54FF02003EFF3118583F3A4
:104820001288BFF36F8F104B104A9C681068A0422B
:1048300006D1FFF70BFF85F31188BFF36F8F38BDEB
:1048400000211B7C11600A4AD35C002BF3D0204668
:10485000FFF7CEFE0028EED0637BDB0602D12046B8
:10486000FFF73AFF2046E4E77C050020A005002082
:10487000DE09002070B50C480C4D86682E600C4691
:104880001146DDE904234FF02006EFF3118586F38E
:104890001288BFF36F8F8068FFF7A4FF2046BDE842
:1048A0007040FCF745BD00BF7C050020A00500203E
:1048B00049B9EFF3058030B9054B9A699B689A4274
:1048C00001D0FCF735BD81F31188BFF36F8F7047BE
:1048D0007C05002010B54FF02002EFF3118482F325
:1048E0001288BFF36F8F427B510704D484F3118881
:1048F000BFF36F8F10BD22F004024273FFF726FF53
:1049000021460248BDE81040FFF7D2BFDF09002072
:1049100070B50446183001F00FFC4FF02003EFF3A0
:10492000118683F31288BFF36F8F94F90D20637B98
:10493000002A05DA03F07F036373204601F01FFBB2
:104940000B4D637BA86843F010036373031B58424D
:104950005841FFF7A3FE86F31188BFF36F8FAB6852
:10496000A34203D1BDE8704001F0B9BB70BD00BFE8
:104970007C0500204FF02003EFF3118183F31288B0
:10498000BFF36F8F044B9A68D37B013BD37381F3E2
:104990001188BFF36F8F70477C05002010B54FF072
:1049A0002003EFF3118483F31288BFF36F8F084B5A
:1049B0009A68D37B0133D3730020FFF76FFE84F333
:1049C0001188BFF36F8FBDE8104001F088BB00BFB6
:1049D0007C050020024B03F11C02C3E9072270474B
:1049E0007C050020F8B54FF02003EFF3118583F329
:1049F0001288BFF36F8F19498868437B03F07F03E8
:104A0000437301F0BCFA8B685A7B084662F07F0260
:104A10005A7350F81C2F0C6A824208BF002222B938
:104A2000C3E9000423600B620CE093F90E6092F975
:104A30000E70BE420ED0B7420CDD5168C3E90021B2
:104A40000B6053600120FFF729FE2846BDE8F840BF
:104A5000FCF76EBCA242E3D01268E0E77C050020C0
:104A600050EA01032DE9F04105460E4603D1FFF758
:104A7000B9FF00202CE0831C71F1FF332ADB01F029
:104A800081FB2C184FF02003EFF3118883F3128879
:104A9000BFF36F8F114F124BB8681860FFF78AFE93
:104AA000B86810492A463346183000F00FF9BA6842
:104AB000537B43F0100353734046FCF739FC01F07D
:104AC00061FB201A63EB0303012873F10003D0DBC1
:104AD000BDE8F0816FF00104241AD3E77C050020C3
:104AE000A005002057600000B1F1FF3F08BFB0F102
:104AF000FF3F08B506D1084B9868FFF709FF4FF054
:104B0000FF3008BDFFF7ACFF4FF47A7380FB03035F
:104B1000C00B40EA4340F4E77C050020014B986855
:104B2000704700BF7C0500202DE9F04104464FF09E
:104B30002003EFF3118683F31288BFF36F8F037B9B
:104B4000D9070BD586F31188BFF36F8F404080F3F0
:104B500011884FF0040002DFBDE8F081437B1A07A3
:104B600004D586F31188BFF36F8FF5E723F0200299
:104B700042F00801D20920D14173A36813B1204645
:104B800001F005FA04F1180001F0D6FA04F1580713
:104B90004FF00008A56DBD4200D0B5B90120FFF768
:104BA0007DFD104B9B68A342DBD1EFF30583002B07
:104BB000D7D13046FCF7BCFBD3E703F05F0343F0EB
:104BC0000803437301F0DBF9D7E7284601F0DFF96A
:104BD00005F1180001F0B0FAC5F87C802846FFF70F
:104BE000B5FDD7E77C050020D3B5DDE90667089C55
:104BF000CDE90067FFF73EFE1CB1034B9B685B6984
:104C0000236002B0D0BD00BF7C05002008B5064877
:104C1000064A0749121A01F09EF9BDE80840054A04
:104C20000549064801F097B900000020E001002086
:104C3000886A000000000000886A00000000002070
:104C4000034B1B680BB9FEF7FBB80020704700BF91
:104C5000AC05002010B50E4B1C689C4204D1FFF738
:104C6000EFFF6FF0004010BDFFF7EAFF002CF8D017
:104C7000D4E904321B1A62EBE072B3F1004F72F117
:104C80000001EEDA002AACBF18460020EBE700BFB7
:104C9000CC01002030B570B10B4B5B6898420AD054
:104CA000036843B1D3E90421D0E90445121941EB6B
:104CB0000501C3E90421D0E9003213605A600023E2
:104CC000C0E9003330BD00BFCC010020B3F1FF3F8D
:104CD00008BFB2F1FF3FF8B504461D4616465CD04A
:104CE00081604FF02003EFF3118783F31288BFF345
:104CF0006F8F013275F1FF3324DA2D49D1E900209D
:104D00006FF001039B1A4FF0FF3262EB00009E1B15
:104D100060EB0500012E70F1000301DA012600208E
:104D2000C4E90460234ED6F800C07568B44508BFD6
:104D30004FF0000CBCF1000F0DD1C4E900652C60F0
:104D400074601CE0FFF77CFF013645F10005361862
:104D500045EBE070E4E7DCE90420D4E90431934258
:104D600071EB000E1ADAD21ADCF8043060EB0100A5
:104D7000CCE90420C4E900C31C60CCF804403368CB
:104D8000B34206D09C4204D1FFF764FF0021FEF736
:104D900025F887F31188BFF36F8FF8BD9B1A61EB7D
:104DA0000001AC45C4E90431C7D0DCF800C0C1E75C
:104DB00018030020CC0100202DE9F84F4FF020030C
:104DC000EFF3118C83F31288BFF36F8FDFF8B0A07D
:104DD000DFF8B0902C4FC9F80000DAF8000000248A
:104DE000504508BF00200025D7E90021D9F8003040
:104DF000E04680B3D0E9046C4FEAE37EB3427EEB39
:104E00000C0B05DAF61A6CEB0E04C0E9046422E020
:104E1000B21841EBE671C0E90445C7E90021FFF78C
:104E200039FF88F31188BFF36F8F836898474FF07D
:104E30002003EFF3118883F31288BFF36F8FD9F843
:104E40000030DAF800009B1B5045C446C9F800301A
:104E5000CAD1D7E900219A1841EBE3730024C7E9CE
:104E60000023C9F80040FFF7F5FE2146FDF7B6FF25
:104E700088F31188BFF36F8FBDE8F84FFFF7CABC06
:104E8000CC010020AC0500201803002010B54FF025
:104E90002003EFF3118483F31288BFF36F8FFFF7C2
:104EA000CFFE064A0346D2E90001181841EBE37130
:104EB00084F31188BFF36F8F10BD00BF180300206B
:104EC00038B503464FF02002EFF3118582F31288C4
:104ED000BFF36F8FC160012181600068834206D1FA
:104EE00085F31188BFF36F8F0024204638BDD0E9C9
:104EF000003213605A600023C0E9003301F04AF920
:104F0000294604460148FFF7D3FCEEE7DF090020FD
:104F1000014800F04EB900BF3D6A00001FB5094BC3
:104F2000029302AB00240093074908488DF80C4017
:104F30004FF0FF334FF4806200F000F9204604B0D8
:104F400010BD00BF7F6A0000001800202003002071
:104F50002DE9F04F4A4E85B004464FF0FF384FF030
:104F6000FF394FF02003EFF3118783F31288BFF36B
:104F70006F8FD4F880508DB9022104F1980001F0B0
:104F800079F9002843D10023CDE90089029304F187
:104F9000880239463B48FFF727FEE2E7D4F8842031
:104FA0002B68C4F88030954208BFC4F88430D4F828
:104FB000983043F00203C4F89830EB6823F0040300
:104FC00043F00103EB606B6887F31188BFF36F8FC9
:104FD000284698474FF02003EFF3118B83F3128894
:104FE000BFF36F8FEB68990723F0010219D4EA60D1
:104FF000D4F8983023F00203C4F898308BF311886A
:10500000BFF36F8FDB05ACD4FFF7ECFCA9E704F12D
:10501000900500220121284601F06BF80028F8D104
:10502000B1E7306823F00303EB600028E0D00027ED
:10503000D0F800A03B460028DAD0426895420146ED
:105040000CD101689FB972683160824200D17160F1
:1050500040F8083BFFF75CFA39460023BAF1000F2D
:105060000BD0DAF8002050460F469246E3E739604D
:105070007268824208BF7760EAE75246F3E700BFF2
:10508000B0050020DF090020F8B5C3689A07044680
:105090000F46C3F340062CD45B071AD40B680BB938
:1050A00083680B60E368DD0744BFA3683B603D682D
:1050B0004CBF02260126002D3AD01F4B9B68AB4205
:1050C0000AD0D5F89830D807C3F3800214D46FF013
:1050D000120600233B6025E000F03FFFD5F8983032
:1050E0000028F0D1D907C3F3C002F0D552B15B0755
:1050F00008D46FF00F06ECE7002AFAD1C3F3C0031F
:10510000002BF6D100232360D5F8843063B9C5E9BC
:105110002044284601F0B9F8E36843F00403E36053
:105120003B68A3603046F8BD1C60C5F88440F0E7DA
:105130006FF01506CDE700BF7C050020F0B589B003
:1051400004460020C4E920000E9D04F18800C4E953
:10515000220004F19000C4E924001DB3287900283E
:1051600040F2011008BF0120C4F8980000204FF061
:10517000FF364FF0FF37CDE90330CDE90100CDE92F
:105180000667094B00942046FFF71EF925B12968F0
:1051900011B1204600F0E7FE204609B0BDE8F0401E
:1051A00000F0E4BE0120DFE7514F0000704700200F
:1051B00070470FB407B504A951F8040B0191FBF730
:1051C0001FFA03B05DF804EB04B07047044608B55D
:1051D000084611461A46A047FFF7A0FCFCF7E6FA7E
:1051E000038B13F0070305D10368002B0CBF0020CD
:1051F00003207047022B05D1408BB0FA80F04009A4
:1052000080007047012B05D10368002B0CBF0020E4
:10521000052070470020704710B50C4600B111B949
:105220006FF0150010BD081D00F095F80028F9D1A9
:10523000A368032BF6D9F3E72DE9F0410D460746A5
:105240001946281D90461E4600F099F8044638B1CC
:105250003346424629463846A446BDE8F0416047F9
:10526000BDE8F08110B44FF02004EFF3118284F315
:105270001288BFF36F8F416110BC0121FBF7CEB9DB
:1052800038B50C46054658B151B10B6843B14B686F
:1052900033B11C22002100F016F92C61002038BD2A
:1052A0006FF01500FBE770B505460E46FFF7B4FF3B
:1052B000041E15DB4FF02003EFF3118283F31288F5
:1052C000BFF36F8F6B8B2C8B4FF6FF718B4204F00B
:1052D000070407D182F31188BFF36F8F6FF00A04C0
:1052E000204670BD022C0CD101336B8382F31188F0
:1052F000BFF36F8F0023224631462846FFF79CFFFD
:10530000EEE7062C14D8DFE804F004131313041A94
:105310000400002333606B683BB9C5E90066ACB993
:1053200002212846FBF77AF9DAE71E606E60F6E79D
:1053300082F31188BFF36F8F6FF00404D0E782F31C
:105340001188BFF36F8F6FF08504C9E782F311886E
:10535000BFF36F8FC4E7034640B1426802F0030217
:10536000022A06D0032A04D0012A05D06FF01500C6
:1053700070471A68002AF9D000209860704710B56D
:105380004268816002F00302022A03464FF00004E3
:1053900007D0032A02D05C60002001E018685C603E
:1053A00010BD18685C600028F6D0FFF789FDF3E7B0
:1053B0002DE9F84F9A46D3786F2B80460F46154655
:1053C000A3F1410B29D024D8582B0CBF10260A2654
:1053D000DDF828903246002340463946FAF790FE21
:1053E000092AD4B21ED83034B045E4B277F10007B0
:1053F00009F8014D01D3D14511D82B789B0605D56D
:10540000082E15D1AB7843F00803AB704846BDE8D1
:10541000F88F03F0F703702BD7E70826D8E780460C
:105420000F46D7E7BBF1190F94BF37345734DBE78A
:10543000102EEBD1AB7843F01003E6E72DE9F041F5
:105440000746884615461E461446B44205D30EB19B
:10545000601B08E02378002BFAD014F8010B4146BA
:10546000B8470028F1DABDE8F081704700F056BD7A
:105470000146006800F052BD00210120FFF7F6BF91
:1054800008B5FBF72DFFBDE80840FCF70DB8013962
:10549000034611F8012F0AB91A70704703F8012B5F
:1054A000F7E7034600201A5C02B970470130FAE7BB
:1054B00010B5431E0A44914200D110BD11F8014BB2
:1054C00003F8014FF7E7C9B202440346934200D103
:1054D000704703F8011BF9E74FF0FF3070470346B0
:1054E00000201A5C0AB1884200D170470130F8E709
:1054F000062808D14FF080430122C3F80025BFF3EE
:105500004F8F20BFFDE77047002383F31188BFF35F
:105510006F8F70470369C9B20C2201FB0233186C0C
:1055200000F0070070474FF02003EFF3118283F380
:105530001288BFF36F8F036803F0C00343F00203C8
:10554000036082F31188BFF36F8F704770B5C9B2E3
:1055500003694FF02004EFF3118584F31288BFF341
:105560006F8F0C2606FB0134246C14F0C00408D0A5
:10557000A24206D085F31188BFF36F8F4FF0FF3042
:1055800070BD06FB013301221A6485F31188BFF355
:105590006F8F436803EBC1035B6898470020EFE718
:1055A0008022FFF7D3BFF8B5069F0469C9B24FF058
:1055B0002005EFF3118685F31288BFF36F8F0C255A
:1055C00005FB0144256C05F0070CBCF1010F0CD163
:1055D000276486F31188BFF36F8FC4E90E234368F5
:1055E00053F8313098470020F8BD05F0C005AF42B0
:1055F00086F31188BFF36F8F0CBF6FF077004FF009
:10560000FF30F1E713B580240094FFF7CCFF02B020
:1056100010BD10B40069CBB21C2403FB04000021B0
:1056200010BC1047002000F0BDBA002000F0F6BA10
:105630001046FEF76DBF43685B68D3F810350B600A
:105640000020704743685B6802EA010021EA02011A
:10565000C3F80805C3F80C150020704743685B6861
:105660000020C3F80815704743685B680020C3F842
:105670000C15704743685A68D2F8043521EA0300D4
:105680000B40C2F80805C2F80C350020704710B571
:1056900003695868F8B1884219D19C680868586055
:1056A000A14200D19860002008602AB15A680A60BF
:1056B0009A68596002B99960002010E0814206D1D1
:1056C0000868206098688142EDD19C60EBE7044651
:1056D00000680028F2D1002AE8D16FF0150010BD53
:1056E00030B543681360057A446804EBC504A342EF
:1056F00002D36FF0010030BD5C798C4201D00833D9
:10570000F0E70020F7E702690B46D2E9010183E8E0
:1057100003000020704743681B68D3F88004C3F877
:1057200080047047436802691B68D3F8100150B1C8
:105730005269002012780A70C3F81001D3F81021C2
:1057400001221A6070474FF0FF307047026803462D
:10575000D2F8580140B95B689B0706D4D2F8200103
:10576000003818BF01207047012070474268136855
:10577000D3F80413C90518D5D3F82011A9B14FF0F7
:105780002000EFF3118180F31288BFF36F8FD3F8FD
:10579000200130B10020C3F82001D3F820010120FE
:1057A000D86081F31188BFF36F8F5268D20615D588
:1057B0004FF02001EFF3118281F31288BFF36F8F56
:1057C000D3F8581111B10021C3F800154FF480012E
:1057D000C3F8081382F31188BFF36F8F704700225C
:1057E00001212F20FBF764BD10B50B6813B91360BE
:1057F000184605E003685C681CB11460036818680B
:1058000010BD083303600B68013B0B60EDE70346F6
:105810000A4600681979012303FA01F103691B683C
:10582000194218BF82F0010212B18368DB68184781
:1058300083681B69FBE710B5036804464BB19A689F
:105840003AB1186900F0A2FC206800210830FFF787
:10585000DEFFA36933B9636004F11000BDE81040B6
:10586000FEF756BE10BD10B5006903688B4206D125
:1058700090F87C4034B9FFF7DEFF204610BD6FF092
:105880001500FBE76FF00F00F8E72DE9F3414468DE
:105890000569E66B01AA00213046FFF721FF0028C9
:1058A00043DB019B326819791868FCF793FB0028E9
:1058B0003BDB636B9847AC6801260834D5E90232BC
:1058C00003EBC203A4F10802934204D82846FFF771
:1058D000B2FF002029E054F8080C00F008FB38B3B0
:1058E00054F8080C14F8041C34F8023CD0F810C02A
:1058F000D0F80880DCF80070DA0754BF43F4B01326
:1059000083F4D01323F4801206FA01FEDB074CBFA8
:105910004EEA070727EA0E07CCF80070D8F80030E7
:105920009847002804F10804C8DA02B0BDE8F08105
:105930006FF01200F9E7F8B50469236806460D46D2
:105940006BB19A685AB1998811F4805707D11869D8
:1059500000F01CFC206839460830FFF758FF94F827
:105960004C3043B9256404F12800FEF7D1FD002333
:1059700084F87C30F8BD636C4BB122689288D20702
:1059800001D505B9256FA26C294630469847236892
:105990009B8813F40053EAD1636004F11000E4E73C
:1059A00038B503780C46002B4CD18D6F35B9606F3C
:1059B0006FF07301BDE83840FFF7BDBF4B6E9BB180
:1059C0009D4211D85B1B4B66002B2FD10B6D08330A
:1059D0000B654B6D013B4B6501F1640204F1500016
:1059E0005431FFF701FF206623689B88DB0742BF25
:1059F000236F5B192367E36E9BB19D4211D85B1B3C
:105A0000E366CBB9A36D0833A365E36D013BE365A2
:105A100004F16C0204F15C0104F15800FFF7E4FEAC
:105A2000A066606FBDE83840FCF720BD0B6E002B10
:105A3000DAD02B440B66D7E7A36E002BF1D02B44B2
:105A4000A366EEE738BD1FB5079C0294069C01943F
:105A500001240094FCF758FD04B010BD1FB50024CC
:105A6000CDE901440094FCF74FFD04B010BD0022C5
:105A700001210420FBF71CBC10B5036804468BB160
:105A80009A687AB1186900F081FB236898681B7BDB
:105A90000121994003691B68194283680CBF1B6987
:105AA000DB689847A36933B9636004F11000BDE86F
:105AB0001040FEF72DBD10BD08B5006903688B428C
:105AC00003D1FFF7D9FF002008BD6FF01500FBE7F9
:105AD00010B50446084694F84C30114633B9226498
